:020000040000FA
:100000000202DF0218034100B8002202180B22226C
:0100100022CD
:07001300021813E4FFE1BC39
:07001B0002181B75C8012249
:030023000218239D
:03002B0002182B8D
:030033000218337D
:03003B0002183B6D
:030043000218435D
:03004B0002184B4D
:030053000218533D
:03005B0002185B2D
:030063000218631D
:03006B0002186B0D
:10007300021873BB010689828A83E0225002E722B9
:10008300BBFE02E32289828A83E49322BB010CE54F
:100093008229F582E5833AF583E0225006E9258239
:1000A300F8E622BBFE06E92582F8E222E58229F57D
:1000B30082E5833AF583E49322BB010689828A832E
:1000C300F0225002F722BBFE01F322F8BB010DE53B
:1000D3008229F582E5833AF583E8F0225006E92583
:1000E30082C8F622BBFE05E92582C8F222C5F0F8D4
:1000F300A3E028F0C5F0F8E582158270021583E0CD
:1001030038F022A3F8E0C5F025F0F0E582158270FF
:10011300021583E0C838F0E822EF2BFFEE3AFEED3C
:1001230039FDEC38FC2275F008758200EF2FFFEEE5
:1001330033FECD33CDCC33CCC58233C5829BED9A10
:10014300EC99E58298400CF582EE9BFEED9AFDEC6E
:1001530099FC0FD5F0D6E4CEFBE4CDFAE4CCF9A8B4
:100163008222B800C1B90059BA002DEC8BF084CFBC
:10017300CECDFCE5F0CBF97818EF2FFFEE33FEED93
:1001830033FDEC33FCEB33FB10D703994004EB99BD
:10019300FB0FD8E5E4F9FA227818EF2FFFEE33FED0
:1001A300ED33FDEC33FCC933C910D7059BE99A4005
:1001B30007EC9BFCE99AF90FD8E0E4C9FAE4CCFB1D
:1001C3002275F010EF2FFFEE33FEED33FDCC33CC71
:1001D300C833C810D7079BEC9AE899400AED9BFDFA
:1001E300EC9AFCE899F80FD5F0DAE4CDFBE4CCFA0D
:1001F300E4C8F922EF5BFFEE5AFEED59FDEC58FC23
:1002030022EB9FF5F0EA9E42F0E99D42F0E89C451F
:10021300F022E8600FECC313FCED13FDEE13FEEFC9
:1002230013FFD8F122E8600FEFC333FFEE33FEED87
:1002330033FDEC33FCD8F122E0FCA3E0FDA3E0FEA8
:10024300A3E0FF22E0F8A3E0F9A3E0FAA3E0FB2296
:10025300ECF0A3EDF0A3EEF0A3EFF022A8828583E8
:10026300F0D083D082120276120276120276120244
:1002730076E473E493A3C583C5F0C583C8C582C878
:10028300F0A3C583C5F0C583C8C582C822E0FBA31C
:10029300E0FAA3E0F922F8E0FBA3A3E0F925F0F0EC
:1002A300E582158270021583E0FA38F022EBF0A3A1
:1002B300EAF0A3E9F022D083D082F8E493701274B9
:1002C3000193700DA3A393F8740193F5828883E4DB
:1002D300737402936860EFA3A3A380DF75812F0279
:1002E300094A9000E551B0AE071FEE60129000E896
:1002F30071031176FE9000E57103EE11BC80E822D4
:10030300E475F0018090900A12EEF0A3EFF09000F4
:100313004FE064016002619CC3900A12E0940850AC
:100323000BE4FF9153900A12918780ECE4F50DFBE7
:1003330071C5AF0C12103DE50DC39408504771C34E
:10034300E50D7F0071BDEF29F9EA3EFA9000E8510F
:10035300B07B017A0979007FFF51E5E50DFEE424C6
:10036300FFFFE43E71BD8F828E83118F9009FFF0F2
:100373007B017A0979009000FBE50DF0AD0C1210BA
:1003830063050D80B2900050513BE42FFFEE34081B
:10039300120D139000500214BC900054E0FEA3E031
:1003A300FF71BE900A12E0FDA3E09000D1CD1208C8
:1003B300D4900054EEF0A3EFF022FE902001419080
:1003C3007B007A00791012103675FF031176F5D38E
:1003D30075FF0390000171F190000271F190000329
:1003E30071F175D40175FF03E5D55402FF22118F16
:1003F300F5D375FF03229000F1E0FEA3E0FF9130F7
:1004030091539000F3513BEF2401120D109000F330
:100413005153900A18914D900A18E07002A3E070AE
:100423000BFF7E087109120F4212142822B108CD66
:1004330024FFCD34FFFCC3ED9FFFEC9E541FFE74DD
:10044300082F121416FF229000DF74FFF5F001F05D
:10045300B108541FFC74082DF58274203CF583EF1A
:10046300F0902006E0B42019A3E0B4001490200516
:10047300E02401FF902004E03400541FF0A3EFF0C8
:1004830022902006E475F00101F09000BA515390D8
:1004930000BE51B0110AF11EEF6004110F80F71274
:1004A3000F0560099000BA513B7810D1249000BA2F
:1004B300D1209000BA513BE480219000C11208C7BB
:1004C30045F0601B9000BE5190E94A600C1176FF25
:1004D300D1279000BF918780E1E4FFD12780DBF132
:1004E300B79000AF7401F0229000E3E0FF81039026
:0704F3000A1BE014F0E022F7
:10050800902006E0FCA3E0FD902005E02DFD902062
:1005180004E03C22D1C8EF541FFF12148DA37401CC
:10052800F0120F4C9000DCE0FCA3E0FDAE0478056F
:10053800CEC313CE13D8F9FF9000DFEEF0A3EFF08F
:10054800ED541FA3F0A3E4F09000F1F0A3F0C390E2
:1005580000DDE094209000DCE09400407D914A901A
:1005680000E1E0FEA3E0FF9000F1EE8FF011F090C3
:1005780000DFE07004A3E06406700AD1C89000DFD1
:10058800E48FF011F0D1C89000F1E48FF011F0126F
:100598000FFCEF600512148A8005E49000DEF090ED
:1005A80000F1121371701D91309000E3EFF0910388
:1005B80091EB91EB9000DFE07002A3E0604891EBD3
:1005C800914A80F071F971F971F99000DFE07002D9
:1005D800A3E0603271F9914A80F09000DC91878045
:1005E8000A9000DCE07002A3E0600BD1C891039090
:1005F80000DC914D80EB120FFCEF600512148A802D
:1006080005E49000DEF09000DEE06002A12C1214F8
:10061800AB71099000F3413B513B78085115E4E573
:10062800C820E2FB8FEB227F01F1BC900A1C740109
:10063800F0900A1CE06032120FF4D1BC900A1CEF53
:10064800F0120849D1AB9000ACEFF0120849900ABB
:100658001CE054011213BB60D8A3E0F460D3EF3060
:10066800E7CFE4900A1CF080C8F1E87F9FD127D13A
:10067800BC9000ADD1BA9000B2D1BA9000B3F1B538
:100688009000ABE0F4601BA3E0F460169000B2E0C9
:10069800FD541F240FA3F0EDC413540744809000A9
:1006A800B2F022F1E87FD7D1277FFFD127D1C090C0
:1006B80000ABEFF07FFFD127E5C820E2FBAFEB22CC
:1006C800900081E0B4082CA3E0B40027120F2E7B21
:1006D800017A0179009000CA120F45F161120F2EBC
:1006E800E42FFFEE3408120D13120F28E490008156
:0806F800F0A3F0900083120F43
:10070000DB9000835153900081E475F0013106FEC7
:10071000740025F0F58274013EF583E0FF227F012D
:10072000F1BC300216120FF4D1BC900A1DEFF0128A
:100730000849900A1DE020E002C202300219D1AB44
:100740009000ACEF1213BB600BA3E0F46006EF3037
:10075000E702C202120849E4FFF1BCA202E433FF3F
:10076000229000C351539000C751B0110AF11EEFFF
:100770006004110F80F7F1E47F03120F1E600990EF
:1007800000C3513B7810D1249000C3D1209000C306
:10079000120F349000CA1208C745F06011D1BC9006
:1007A00000C75190EF11BC9000C8918780E51208F6
:1007B00049E4FF8007EFF0120849E4FFEFB40104B9
:1007C00043FE202253FEDF229000ABE020E014F134
:1007D000E47F3DD1277F2AD1277F80D1277FA6D1F3
:1007E00027F1B7227F01F1BC9000B0E051B9080AAF
:1007F00004081214081715081C17082C3008313487
:10080000083636083B3700000824531AEF851A8053
:10081000802F531BEF8008531BDF8003531B7F8502
:100820001B90801D531CDF851CA08015531DFE806E
:100830000D531DEF8008531DBF8003531D7F851D81
:10084000B07F0CDFFE2212062712149FEF70FA9081
:1008500000B2E0F4600B900A1B7406F01204F27010
:10086000FB9000B0E01202B9088404088C140891CF
:100870001508961708A63008AB3408B03608B53707
:100880000000089E431A10851A80802F431B108099
:1008900008431B208003431B80851B90801D431C45
:1008A00020851CA08015431D01800D431D1080086C
:1008B000431D408003431D80851DB0900A1B740CAE
:1008C000F01204F270FB2274FFF5F0020106E0FD65
:1008D0009000D1E4F0A3EDF09000CCEEF0A3EFF0A7
:1008E000A31202B09000D111C745F060549000CE21
:1008F0001202901200769000D3F09000CF1204877D
:100900007D80ED60DF3141EE7C0030E7027C0190BC
:1009100000D3E05D7B0060027B01EB6CFCEF25E027
:10092000FFEE339000CCF0A3EFF0AF04EF600C903B
:1009300000CCE06410F0A3E06421F0EDC313FD806F
:10094000C19000CCE0FEA3E0FF2275FF03759E027C
:100950009017FAE493900A0FF075FF02E5E654034E
:100960006002618B7510DE7511AD7512BE7513EFE7
:10097000C2AF75FF0275E404F5E4751AFF751BFF3D
:10098000751CFF751DFF7516FF7517FF7518FF7530
:1009900019FF75FF0253E6BFD11A1210DAB11BEF2F
:1009A00064016002618290180893FE740193FF90C5
:1009B000007FEEF0A3EFF0F5828E83E493FE7401E6
:1009C00093FFC3EE9480500280047E807F008E14DB
:1009D0008F15B1F7FFF5828E83740293F51E7403B1
:1009E00093F51F740493F508740593F50974069341
:1009F000F50A740793F50BC201EF4E700241E4EF64
:100A0000F4FFEEF44F700241E4E514451EFEE515D7
:100A1000451FFFE5084EFEE5094FFFE50A4EFEE5DE
:100A20000B4F4E700241E4E51FF4FFE51EF4FEE5B6
:100A300015F4FDE514F44EFEED4FFFE509F4FDE578
:100A400008F44EFEEF4DFFE50BF4FDE50AF44EFE13
:100A5000EF4D4E700241E47F03718EE50B24FFFFE2
:100A6000E50A71BC640370227F02718EE50924FFE0
:100A7000FFE50871BCB402127F01718EE51F24FFEF
:100A8000FFE51E71BCB40102D2012001577F017144
:100A90008E71B59000D1E51EF0E51FF13B71A07F8E
:100AA0000271AB9000D1E508F0E509719E7F0371FA
:100AB000AB9000D1E50AF0E50B719E7F01718E903D
:100AC0000A10E0FEA3E0FF7BFF7A187900E4251509
:100AD0009000D2F0E51434E89000D1719F4EC370BD
:100AE00001D39201300109F1ACEF6401600261822F
:100AF000D20091FB7B017A007964B1D8741BF012AB
:100B00000761900064E0B4800B9153EF70061214FB
:100B100046EF6002C20030006530011AB1F7F5827D
:100B20008E83740C93FE740D93FF90007DE06E70C5
:100B300003A3E06F604890005012025F00001800AD
:100B400091FBF128F12EEF2401B110B1D27404F021
:100B5000120761900087B10A9000871214BC9000C0
:100B600081F14590004F04F012051C7440D3950CA0
:100B7000400C1203C3AF0C12103D050C80EDE4FFD6
:100B8000F186E4F510F511F512F513021800AEFF29
:100B9000EE54CFFEEFC454F024804EF5FF22A3F0B4
:100BA00011D8900A10EEF0A3EFF022718E900A1087
:100BB000E0FEA3E0FF7BFF7A80790022347F8F8202
:100BC000F583E49322900000EEF0A3EFF0A312026D
:100BD0003B900008120253900006E0FFA3E0900053
:100BE0000CCF806090000C121371605EC3EF9440D4
:100BF000EE94004006A37440F0800590000EEFF0E4
:100C0000B1FFE0FFB1D8EFF090000812023B1207ED
:100C10006190000EE0FFC390000DE09FF090000C8B
:100C2000E09400F090000812024790000EE4FCFDF2
:100C3000FE12011C900008120253914AB1FF11CE1E
:100C4000900000EEF0A3EFF0809A900000E0FEA389
:100C5000E0FF2291FBB101900006E4F07405F13B46
:100C600091F0C006C00791FBEF2407B110B10190CD
:100C70000006E4F0A37414F0D007D00691F0C0068B
:100C8000C007B107B101D10940067EFF7FFF800692
:100C900090006512023B900006EEF0A3EFF0D00743
:100CA000D00691F0D109402F91FBEF241AFFE43ECA
:100CB000FEED3401FDE43CFCB10190006512023B05
:100CC000EF2401FFE43E900006F0A3EFF0900A1637
:100CD000E0FEA3E0FF91F0900069E0FEA3E0FF904A
:100CE0000A16E06E7003A3E06F7F0060027FFF22B0
:100CF00071C5900A16EEF0A3EFF0229000A6020252
:100D00003B9000020202539000A612023BEF241B0C
:100D1000FFE43EFEE43DFDE43CFC22E49000AAF04A
:100D20007B017A007995121378900097E0FF741197
:100D3000D39F5077E4FFFEFDFC7B017A0079FE90A3
:100D400000CAF0A37402F01207619000FEE0FEA357
:100D5000E0FFE4FCFDB1CC91FBEF2402B110B1CC7B
:100D60009000B5E024FFFF9000B4E034FFFEE4FC07
:100D7000FD9000A61202471201F79000FCEEF0A3CE
:100D8000EFF09000A61202479000FCE0FEA3E0FF07
:100D9000C39000B5E09FFF9000B4E09EFEE4FCFD30
:100DA00012011CB1CC9000AA7401F09000AAE0FBE3
:100DB0006017E4FFFE7D02FC900097E024EFF9F855
:100DC00012022890008F120253AF03229000A60255
:100DD00002537B017A0079839000CAE4F0A3229148
:100DE000FBEF2401B110B1D27404F0120761B10716
:100DF000F128900081E14590007FE0FEA3E0227B96
:100E0000017A00790F90000E22E47FFF7EFFFDFC47
:100E1000900065120247D3020204E4900A1EF0908B
:100E20000A1EE0FFD3946F501EEF2410FFF198903C
:100E30000A1EE0FEE42EF582E4344FF583EFF090D5
:100E40000A1EE004F080D87B017A4F79009000D12F
:100E5000E4F0A37470F07F0F7E1D11D8EF4E7F0079
:100E600070027F01901218EFF024FF22900A09EB24
:100E7000F0900A05120253900A0512023BD1C3906A
:100E80000A09E06F603B12000A12071EEF600512AC
:100E9000000F80F5F105600B900A0512023B7810F7
:100EA000120624900A05120620900A05F134900AD1
:100EB00009E0FF1206271207B79000AF7401F0D3C4
:100EC00022C322900A0012025312000A12071EEFD8
:100ED000600512000F80F51207E47F03F11E600B1E
:100EE000900A0012023B7810120624900A001206A3
:100EF00020900A00F1341206BC900A041207B59043
:100F00000A04E0FF227F011207BCD2021207E87F29
:100F10000612062711491207E89000AEE0FF1206FC
:100F2000279000B1E06402229000870202539000F3
:100F30008702023B12023BE4020627A3F07F0F7EEA
:100F40001D22900A187408F0A3E4F022F1429000E8
:100F5000F312025F00000000E4902004F0A3F0A36D
:100F6000F0A3F07B017A2079089020011202B0E40E
:100F7000902000F0227F0F7E1D11D09000D8120229
:100F8000909000DB01CEAB07E4FF9000AAE0600781
:100F9000F1D8D16CE433FF2275FF03E4F59712100A
:100FA00021E59720E1FB75FF03AF9922E4900A1A2F
:100FB000F09000AAE0601B90008F12023BE4FBFA65
:100FC0007902F8D31202045009F1D8D1C3900A1A59
:100FD000EFF0900A1AE0FF229000A612023BEF24E5
:100FE000FFFFEE34FFFEED34FFFDEC34FFFC22E4A6
:100FF000FCFDC1C31207E87F05020627E4FFFEFDE2
:10100000FC900083120E137F0040027F012275FFC7
:10101000037597011121E59720E1FB75FF03AF9957
:101020002275FF038F9875FF0322113675FF03E5C4
:10103000D5F45402FF2275FF0375D4022275FF0315
:10104000EF543F4480F5D1E5D520E20AE5D520E014
:1010500005E5D530E1F1E5D55403FF75FF0375D5FE
:101060000580D375FF03ACD5EC20E13C75FF03EDA3
:10107000543FF5D175FF03E9F5D375FF03EA540F2B
:10108000FF9000FBE0C4547044804FF5D2E5D520BA
:10109000E205E5D530E0F6E5D55401FC75FF0343E4
:1010A000D40275FF0375D505AF042212000A12079A
:1010B0001EEF600512000F80F57F011207BCD202FF
:1010C0001207E87F061208461207E87F011206277A
:1010D0007F03120846E4FF0207BC7B017A0079B067
:1010E0007F0351E47A0079B97F0851E47A0079B638
:1010F0007D027F0951847B017A0079B47D027F0BE8
:1011000051849000B471716006BEFF16BFFF135189
:10111000F35002800451FC80099000B4E4F0A37401
:1011200040F051F3500280089000B17403F0800643
:101130009000B17402F09000B0E01202B9115904AD
:10114000116414116C15117417118A301192341135
:101150009A3611A2370000117F75FF015316EF85F3
:1011600016FD804775FF015317EF800E75FF015381
:1011700017DF800675FF0153177F8517C9802C750F
:10118000FF015318DF8518CA802175FF015319FE2E
:10119000801675FF015319EF800E75FF015319BFBB
:1011A000800675FF0153197F8519CB1208497F11FD
:1011B00051DEE4FF710612062F9000AE7402F0902B
:1011C00000B2E0247F600904701651EB740A8007B6
:1011D0001207C851EB7458F09000B17403F051FC41
:1011E0009000B3E0F4600241829000B6E0FEA3E01C
:1011F000FF64104E70069000B3740EF0EF64204E42
:1012000070069000B3740FF0EF64404E70069000CB
:10121000B37410F0EF64804E70069000B37411F058
:10122000E4B5070AEEB401069000B37412F0E4B519
:10123000070AEEB402069000B37413F0E4B5070A8F
:10124000EEB404069000B37414F0E4B5070AEEB4EB
:1012500008069000B37415F0E4B5070AEEB4100662
:101260009000B37416F0E4B5070AEEB420069000BF
:10127000B37417F0E4B5070AEEB440069000B374F7
:1012800018F001AB900A0AEFF0A3EDF0A31202B040
:10129000900A0BE06047901218E06013900A0AE091
:1012A0002410FF120F98900A0C120290EF801790F2
:1012B0000A0AE06401900A0C7007120290748080A0
:1012C0000512029074FF1200BC900A0D1204879060
:1012D0000A0BE014F0900A0AE004F080B322EF4415
:1012E00020F5FE227D0151847B01227F1051DE908A
:1012F00000AE229000B9E024FE24FD229000B474D8
:1013000001F0A3E4F022900A14EFF0E4A3F09000BF
:10131000B9E0FFB40209740F716974B9F0800CEF81
:1013200064047044743D71697479F01207E4900AA2
:1013300014E060079000B8E0FF80027FAB12062740
:10134000120849900A14E09000B8F07016900A153F
:10135000E0D39400400D7FFF120627900A15E01499
:10136000F080EAE4FF1207BC22900A15F09000B862
:1013700022E0FEA3E0FF4E229000ADE01200BC9000
:1013800000B2E09000011200CE9000B3E0900002A5
:101390000200CEAB05E4FCFD020E6C9000ED1202E3
:1013A000B0E4FCFDC0079000ED1202909000F0E068
:1013B000FF120DD8EFF0D007020761F09000ABE00C
:1013C000FFF42212000A12071EEF600512000F80C0
:1013D000F5229000AFE0FF22E49000AFF0229012DF
:1013E00018E024FF22901218E060057F10020F9889
:1013F0007FFF22902004E0FEA3E0FF24089116FD69
:10140000EF2401FFE43E541F902004F0A3EFF0A36B
:1014100012044DAF0522F58274203EF583E0229040
:101420002006E0FEA3E0FF22902000E0045403F039
:101430007F0033333354F8FEEF2408F974203EFA6A
:101440007B01A30202B0900054741DF0A3740FF04E
:10145000120DDFE490004FF012051C90006BE0FECF
:10146000A3E0FF900054E06E7003A3E06F7F006084
:10147000027FFF22EFB40109D2AD75FF0143AE40F8
:1014800022C2AD75FF0153AEBF221206C89000DC28
:10149000E4F0A3EFF022E5C85402FF75C80222E58C
:1014A000C85404FF22E5C85401FF22900A18E0FE48
:1014B000A3E0FFC3E49FFF74089EFE22120253E4E0
:1014C000FB7A08F9F890005012023B1201658F0C6C
:0114D00022F9
:1017FA00060AFFFCFFFF02184E02736F19A37FB897
:10180A00822D1C1613111010000273935A2D576162
:10181A00766520362E313000FF026FFF1A341A39EE
:10182A00FF0253B9EF90183793901900730A2036C4
:10183A004CE57DFF22EFF57D223EA948E44A3D1B97
:10184A00B502553875819F75FF03759E02121920DE
:10185A000240330231A0902A07E47E019360F4A388
:10186A00FF543F30E509541FFEE493A360010ECFF5
:10187A0054E0B4E00EEFFAEEF9A3A3A3A3DAFDD97C
:10188A00FB80D654C025E0604B5026E493A3F8545D
:10189A0007240CC8C333C4540F4420C8834004F43B
:1018AA0056800146F6DFE480B001020408102040A9
:1018BA0080E493A3FAE493A3F8E493A3C8C582C887
:1018CA00CAC583CAF0A3C8C582C8CAC583CADFE924
:1018DA00DEE78085E493A3F8E493A34003F680014E
:1018EA00F208DFF40218631958195D196C19711995
:1018FA00761CB41CB9FFC07D7419C0E0C082C083D5
:10190A00757D0AE5FF54CF4490F5FF22C07D741916
:10191A00C0E0C082C083757D20E5FF54CF4490F5B6
:10192A00FF22C07D7419C0E0C082C083757D36E590
:10193A00FF54CF44A0F5FF22C07D7419C0E0C082D5
:10194A00C083757D4CE5FF54CF44B0F5FF229081EA
:10195A00AA21169081BE2116909035211690C64A6A
:10196A00211690C8EF211690C90721169083E2210B
:10197A001690CFF6211690C013211690D056211634
:10198A0090AE18211690A50E211690E0A12116906E
:10199A00E0BD211690E11A211690E2BF211690E2CD
:1019AA0081211690AFD7211690967F211690E7F7DE
:1019BA00211690EA92211690EA53211690EAAE2156
:1019CA001690EB34211690ECDC211690EC39211696
:1019DA0090E95C211690C746211690BF48211690BF
:1019EA00E91D211690E475211690E511211690E360
:1019FA00E5211690E892211690917F211690E9C16F
:101A0A00211690B165211690E9E9211690EEC121BF
:101A1A001690EF08211690EF3C211690EF902116B0
:101A2A0090F01F211690EFD7211690F046211690BC
:101A3A00AEE4211690F08421169081F1211690B619
:101A4A0076211690F186211690F1AE211690C73AAA
:101A5A00211690F1BC211690E6CB211690F1E321D4
:101A6A001690E5D4211690C5DC211690E5C72116FB
:101A7A0090F1F5211690F229211690E68B21169005
:101A8A00D0D0211690F24B211690E8E3211690E768
:101A9A00B4211690E7B3211690F1C2211690E67D83
:101AAA00211690E6F4211690E66E211690F2152181
:101ABA001690F2C8211690E7AD211690CDE42116B2
:101ACA0090CAF5211690ED0F211690DFCB211690C2
:101ADA00E334211690DEE5211690E623211690F4D0
:101AEA0020211690DF8D211690F44B211690F3AF2A
:101AFA00211690D039211690F4B0211690F0C92100
:101B0A001690F0B6211690B694211690D0DC2116C4
:101B1A0090F5E8211690D0EB211690DB162116904D
:101B2A00DCEA211690F835211690F8BE211690F8B5
:101B3A0070211690DAB1211690F925211690FBB47E
:101B4A00211690809721169080FB21169080002103
:101B5A001690815F211690B96E214290820F214220
:101B6A0090BFF2214290AB29214290BFF5214290C9
:101B7A0082942142908C5421429098C72142909895
:101B8A004221429080A721429081DB214290C2DE0D
:101B9A00214290C305214290C8D2214290CA5121C4
:101BAA00429098D221429080F3214290CEAE2142B7
:101BBA0090C1AF214290CFDC2142908532214290E0
:101BCA00D0CD214290D101214290A433214290D11B
:101BDA0033214290D16B214290D202214290D22EDF
:101BEA00214290D253214290D285214290D2D721CC
:061BFA004290D3EC2142F1
:101C0000908223214290D45A214290D71B214290A6
:101C10009862214290D856214290D9292142909829
:101C2000B9214290800021429080D6214290D93043
:101C3000214290D94E214290D967214290DB3F2129
:101C400042909FF4214290C31F214290DB642142C5
:101C500090DB69214290DC31214290DCB42142903A
:101C6000DD3B214290DB7A2142908224214290DBAD
:101C7000C421429089032142908297214290D50746
:101C80002142909A2D214290C35A214290DE3D215B
:101C90004290D366214290DE6D214290DF072142BF
:101CA00090D694214290D4BD214290A756214290D3
:101CB000DE05214290DFAC2142909B9F214290DFC4
:101CC000D9214290A4C92142908A60214290B0BBA0
:101CD00021429089A3214290E056214290E05E216A
:101CE0004290E089214290B09F214290B0B32142BE
:101CF00090E0B5214290E0D1214290AA3721429054
:101D000088FD214290E048214290C4B0214290AA2F
:101D10003D214290C4B6214290B10D214290C4BCF5
:101D2000214290BB41214290E18E214290AC0221A0
:101D300042909FAF214290E26D214290B113214227
:101D400090E315214290E389214290D8A32142904B
:101D500097F12142909B2A214290E94C214290A484
:101D60006B214290E04F214290EB482142909B70C2
:101D7000214290CEF6214290EBAD214290C4E42165
:101D80004290EC6C214290CCD8214290C7BD2142B8
:101D900090CA40214290EC7E214290AF3521429082
:101DA000CC0E214290B7FA214290B6D4214290B491
:101DB0007A214290B6CE214290B902214290B8C910
:101DC000214290B8C0214290B90F214290B884219D
:101DD0004290B53721429092AC212C9092B8212CA0
:101DE000909853212C909975212C908A31212C9018
:101DF0008BC9212C909655212C90A14B212C90A879
:101E00003A212C90A8B9212C90A8BE212C9088DED4
:101E1000212C9088E1212C9088E2212C90BA32214B
:101E20002C90BA4E212C90CA89212C9085F8212C17
:101E300090CB5D212C90C802212C90DB5D212C9051
:101E4000DBC4212C9096AA212C90DCA5212C90DFBC
:101E50006C212C90DFF1212C908A50212C90E0C62F
:101E6000212C90E0C8212C90E411212C90E48521B4
:101E70002C90E426212C90E509212C90E55A212C68
:101E800090E585212C90E5B1212C90C0C3212C90A8
:101E9000C0C5212C90E5D9212C90E830212C9088C8
:101EA000E5212C908955212C90E848212C90EA5866
:101EB000212C909371212C90954E212C90ECE021B7
:101EC0002C90C985212C90CC2F212C90ED5E212CBB
:101ED00000E709F608DFFA8046E709F208DFFA8032
:101EE0003E88828C83E709F0A3DFFA8032E309F6AB
:101EF00008DFFA8078E309F208DFFA807088828CC4
:101F000083E309F0A3DFFA806489828A83E0A3F681
:101F100008DFFA805889828A83E0A3F208DFFA801A
:101F20004C80D280FA80C680D4806980F280338071
:101F30001080A680EA809A80A880DA80E280CA8039
:101F40003389828A83ECFAE493A3C8C582C8CCC5DE
:101F500083CCF0A3C8C582C8CCC583CCDFE9DEE75B
:101F6000800D89828A83E493A3F608DFF9ECFAA94D
:101F7000F0EDFB2289828A83ECFAE0A3C8C582C80F
:101F8000CCC583CCF0A3C8C582C8CCC583CCDFEA5E
:101F9000DEE880DB89828A83E493A3F208DFF9809C
:101FA000CC88F0EF60010E4E60C388F0ED2402B4DF
:101FB000040050B9F582EB2402B4040050AF23238F
:101FC000458223901F2173BB010689828A83E02208
:101FD0005002E722BBFE02E32289828A83E4932235
:101FE000BB010B89828A83F8E0C828F0E8225003FD
:101FF00027C722BBFE07F8E3C828F3E8228A8389B3
:1020000082E49322BB010CE58229F582E5833AF54F
:1020100083E0225006E92582F8E622BBFE06E92588
:1020200082F8E222E58229F582E5833AF583E4939A
:1020300022BB010989828A83F8E028F02250032715
:10204000F722BBFE05F8E328F3228A838982F8E4AD
:10205000932822BB010FF8E58229F582E5833AF542
:1020600083E028F0225009C58229F8E58226F6226D
:10207000BBFE09C58229F8E22582F222F8EA25830F
:10208000F583E9932822BB010689828A83F02250D6
:1020900002F722BBFE01F322F8BB010DE58229F510
:1020A00082E5833AF583E8F0225006E92582C8F6F6
:1020B00022BBFE05E92582C8F222EF8DF0A4A8F02C
:1020C000CF8CF0A428CE8DF0A42EFE22BC000BBE37
:1020D0000029EF8DF084FFADF022E4CCF875F00814
:1020E000EF2FFFEE33FEEC33FCEE9DEC984005FC49
:1020F000EE9DFE0FD5F0E9E4CEFD22EDF8F5F0EE11
:102100008420D21CFEADF075F008EF2FFFED33FDFB
:102110004007985006D5F0F222C398FD0FD5F0EA9B
:1021200022C2D5EC30E709B2D5E4C39DFDE49CFCA6
:10213000EE30E715B2D5E4C39FFFE49EFE1220CC3B
:10214000C3E49DFDE49CFC80031220CC30D507C382
:10215000E49FFFE49EFE22C5F0F8A3E028F0C5F05E
:10216000F8E582158270021583E038F022A3F8E0CA
:10217000C5F025F0F0E582158270021583E0C838BD
:10218000F0E822BB010A89828A83E0F5F0A3E0220D
:10219000500687F009E71922BBFE07E3F5F009E3D3
:1021A000192289828A83E493F5F074019322BB019A
:1021B00010E58229F582E5833AF583E0F5F0A3E0A6
:1021C000225009E92582F886F008E622BBFE0AE9DA
:1021D0002582F8E2F5F008E222E5832AF583E99307
:1021E000F5F0A3E99322BB010DC58229C582C58301
:1021F0003AC5830221575011C58229F808E5F02617
:10220000F618F5F0E58236F622BBFE11C58229F8F4
:1022100008E225F0F5F0F218E23582F222F8E582C4
:1022200029F582E5832AF58374019325F0F5F0E41E
:10223000933822BB010A89828A83F0E5F0A3F02259
:102240005006F709A7F01922BBFE06F3E5F009F3E3
:102250001922F8BB0111E58229F582E5833AF5835D
:10226000E8F0E5F0A3F0225009E92582C8F608A6B7
:10227000F022BBFE09E92582C8F2E5F008F222EF60
:102280002BFFEE3AFEED39FDEC38FC22C3EF9BFF4D
:10229000EE9AFEED99FDEC98FC22E88FF0A4CC8B31
:1022A000F0A42CFCE98EF0A42CFC8AF0EDA42CFC0C
:1022B000EA8EF0A4CDA8F08BF0A42DCC3825F0FD4B
:1022C000E98FF0A42CCD35F0FCEB8EF0A4FEA9F044
:1022D000EB8FF0A4CFC5F02ECD39FEE43CFCEAA490
:1022E0002DCE35F0FDE43CFC2275F008758200EF40
:1022F0002FFFEE33FECD33CDCC33CCC58233C58238
:102300009BED9AEC99E58298400CF582EE9BFEEDF0
:102310009AFDEC99FC0FD5F0D6E4CEFBE4CDFAE4BF
:10232000CCF9A88222B800C1B90059BA002DEC8BB3
:10233000F084CFCECDFCE5F0CBF97818EF2FFFEE8F
:1023400033FEED33FDEC33FCEB33FB10D703994048
:1023500004EB99FB0FD8E5E4F9FA227818EF2FFF88
:10236000EE33FEED33FDEC33FCC933C910D7059BCA
:10237000E99A4007EC9BFCE99AF90FD8E0E4C9FA26
:10238000E4CCFB2275F010EF2FFFEE33FEED33FDB2
:10239000CC33CCC833C810D7079BEC9AE899400AD5
:1023A000ED9BFDEC9AFCE899F80FD5F0DAE4CDFB53
:1023B000E4CCFAE4C8F922EF5BFFEE5AFEED59FDDA
:1023C000EC58FC22C3E49FFFE49EFEE49DFDE49CE8
:1023D000FC22EB9FF5F0EA9E42F0E99D42F0EC64AE
:1023E00080C864809845F022EB9FF5F0EA9E42F0A9
:1023F000E99D42F0E89C45F022E8600FECC313FC35
:10240000ED13FDEE13FEEF13FFD8F122E8600FEF9E
:10241000C333FFEE33FEED33FDEC33FCD8F122BBCA
:10242000010789828A830224AD5005E9F802295701
:10243000BBFE05E9F802296389828A830224B9BBBD
:10244000010DE58229F582E5833AF5830224AD503A
:1024500007E92582F8022957BBFE07E92582F80221
:102460002963E58229F582E5833AF5830224B9BB25
:10247000010789828A830225055005E9F802299916
:10248000BBFE05E9F80229A522BB010DE58229F56D
:1024900082E5833AF5830225055007E92582F80293
:1024A0002999BBFE07E92582F80229A522E0FCA3B1
:1024B000E0FDA3E0FEA3E0FF22E493FC740193FDA2
:1024C000740293FE740393FF22E0F8A3E0F9A3E003
:1024D000FAA3E0FB22BB010DE58229F582E5833AF0
:1024E000F5830224C95007E92582F802296FBBFE53
:1024F00007E92582F802297CE58229F582E5833AFD
:10250000F583022989ECF0A3EDF0A3EEF0A3EFF040
:1025100022A8828583F0D083D08212252812252814
:10252000122528122528E473E493A3C583C5F0C5BA
:1025300083C8C582C8F0A3C583C5F0C583C8C5825A
:10254000C822BB010789828A830225115005E9F858
:102550000229B1BBFE05E9F80229CA22BB010DE53B
:102560008229F582E5833AF5830225115007E92592
:1025700082F80229B1BBFE07E92582F80229CA22A6
:10258000F5F0C582A4C582C5F0C583A42583F58373
:1025900022A42582F582E5F03583F58322E0FBA3B2
:1025A000E0FAA3E0F922F8E0FBA3A3E0F925F0F0BC
:1025B000E582158270021583E0FA38F022EBF0A371
:1025C000EAF0A3E9F022E493FB740193FA74029316
:1025D000F922BB010789828A8302259D5005E9F80B
:1025E0000229E3BBFE05E9F80229F589828A830204
:1025F00025C6BB011A89828A83D0F0D0E0F8D0E0EA
:10260000F9D0E0FAD0E0FBE8C0E0C0F00225BD5010
:1026100016E9F8D083D082D0E0F9D0E0FAD0E0FB20
:10262000C082C0830229ECBBFE16E9F8D083D082B9
:10263000D0E0F9D0E0FAD0E0FBC082C0830229FEEE
:1026400022BB010DE58229F582E5833AF583022557
:102650009D5007E92582F80229E3BBFE07E92582A0
:10266000F80229F5E58229F582E5833AF58302250A
:10267000C6BB0120E58229F582E5833AF583D0F0D7
:10268000D0E0F8D0E0F9D0E0FAD0E0FBE8C0E0C05C
:10269000F00225BD5018E92582F8D083D082D0E021
:1026A000F9D0E0FAD0E0FBC082C0830229ECBBFE87
:1026B00018E92582F8D083D082D0E0F9D0E0FAD0B2
:1026C000E0FBC082C0830229FE22D083D082F8E4DE
:1026D000937012740193700DA3A393F8740193F592
:1026E000828883E4737402936860EFA3A3A380DFFE
:1026F000D083D082E4937012740193700DA3A393DE
:10270000F8740193F5828883E4737402936C7012F9
:102710007403936D700C7404936E70067405936F5C
:1027200060DDA3A3A3A3A3A380CA8A838982E473E1
:10273000E5792582F582E5783583F583B5780485DA
:1027400082792210AF06858279F57822858279F523
:1027500078D2AF22EC8EF0A4CCC5F0CCCDF8EFA4AB
:10276000CEC5F02DFDE43CFCE8A42EC8C5F03DFD2F
:10277000E43CFCEFA4FFE5F028FEE43DFDE43CFC76
:1027800022E3F5F009E208B5F06BDFF58067E3F5C9
:10279000F009E608B5F05EDFF5805A87F009E60833
:1027A000B5F052DFF6804E87F009E208B5F046DF5B
:1027B000F6804288828C8387F009E0A3B5F036DF8B
:1027C000F6803288828C8387F009E493A3B5F025E4
:1027D000DFF5802188828C83E3F5F009E0A3B5F072
:1027E00014DFF5801088828C83E3F5F009E493A36D
:1027F000B5F002DFF40228B0808780E9809080D4B1
:10280000803E8015806E807E809D80B7808D80A305
:1028100080518074803C0228BC89828A83ECFAE46F
:1028200093F5F0A3C8C582C8CCC583CCE493A3C8F4
:10283000C582C8CCC583CCB5F076DFE3DEE180701D
:1028400089828A83E493F5F0A3E208B5F062DFF4AD
:10285000805E89828A83E0F5F0A3E608B5F051DF57
:10286000F5804D89828A83E0F5F0A3E208B5F04057
:10287000DFF5803C89828A83E493F5F0A3E608B50E
:10288000F02EDFF4802A8002805789828A83ECFA56
:10289000E493F5F0A3C8C582C8CCC583CCE0A3C837
:1028A000C582C8CCC583CCB5F006DFE4DEE280008B
:1028B0007FFFB5F0020F2240027F012289828A83C6
:1028C000ECFAE0F5F0A3C8C582C8CCC583CCE0A380
:1028D000C8C582C8CCC583CCB5F0D5DFE5DEE380C2
:1028E000CF89828A83ECFAE0F5F0A3C8C582C8CC10
:1028F000C583CCE493A3C8C582C8CCC583CCB5F04E
:10290000AFDFE4DEE280A988F0EF60010E4E60AB3D
:10291000ED2402B404005098F582EB2402B40400C4
:10292000508E23234582239027F873EF4E6012EFD9
:1029300060010EEDBB010B89828A83F0A3DFFCDE10
:10294000FA2289F05007F709DFFCA9F022BBFEFC50
:10295000F309DFFCA9F022E6FC08E6FD08E6FE0824
:10296000E6FF22E2FC08E2FD08E2FE08E2FF22E6C2
:10297000FB08E6F908E6FA08E6CBF822E2FB08E2F3
:10298000F908E2FA08E2CBF822E493F8740193F92B
:10299000740293FA740393FB22ECF608EDF608EE4A
:1029A000F608EFF622ECF208EDF208EEF208EFF28C
:1029B00022D083D082E493F608740193F60874025F
:1029C00093F608740393F6740473D083D082E4936F
:1029D000F208740193F208740293F208740393F2FC
:1029E000740473E6FB08E6FA08E6F922EBF608EA57
:1029F000F608E9F622E2FB08E2FA08E2F922EBF235
:102A000008EAF208E9F2224103C1004103C000E0F4
:102A10000202000014F9E002020002120FE00102BB
:102A2000000954E00102000AA5E00102120B00E0D7
:102A30000502120C120F02060A4106F106011400EB
:102A40004106F0014106EE01C11401190001170011
:102A5000C13341422B004142200041422900414202
:102A60002A00414227FF4140CB00C117C102412F3C
:102A70000000412F8EFF412F8500C100412F8F00A4
:102A8000412F9000412F8601C105412EFF00414892
:102A9000E600C13F433D9B000000413D9A00413D9F
:102AA0009E004303B70000004303B40103B7423262
:102AB0001A9807434616000000434613014616E0E5
:102AC0000202121101B0E00102121300E001021231
:102AD0009400E0050213BC01B006060A4147FA0261
:102AE0004147F90D4147FB08602038CA42DB01002D
:102AF00000000000000000000000000000000000D6
:102B0000000000000000000000000000602038EA23
:102B100009000000000000000000000000000000AC
:102B200000000000000000000000000000000000A5
:102B3000503C0D00000000000000000000000000FC
:102B4000000000C10E015000C10BC10C41476F05D0
:102B5000C118C11AC12542238C984041238E0043DD
:102B6000393D00000042393B00006020234B00004B
:102B70000000000000000000000000000000000055
:102B800000000000000000000000000000004320E2
:102B9000009F010050200300000000000000000022
:102BA000000000000000016127260E00020105015F
:102BB00001020E06010100040704010203000004E3
:102BC00000060805040208031404000400140501AB
:102BD000080908050208031405000400140500068E
:102BE00000140802020A0A08020301000800040097
:102BF00014080006001408010800140A020D000A57
:102C00000A020C000A0A02080B0A0A01050C0E0A45
:102C1000000400140A000600140A010800140E0043
:102C20000A0D110E020804140E000400140E000612
:102C300000140E010800140E010500140E020F0E00
:102C40001211000C0C0E11020804141100040014DF
:102C500011000600141101080014110105001411DF
:102C6000000A00141102050E1212020804141202C6
:102C70000C0F0012000400141200060014120108C8
:102C80000014120105001412000A001412020500BB
:102C90001412000C001413020C01000002090000C1
:102CA0000002100000140209010014020B001314AA
:102CB0000007100014020A01001402040014140298
:102CC0000C001414020D010014020E001414021062
:102CD00001006024281E0200FFFF0602FF0006021A
:102CE000FF000301FF002300FFFF030000001300AB
:102CF00000000200010103000000462775010002E8
:102D00000104024227FB1D5941288200412A30015B
:102D10004128880043288501284343287901284316
:102D2000410B4F00602009FBEDFFFFFFFFFFFFFF9E
:102D3000FFFFFFFFFFFFFFFFFFFFFFFFFFFFFFFFA3
:102D4000FFFFFFFFFFFFFF7F4F2BACFF333514FF6B
:102D5000334905FF334E0D031006602A2B74100112
:102D6000FF335B09FF336404FF3368070701FF3358
:102D70005B09FF336404FF3368070701FF336F0A01
:102D8000FF337904FF337D06432B9F030000492A5C
:102D9000454C6966656C696E6500462B6E5A01206C
:102DA000032503462BA620032503600D442BA220F8
:102DB0000371054C2BBC15001500150015000C0007
:102DC0000C05608A2ADB71087105616C61726D20E7
:102DD000455020310000000000000000000000000D
:102DE00000000000000000000000000000000000E3
:102DF0000000000071087105616C61726D20455022
:102E00002032000000000000000000000000000070
:102E100000000000000000000000000000000000B2
:102E2000000071057105616C61726D2045502033A1
:102E30000000000000000000000000000000000092
:102E40000000000000000000000000000000000082
:102E5000602E2A4F71087105616C61726D204550BA
:102E60002031000000000000000000000000000011
:102E70000000000000000000000000000000000052
:102E80000000602E2A7E71087105616C61726D20F0
:102E9000455020320000000000000000000000004B
:102EA0000000000000000000000000000000000022
:102EB00000000000602E2AAC71057105616C617222
:102EC0006D2045502033000000000000000000008D
:102ED00000000000000000000000000000000000F2
:102EE000000000000000412A4300412ADA00412A84
:102EF0004200412A4E00492B6502010203020204EE
:102F00000302C11D412BC900412BC850412BCD00EC
:102F1000412A4401C11CC19BE0020213C10124E00B
:102F2000010214DDFFE0050214E00124040405E0C1
:102F3000020214E50013E00C0214E7000003020093
:102F40000300020405060AE0050214F30013FF045F
:102F500005E0020214F800004340E2000000424095
:102F6000E900004440E5071022324640DC40464A72
:102F70004E5256424860000041485F00C148432D10
:102F800011000000412BCE00412D4301423D4A007B
:102F900000413D4100454351000000000045434CC5
:102FA00000000000004142CF004142CB004142C539
:102FB000004142CE004142C6004143EA004143E99C
:102FC000004447B500000000413C88005B3C6C00B9
:102FD00000000000000000000000000000000000F1
:102FE00000000000000000000000413C6BFFC152E7
:102FF000413AD500503A30000000000000000000C7
:1030000000000000000000453A4000010204804733
:103010003A5000000000000000433A4D000000411B
:10302000428D00414293004142920042428E000094
:103030004142970041429600424294000042429031
:10304000000041428C00413BA000C157C129C12A68
:10305000412FEF96412FEB0F4142EB014142EF0030
:103060004142EC004142F0004142EE004142ED009D
:103070004242E60000C19E4142E8004142EA00C1EE
:103080009FC1A0C12B413C8C00413C8900C15B41E8
:10309000409E004C4298100000000000110000000B
:1030A0000000C15D410A3720C15F0072657365741D
:1030B0000063736100476F7420697421006C6D7345
:1030C000006C6D6500776472005A57005A57206192
:1030D00070703A0D0A00204669726D776172652042
:1030E00049443A20000D0A2056657273696F6E3AA2
:1030F00020005479706520276120637361203C3182
:1031000030206469676974206B65793E2720616EA1
:103110006420707265737320456E7465722E003E74
:1031200020001E261E2BC2D5E830E70FB2D5E4C31F
:103130009BFBE49AFAE499F9E498F8EC30E717B2CB
:10314000D512315C122325E4C39BFBE49AFAE4997F
:10315000F9E498F8800312232530D50DE4C39FFFCE
:10316000E49EFEE49DFDE49CFC22789FE4F6D8FDFD
:103170009000007F007E10E4F0A3DFFCDEFA9049AF
:103180001BA3E583C394204011FEAF829020000E64
:103190000FE48002F0A3DFFCDEFA121920021860AF
:1031A00022325A43425F746573745F696E7465724C
:1031B000666163655F706F6C6C000D0A4368616ED9
:1031C0006E656C73206172653A000D0A09203E003D
:1031D0001EAD41707045765363686564756C6572A9
:1031E000001E441E490000010000000017060000F8
:1031F000000018060000000618060000000118066E
:103200000000000818060000000101010000000194
:103210001500000000010204000000010B04000082
:1032200000060B04000000080B04000000010D0064
:10323000000000010E040000000110000000000169
:103240000F00000000040501000000040606000055
:10325000000407080000000205000000000305014B
:103260000000000108050000000008000000000147
:103270000C0100000001120500000008030200001C
:1032800000012200000000081608000000080800E5
:1032900000000001160100000006160100000005F4
:1032A0000903000000050A000000000503020000F9
:1032B00000050400000000061B06000000011B06BC
:1032C000000000061C07000000061D0700000007A4
:1032D0000508000000081E0700000008200000008C
:1032E00000081F000000000821000000000811066F
:1032F0000000000111060000000822000000000686
:103300001906000000061E00000000062000000054
:1033100000061A080000000614010000000714014E
:10332000000000081B060000000724000000000841
:1033300014010000005E2570858E605955718672FB
:103340005A73989F6C7027327A5E6C55989F71867D
:1033500025858E59725A607027327A5E25208559EC
:103360008E6070275E6C989F2585598E60702771DE
:103370005E716C2085598E60705E6C989F71855966
:103380008E607000011DF91DFE00011E031E081E47
:103390001C1E215555555555555555555555555581
:1033A00055553333333333333333333333333333A9
:1033B0003333888888888888888888888888888837
:1033C000883F241E16110E0B09070504030201F0A5
:1033D000C8A7917767604638353230242220140020
:1033E00001010202030304040505060607070000A5
:1033F00000000000000000000000000000000000CD
:103400000000000000000000000000000087888825
:103410008888888888888888888888888826262652
:1034200026262626262626262626262626000DFAA7
:1034300020000DDC7000000000020C00013F3F3F47
:10344000040404404040000000004C6966656C695B
:103450006E6500496E76616C69642067726F757085
:103460000019BC19C119C619CB19D519E919EE19DA
:10347000F31D721D7C1D811D861D8B1D901D951DCC
:103480009F1C3C1C4B1C501C551C5A1E671E6C1E5E
:10349000711E761E7B1A7A1A7F1AB61C8C1C961C1B
:1034A000AF1E4E1E531E581EB21EB71EBC1EC11E9E
:1034B000C61ECB1E5D1E621E801E851E8A1E8F1EAE
:1034C000941E99FF02011BC91D685A0120032503A0
:1034D0007006725DE4FD7C0CAB050DEB9018169345
:1034E0008F828E83F00FBF00010EDCEC7F03228FF2
:1034F000828E83E4F0A37406B111740AB111A3E4BF
:10350000F0EF2404F582E43EF583E4F0A3746DF05B
:1035100022F08F828E83A3A322AD07901217E0546E
:10352000FCF0E0FFED54307E0060027E02EF4E9032
:103530001217F0E0FFED7E0030E0027E01EF4E90CA
:103540001217F0229003C97402F09003C0E0FF123A
:103550001DE0B1199003C97405F0229003C7E0FF84
:10356000121DEA9003CCEFF0229003CCE07F0070B4
:10357000027F0122E49003C7F0229003C77401F098
:10358000229003C77402F022B18F70027F01229053
:1035900003C7E07F0022B18FB401027F0122B18F07
:1035A000B402027F0122125117121A3E121B0B1293
:1035B0001994121C37D1D57002C1847FFF121AC52D
:1035C000900AB21225BD7E007F09D1DFBF540D7E67
:1035D000007F0AD1DFBFA5047F0180027F00900336
:1035E000C0EFF0D1CFE94A4B701D7F04FED1DFEF71
:1035F0002401FFE433FEC37401125B267F005002F6
:103600007F019003C0EFF09003C0E064017047D1E8
:10361000CFAE021274ED127178900AB8E0FEA3E00A
:10362000FFD1CF1276DFE92407F9E43AFA900AB520
:103630001225BDE92408F9E43AFE1274ED127178FE
:10364000900AB8E064047004A3E064056008121AEC
:10365000CA9003C0EFF09003C0E070207E007F04AA
:10366000C006C374F99404FE7414124AE0D0061222
:103670003E1F74FFFDFCE4FFFE121ACF9003C0E072
:10368000FF121AF2D1D57F0060027F011219FD12DC
:103690001A071219621275057A127923121B6F121A
:1036A00048D1FE4FFDA3E0FC4DFDA3E0FB4D600BB8
:1036B000EE5FFFEC5FFFEB5FF4700312467D90124C
:1036C00021E0FF901225E06F9003BBF0021C0590F3
:1036D0000AB202259D9003C2E0640122FEAF01E41C
:1036E000FCFD9046AE12250512386C123AF6EF60DA
:1036F00005123D0B80F5F1F27F03123E53600890F6
:1037000046AE123F76F12D9046AE123F6CF12D90F1
:1037100046AEF1E6F1C79046B2EFF0F1D59046B271
:10372000E0FF227F01F12D7F02F12D7F03E5C8200C
:10373000E2FB8FEB227F01F1DA9048DF7401F09019
:1037400048DFE06035F1ECF1C79048DFEFF0123A66
:1037500045F1B69040BFEFF0123A459048DFE05493
:1037600001F09040BEE0FFF460D5A3E0F460D0EF3C
:1037700030E7CCE49048DFF080C5F1F67F9FF12D73
:10378000F1C79040C0F1C59040C5F1C59040C6EF6B
:10379000F0F1D59040BEE0F4601BA3E0F460169019
:1037A00040C5E0FD541F240FA3F0EDC4135407449B
:1037B000809040C5F022F1F67FD7F12D7FFFF12DEB
:1037C000F1CB9040BEEFF07FFFF12DE5C820E2FB8A
:1037D000AFEB22F12D123A45E4FFEFB4010443FEB2
:1037E000202253FEDF221224ADE4E12DF1F67F0505
:1037F000E12D7F01F1DA9040C3E01226CA381904A6
:10380000382114382615382B17383B3038403438D7
:103810004536384A3700003833536CEF856C80806A
:103820002F536DEF8008536DDF8003536D7F856DDF
:1038300090801D536EDF856EA08015536FFE800D46
:10384000536FEF8008536FBF8003536F7F856FB056
:103850007F0CDFFE2275FF0275E40475E40175E458
:10386000022275FF0275E404E4F5E42275FF02E527
:10387000E430E10675E40675E403227E127F0BE472
:10388000FD316A116C51F6EF6004B10B80F72290A4
:1038900048DCEFF0C233901221E060207E127F0BF3
:1038A0001236DFBF01087FFF121DF47F0022904215
:1038B00026E06008901221E0FF121DF4117B904871
:1038C000DCE070022146E490422AF0904226E0605B
:1038D0000231C99048DCE0FFB4010790422A74012C
:1038E0008009EFB4031090422A7402F031C1904273
:1038F000287404F08048EF64047035901221E07061
:103900001ED233F1A4EF700F31C1126AA77E127F6D
:103910000B7D01316A11839042267404F080399046
:1039200003C2E0B40505E4F0121BD831C17F0022C8
:103930009048DCE064027020904228F031C190424F
:10394000267402F08012E490422AF0F1A4EF6002A3
:10395000117B9042267401F031CC904226E07F002A
:1039600060027F0122FEAF01E4FDAB05E4FCFD90A7
:1039700046B7EBF09046B31225059046B31224AD3E
:103980001236E29046B7E06F6035116C51F6EF6089
:1039900004B10B80F7D13A60089046B3F176123744
:1039A0002D9046B3F16C12372D9046B31237E69046
:1039B00046B7E0FF1237D39040C27401F0D322C360
:1039C00022901217E05403F0227401F0904226E096
:1039D000640270267C3E7DA97F011219F8E4FBFA8F
:1039E000FD7FFF1219E47E4A7F3DC006C007F1B09B
:1039F000904448F0D007D006E163904226E064038B
:103A00007018FFFE1249F390422AE07C3E7DA9B473
:103A100002047F0380117F02800D904226E0B404EF
:103A20000C7C3E7DA97F041219F8024A3D90422683
:103A3000E0B40110E4FDFCFF1219F8F18031C1E49B
:103A4000904226F022127251EF70FA9040C5E0F4D5
:103A5000600F9048DE7406F09048DEE014F0E070ED
:103A6000F79040C3E01226CA3A84043A8C143A9183
:103A7000153A96173AA6303AAB343AB0363AB537DB
:103A800000003A9E436C10856C80802F436D10803F
:103A900008436D208003436D80856D90801D436ECB
:103AA00020856EA08015436F01800D436F10800844
:103AB000436F408003436F80856FB09048DE740C85
:103AC000F09048DEE014F0E070F722116C51F6EF50
:103AD0006004B10B80F77F011237DAD23D1237F65E
:103AE0007F0612372D51451237F67F0112372951C3
:103AF00045E4FF0237DA7F011237DA303D1612371C
:103B0000EC1237C79048E0EFF051459048E0E020D4
:103B1000E002C23D303D1D1237B69040BFEFF0903D
:103B200040BEE0FFF4600BA3E0F46006EF30E70274
:103B3000C23D5145E4FF1237DAA23DE433FF229043
:103B400043741225059043781225BD116C51F6EF90
:103B50006004B10B80F7D13A6008904374F176129B
:103B6000372D904374F16C12372D9043741224ADAD
:103B7000E4802290437BF19A602090437812259D47
:103B8000E94A600F121FC7FF12372D904379E4B145
:103B9000E480E0E4FF12372D80D91237D59040C27F
:103BA0007401F02290410912250590410D1225BDA6
:103BB0009041091224AD9040C8E024FFFD9040C719
:103BC000E034FF5EFEED5FFF9041121276B6606159
:103BD000B1EAC312768E904112F0A3EFF09041103B
:103BE000F1939FEC9E5006A3ECF0A3EDF091D1F180
:103BF000D5602ED103B1F3904109F18DC004C00509
:103C0000C006C00791D1E94A6005B1D7FF80027FA5
:103C1000007E0091D1F1BFD007D006D005D004714D
:103C20003F91AAE94A6004B1EA80727E007F008079
:103C30006C904110125060606F9040C7F193EF9DFF
:103C4000EE9C400A904112ECF0A3EDF0800D904103
:103C500010E0FFA3E0A3CFF0A3EFF091D1F1D56086
:103C60002ED103B1F3904109F18DC004C005C00607
:103C7000C00791D1E94A6005B1D7FF80027F007E7D
:103C80000091D1F1BFD007D006D005D004713F918B
:103C9000AAE94A6004B1EA80047E007F0090410EE8
:103CA000EE8FF01221578089D322904112E0FEA3BB
:103CB000E0FFC3904111E09FF0904110E09EF09032
:103CC00041091224C9E4FCFD12227F90410912250A
:103CD0000590410D02259DEFF4045FFFE4FEEF70B7
:103CE000037FFF22EFD3940F4009EFC4540FFFEE80
:103CF0004404FEEFD39403400AEF1313543FFFEE46
:103D00004402FEEF30E1010EAF0622E51530E20F6E
:103D1000E51520E50AE51530E0057F011245F3229F
:103D200090437D1225059043811225BD116C51F6FB
:103D3000EF6004B10B80F71237F27F03D1536008B4
:103D400090437DF17612372D90437DF16C12372D23
:103D500090437D1237E6904384F19A60111237C781
:103D60009043811257CA904382E4B1E480E8514500
:103D7000E4FF0237DAAB07AA06EB241FFFE43AFEA2
:103D8000EF7805CEC313CE13D8F9F9EB541F904842
:103D9000E1F0AF05B1DCFCAF0591DCAE01EE14C380
:103DA0009FC43354E0F9AF04C3EB9FFFEA9400FED5
:103DB000E9FDC3EF9DFFEE9400FEED600FE0FD60B6
:103DC00007C374209DFD80067D0080027D007C007D
:103DD000EF2DFFEC3EFE22904116E0FF91D7EFC49D
:103DE0003354E02275F001022157904112E0FEA306
:103DF000E0FF22E0FF91D7EF75F020A4FFAEF0E4E2
:103E0000FCFD22904112E0FEA3E0FF904116E0FD90
:103E1000B175904114EEF0A3EFF0A3227402F0907C
:103E200045501225BDE4FCFDC00790455012259D6C
:103E30009045531276BDD00761A47F011237DAD2C4
:103E40003D1237F67F0612372D51451237F6904056
:103E5000C1E0FF12372D9040C4E0640222900B5065
:103E6000EFF0E575C394204004B10B80F5E571C314
:103E700094204003E4F571C2AC127143EF700EE57B
:103E800075700A900B50E0FF12709A8017900B50DB
:103E9000E0FFAE71057174CE2EF582E43406F58331
:103EA000EFF00575D2AC7F012290489AEFF0A3EDB8
:103EB000F0F18090489AE0B40112A3E0904227F01C
:103EC00031C19042267405F07FFE806290489AE0EE
:103ED0006402702690422AE064027058904221F0F9
:103EE0009042267403F07E4A7F3DC006C007F1B0C1
:103EF000904448F0D007D006806990489AE070342A
:103F0000121A5CEF64016029303314121E12EF6044
:103F10000C121A5CEF600690489B74FFF0C23311DC
:103F20007B904226E0600231C990489BE0FF021D71
:103F3000F4121A66229042F0E0FFAB07E4FF1BEB9D
:103F4000C3940E501D1247F312251100000000EB20
:103F500012445012251100000000EB124B58E4F0FF
:103F60007F0122124AF090422BEFF0221224AD780A
:103F7000081223F9E4221224AD78101223F9E42266
:103F800090422BE0FFF13AE490422BF0221224C938
:103F900002227FE0FCA3E0FDD32274FFF5F01221A2
:103FA0006D45F022901217E07F0030E2027F01227F
:103FB000E47FD07E07FDFC904444122505E422E90D
:103FC0002FF9EE3AFA904114E0FFA3E090437BCF43
:103FD000F0A3EFF022904112E0FFA3E0904233CF34
:103FE000F0A3EFF09041091224AD125067904116F2
:103FF000EFF022E13A1254999003CAEEF0A3EFF0E9
:104000002220022C901217E030E10B1257EF5006DD
:104010007E007F0180047E007F00EF4E7012121C34
:104020006EEF700C121CA5EF7006123FF57F012297
:104030007F002275FF0275E404E4F5E475FF029049
:104040001215E0C330E001D34017E5E630E01290EE
:104050001217E0540C600A121BF1901217E054F78B
:10406000F0C21375FF02901215E030E036E5E65419
:10407000036401702E121A20F19F401E90123FE03F
:10408000600AE014F0700512316A915E901215E03A
:1040900020E0022131124890213112316AD213916D
:1040A0005E213112316A126B659003C2EFF09012FB
:1040B00000E0B47A14901214E0B49C0D9003C2E0B6
:1040C000FF64056004EFB40330E49003C8F090038C
:1040D000C8E0FFC394805013E42FF582E43412F556
:1040E00083E4F09003C8E004F080E3901200747A57
:1040F000F0901214749CF0D20F121C194003121C81
:10410000147B017A1279107D017F01121C0F7B0153
:104110007A1279117D017F21121C0F7B017A1279AD
:10412000127D017F22121C0F7A1279297F0212530D
:1041300069901229E0B401057F01126FD8121A2587
:10414000126B65121A1B9003C2EFF0121999121A22
:10415000169003C2E0FFB40602800C3013047F0205
:1041600080059003C2E0FF121DDBEF24FFB3923FF6
:1041700075FF0253E6BF1236D56002915E12539668
:10418000121A2F1235A6300F0B7B017A12792B7D74
:1041900010126937121A6B901215E0C330E001D388
:1041A000400F203F0C1235447B017A2F799712196A
:1041B000DA90122AE030E00280033013047F01B16C
:1041C000F3D2AF203F02414C121C327185121DE523
:1041D000121C0A40F39003C1E0603F121A4DEF70C9
:1041E000051254D14034E51470FCE51520E502D1E8
:1041F0000E121B6AEF70FA91765004918850047F7A
:104200000191FF9003C1E0B40204E4FF8009900330
:10421000C1E0B403057F01124895121A43E5153039
:10422000E1A61268A64002E4F0E51520E50A7167F0
:10423000AF82AE837D01B16C1275BFC0E071759025
:1042400003C4E0FDD0E0FF12198F21C81250031201
:1042500048B95002D17D123596EF70069003C1E047
:104260006051902F00E0704B121A4DEF7005125400
:10427000D14040E51470FCE51520E502D10E121C7A
:10428000A0121B6AEF70FA91765004918850047F57
:104290000191FF9003C1E07012123596EF600C128D
:1042A0003581901217E04408F080089003C1E0FFC8
:1042B000121BEC121C327185121BFB12355B12357E
:1042C00069EF702312359EEF6005121BF1803612E4
:1042D0003596EF7030126ACCEF702A1101EF64014D
:1042E000702312357A801E901217E020E2171235E3
:1042F0009EEF600C9176500491885004E4FF91FF8A
:10430000E49003C7F0201005121A4380221254993A
:104310009003BAE0FEEFC39E4005EF9EFF80089039
:1043200003BAE0F4042FFF7406D39F5002C210E5D5
:104330001530E1281268A64002E4F0E51520E50AF0
:104340007167AF82AE837D01B16C1275BFC0E07141
:10435000759003C4E0FDD0E0FF12198F121BBA1252
:104360001A5712504F414C9003C3E0FD75F0AA90CC
:1043700003CD122591ED75F002A424BCF974033528
:10438000F0FA7B0122D3900001E09400900000E05D
:1043900094005002814EC2ADE0FFA3E0904898CF58
:1043A000F0A3EFF0E4900000F0A3F0D2ADF57BE5D0
:1043B0007B124B58E070028138904898F1EBFDE594
:1043C0007B91501224C9D31223E850499166E0FF33
:1043D0006008F460059166E014F09166E06010E515
:1043E0007BF1F41224ADE57B91501225058012E596
:1043F0007B124B58E4F0E57B915012251100000030
:1044000000126D714E6009126D71AA06F912272A09
:10441000123D0B8023E57B9150C083C0821224ADF6
:10442000C006C007904898126678D007D0061222BE
:104430008CD082D083122505057BE57BC3940E507A
:104440000261AF904898E0FEA3E0FF121B0622EF46
:1044500075F00CA42454F582E43431F583229012D3
:1044600015E054FEF022E57B75F00CA4245EF58285
:10447000E43431F58322900001740193B40007E421
:1044800093B41802C322D3227F017E009017FCE46C
:10449000935EFE7401935F4E24FFB32290443BEC85
:1044A000F0A3EDF090443AEFF0FB90443D1224ADC0
:1044B000F1F3122505EB9150122505EB9150C083C5
:1044C000C0821224C9900000F1EBFD12227FD0823D
:1044D000D083122505904441E0FF90443AE0FE91DC
:1044E00068EFF090443BE0FCA3E0FDEE75F00CA417
:1044F000245CF582E43431F583ECF0A3EDF02290F6
:10450000489CEFF0E4A3F09040CCE0FFB4020E90A2
:10451000489D740FF09040CB74B9F08011EF6404A3
:10452000704990489D743DF09040CB7479F01237FB
:10453000F290489CE060079040CBE0FF80027FABA8
:1045400012372D123A4590489CE09040CBF07016FF
:1045500090489DE0D39400400D7FFF12372D904886
:104560009DE014F080EAE4FF1237DA22900ACE12BE
:104570003E151225BDE51470791258045004C23B53
:10458000D137900ACEE0FEA3E08E11F512A31225DA
:104590009D9006F21225BDAE11AF127DAA1271AF29
:1045A000E4F5FF75D901F510E5155421602CE515EA
:1045B00030E505E4FF126107E4900AD3F0900AD3D6
:1045C000E004F0125EE2EF6009900AD3E0C39410B9
:1045D00040EB7F02121DD65315DE9006EEE07F0001
:1045E000B403027F011260F8D23BD137D2EBA212A2
:1045F00092ED22EF600C7167AF82AE83E4FDB16C87
:104600008009121A52D10EE433FF227F0122E514F1
:1046100070231258045004C23BD1371267A51267A9
:1046200039E5D120E0FB4315205315FEE4F510A237
:104630001292EDD322C3229048DDE5F4F0E0547FDE
:10464000F5F47F827E00126260125FC15005E5FCC6
:1046500020E6F6303B089048DDE04480F5F4126235
:104660005C125FC15005E5FC20E6F675FF01E5D55B
:1046700020E702C322E5F4D330E601C322E4FFB110
:10468000F3EF60497B017A127923125BB9500990EC
:104690001223E0C394C040EC7B017A127925125BAF
:1046A000B9500F1248D15FFFA3E05FFFA3E05FF4B2
:1046B00060E690122AE030E0047F01B1F3E490124A
:1046C00021F07B017A127923E0FD121B74229007FE
:1046D0002BEFF0C23C126F5BD22190072BE090478A
:1046E000C3F0D222A3E4F0A3740DF0125E22E49092
:1046F000072CF012580C507690072CE07070E5F7FC
:1047000054C060EFF184F1976455704EF1979012A8
:1047100021E06F600E90072CE0F47039901215E0E4
:1047200030E132F19764556018E0FF644A6012EF9F
:10473000640A600D901221E0FF90072CE0FE6F707C
:104740000590072C800A9006EFE06E90072C7019F8
:104750007402F0809E90072C800F90072CE0B454D8
:10476000057433F0808D90072C7401F080859007DC
:104770002CE0B40206C23BD1378000125E159007D0
:104780002CE0FF22E5F720E008E5F754C070F5FFC4
:104790002243F701AFF922F18490072CEFF02212A7
:1047A00069CD7F02121DD67F01D1CE900B47EFF06D
:1047B000BF02028013900B47E0B43311E4F07F0195
:1047C000D1CEBF020D900B477401F08005E4900B31
:1047D00047F0900B47E0700C12580C5004C23BD1CC
:1047E000371267A5900B47E024FF22E0FEA3E0FF0D
:1047F000E4FC22EB75F00CA42458F582E43431F586
:104800008322900B18EFF0900B1AEBF0900B19ED40
:10481000F05402901240F0124001EF7002C3229057
:104820000B18E0B40411A3E0FB7D017F01115C9043
:104830000B187403F08013900B18E0B40505121BDD
:10484000E78007900B191189115C900B18E0900319
:10485000C1F0900B1AE090123FF0D322EB60087584
:10486000FF0153CDFD800675FF0143CD02ED6005CC
:1048700053FBDF800343FB20EF600775FF0243E13A
:10488000402275FF0253E1BF22E0FB7D01E4FF22DD
:10489000121BE77F0143FB1075FF0243E640EF6008
:1048A0000D75FF02E5E120E7FB43FB0D800343FBB1
:1048B0000E80FE75FF028FE322901221E07010112E
:1048C000D14FFFA3E04FFFA3E04F7003D38001C39C
:1048D00022901223E0FFA3E0229003BBE064AA240D
:1048E00011FFF022126AAFEF70087FA07E0FFDFC6F
:1048F000218F126AE6904221EFF07406D39F407137
:10490000E0605F31FB7E00904221E014FDE5F0A8FD
:1049100005088005C333CE33CED8F9FF7C007D6413
:1049200012275431F59042221224C9C000C001C0A0
:1049300002C003904221E014FF74107E00A8070813
:104940008005C333CE33CED8F9FFEE3395E0FDFCBE
:10495000510912229AD003D002D001D00012227F36
:10496000802D31FBAFF07E007C007D6412275480E7
:104970001E904229E0FF600FE4FCFDFEFB7AF47913
:1049800001F812229A80087F007ED07D077C0031DA
:10499000F551117E4A7F3DC006C00731ED123FB789
:1049A000904448F0D007D006123F63126AC0EF70FF
:1049B0003B5103D31223E84007E47F01FEFD802230
:1049C000510312232531F531EDE47B0171FB5014C5
:1049D00031EDC3EF9401FFEE9400FEED9400FDEC89
:1049E000940031F431ED121BF6123FF52290422271
:1049F0000224ADFDFC90422202250511D9EF75F08D
:104A0000A084229042221224ADE47BE87A03F9F8D4
:104A1000227166EF600FE47FA07E0F31F3901217D2
:104A2000E054E7F022901217E0FF74E0D39F4005B6
:104A3000E02410F022EF6410901217F022123F8051
:104A4000904226E0B40210E4FDFCFF1219F89042F7
:104A5000267403F00239CC904226E06403706B9018
:104A60004228E0605790422AE0B40105121BDD8025
:104A70000A90422AE0B40203121BE2904228E0149A
:104A8000F0E0601F11D9EF75F04684E5F075F06431
:104A9000A4FFEF24A0FFE5F0340FFEE433FDE43380
:104AA000FC8007E47FA07E0FFDFC904444122505A6
:104AB0007E4A7F3DE4904448F0023F639042267472
:104AC00001F01239CC7FFD021DF4904226E0B404BF
:104AD0000E7166EF600651E9E4FF01E4121BDD226E
:104AE0009400904553F0A3CEF07B007A0079002229
:104AF000904442EEF0A3EFF07FFFA31224C9E849EF
:104B00004A4B60519044497403F0904449E0FEC31D
:104B1000940E5041EE7158E07033904449715674D0
:104B200005F0C0079044441224AD90443D12250581
:104B3000904448E0904441F0904442E0FCA3E0FD02
:104B4000D00712449C904449E004FF8008904449F7
:104B5000E004F080B522E0FF75F00CA4245FF5823C
:104B6000E43431F58322901217E05408FF22904577
:104B700032EEF0A31265F5EBF090453774FFF0903C
:104B80004536E0904538F0904538E0FFC3940E502C
:104B90006412444F1224ADE4FB71FB705090453613
:104BA000E07E0170027E029045387156EEF0C0073B
:104BB000904534E0FF7E0060097C007D0A1220BA37
:104BC00080027F0AE4FCFD90443D122505904535A6
:104BD000E0904441F0904532E0FCA3E0FDD00712A4
:104BE000449C904538E004FF904537F022904538CA
:104BF000E004F08092904537E0FF22FAF9F8C30212
:104C000023E8F0A3EFF07E1C7FAFE4FB7D01E4908E
:104C10004536F0616E9042EBF07E1E7FBC7B017DDD
:104C20000A9045367403F0616E904896ECF0A3ED5F
:104C3000F0904895EFF012735FD246121E359048FF
:104C400095E0FFE4FDF1E7904895E0FF1273529183
:104C500096904895E012732C126D69205D11D25D1B
:104C60007E727F5D7BFF7D019121BFFF02C322D356
:104C700022E0FB25E025E02401F582E43412F583EF
:104C8000122505EB25E025E02401F582E43412F538
:104C900083E0FCA3E0FDA3E0FEA3E0FF22903BED58
:104CA000122505903BFD7401F0E4A3F01267AC758A
:104CB000FF02E5E630E00E903BFE7401F0FB7A3B2C
:104CC00079FE1263E7903C08122511002DC6C0E45E
:104CD000F5FFF5A490120FF0903BFF7402F075FF02
:104CE00003903BFFE0FFF595EF1460171460242458
:104CF000027033903BED9191903C04122505903B5E
:104D0000F9801E903BF19191903C04122505903B57
:104D1000FA800E903BF59191903C04122505903B52
:104D2000FBE0903C0CF0126F19903C0CE070051207
:104D30007680806690120EE004F0903BFFF1CC90FC
:104D40003BFEE0701A903C089191903C041263DBAA
:104D5000C31223E85009903C049191A312250590B9
:104D60003C0CE0FF126D9A903BFCE0FF903BFFE0B3
:104D7000FDA2399236126EC7903BFEE07013903C54
:104D80000491919046AA122505903BFFE0FF126323
:104D900049903BFFE0918412641EF1D5600281DEF0
:104DA000903BFEE07049A37402F075FF03903BFF57
:104DB000E0F595E5F454077012903C08F1A27801F3
:104DC0001223F9903BFF917112641EF1D570DB90B4
:104DD0003C08F1EA2420FFEE344EF1C4E4FB7A04EF
:104DE000F9F8F1B278011223F9903C00122505126E
:104DF00075A3400343F420A2399237126DF9903B1A
:104E0000FEE024FF9235903C009191126D8CE4F508
:104E1000FF75E5081276CAE59B30E7FB125D92123A
:104E2000774E7FC8125DA4F17C125ED97B017A3B7C
:104E300079FD126C2C90120EE0B40103125FE89021
:104E40003BFDE0B40103D38001C322903D4C122509
:104E5000051267AC903D61122511002DC6C0E4F526
:104E6000FFF5A490120EF0A3F0903D5C7402F07573
:104E7000FF03903D5CE0FFF595EF1460171460248C
:104E800024027033903D4C9191903D5D1225059028
:104E90003D58801E903D509191903D5D12250590AA
:104EA0003D59800E903D549191903D5D12250590A5
:104EB0003D5AE0903D65F0126F19903D65E0700538
:104EC000127680805690120EE004F0903D5CF1CC9A
:104ED000903D619191903D5D1263DBC31223E850D8
:104EE00009903D5D9191A3122505903D65E0FF126B
:104EF0006D9A903D5BE0FFA3E0FDA2389236126E02
:104F0000C7A391919046AA122505903D5CE0FF123F
:104F10006349903D5CE0918412641EF1DE6002C141
:104F20006F7402F075FF03903D5CE0F595E5F45475
:104F3000077017FF7E04FDFC903D61F1A778011218
:104F400023F9903D5C917112641EF1DE70D61275EA
:104F5000A3400343F420A2389237126DF9903D61CB
:104F6000F1EA2420FFEE344EF1C4E4FB7A04F9F8B0
:104F7000F1B278011223F9C235126D8C90121374BC
:104F800001F07E127F01E4FD8F828E83EF2DF5828A
:104F9000E43EF583E0FC901213E02CF00DEDB4122A
:104FA000E722FF7E04FDFCE0F8A3E0F9A3E0FAA30A
:104FB000E0FB12229AE47B7DFAF9F8122325EF2414
:104FC00001FFE43EFEE43DFDE43CFC22E0333333EC
:104FD00054F8F5F422903BFFE0FF14F0EF22903DEF
:104FE0005CE0FF14F0EF22026B38E0FCA3E0FDA3CD
:104FF000E0FEA3E022AE0711D9EE04FEEF8EF084AE
:10500000AFF02230110C902F00E07006FF1219B79C
:10501000C211301323AF7790070FE0FEEFC39E401D
:105020000AEF9ED394024010C2132290070FE0F4BF
:105030002FD394014002C213229003C5E0FCA3E0E9
:105040004C700A9003C5EEF0A3EFF0D322C3229078
:1050500003C511606009CAEECAC9EFC912272A2226
:10506000E0FEA3E0FF4E22310D1225BDE490423652
:10507000F0A304F0904233116070022107D3EF9443
:1050800020EE940040047F208006904233A3E0FF8E
:10509000904235EFF090423012259D904235E0FF6E
:1050A000903B33E4F0A3EFF090422C1224AD51EA90
:1050B000400E904236E0FFA3E0FEEF4E904236F005
:1050C000904235E0FFC3904234E09FF0904233E0DD
:1050D0009400F090422C1224C9904235E4FCFDFE6D
:1050E00012227F310D12259DE94A6007904235E07A
:1050F000FF80027F00904231E48FF01221579042EE
:1051000037E025E0F00174904236E0FF2290422C17
:10511000122505904230227B017A4079C37D017FC0
:1051200003121C0F7A4079CC7F0871697B017A40A9
:1051300079C97D027F09121C0F7B017A4079C77DF6
:10514000027F0B121C0F9040C711606006BEFF1655
:10515000BFFF1351D75002800451E080099040C72F
:10516000E4F0A37440F051D7500280089040C4741A
:1051700003F080069040C47402F09040C3E0122611
:10518000CA519D0451A81451B01551B81751CE30D1
:1051900051D63451DE3651E637000051C375FF0158
:1051A0005368EF8568FD804775FF015369EF800EF6
:1051B00075FF015369DF800675FF0153697F8569BB
:1051C000C9802C75FF01536ADF856ACA802175FF8B
:1051D00001536BFE801675FF01536BEF800E75FF58
:1051E00001536BBF800675FF01536B7F856BCB123C
:1051F0003A457F1151C9E4FF1244FF123735904000
:10520000C17402F09040C5E0247F6009047015511C
:10521000CF740A8006717751CF7458F09040C474EF
:1052200003F051E09040C6E0F4600241C69040C9EE
:10523000E0FEA3E0FF64104E70069040C6740EF0CE
:10524000EF64204E70069040C6740FF0EF64404E3D
:1052500070069040C67410F0EF64804E7006904067
:10526000C67411F0E4B5070AEEB401069040C674A6
:1052700012F0E4B5070AEEB402069040C67413F0CB
:10528000E4B5070AEEB404069040C67414F0E4B521
:10529000070AEEB408069040C67415F0E4B5070A94
:1052A000EEB410069040C67416F0E4B5070AEEB4EA
:1052B00020069040C67417F0E4B5070AEEB4400625
:1052C0009040C67418F0023ACBEF4420F5FE227FDE
:1052D0001051C99040C1229040CCE024FE24FD2210
:1052E0009040C77401F0A3E4F022903B2C122505F6
:1052F000903B301225BDE4903B55F0D3903B34E019
:105300009420903B33E094004001227B017A3B796A
:1053100035903B33E0FFA3E0904384CFF0A3EFF060
:10532000903B2C1224AD123D20903B3012259DE97C
:105330004A600B903B557170122004FF80027F0081
:10534000903B55E02435F582E4343BF583E06F6013
:1053500002C322903B55E004FFF0D3903B34E09F22
:10536000903B33E0940050C1227B017D01021C0F71
:10537000E0F582758300229040BEE020E0171237EE
:10538000F27F3D12372D7F2A12372D7F8012372D65
:105390007FA61237D322D2ADD2BD75FF02758E71B2
:1053A000757A0975FF02E58E546F4480F58E90473B
:1053B000351225110000000022C0E0C0F0C083C0FB
:1053C00082C0D075D008C0FF75FF02E58E30E43B87
:1053D00075FF02E58E54EF4410F58E904735122488
:1053E000AD124FBE904735122505900000E4123DE6
:1053F000E4E57A30E0020551E57A700D757A090529
:1054000077E577700205768002157A75FF02E585EB
:1054100030E40875FF02438510057CD0FFD0D0D062
:1054200082D083D0F0D0E032AB07E4FA1BEBC39418
:105430000E50141247F31224ADEC4D4E4F6008EBA2
:105440001244501225050AAF022280DC1FEFC394DC
:105450000E500812444F1224AD8005E4FFFEFDFCFF
:1054600022E4FEEFC3940E5013EF124B58E05D7C24
:1054700000B505027C01EC2EFE0F80E7AF06227D11
:1054800002E4FF80DC7D017F039161AB07917FEF38
:105490002BFF22E4FD7F0380C8A2AD922DC2ADAFE9
:1054A00077AE76A22D92AD22AD07AC069199C3EFEF
:1054B0009DEE9C4008EF9DFFEE9CFE8013EDF4FDF9
:1054C000ECF4FCED2401FDE43CFCED2FFFEC3EFE92
:1054D000229003CAE0FEA3E0FF91A8D3EF94C8EEA8
:1054E000940022E4900701F07B017A07791090473D
:1054F000BD1225BD9047BDB10AFF123F3A9047BD8E
:1055000012259DE402208690453912259D021FC771
:1055100090453CECF0A3EDF09045391225BD91EE9D
:1055200090453C127650904539F1CAB107B4FF045A
:10553000E4122086B107FF22C0E0C0F0C083C08221
:10554000C0D075D008C0FF75FF01E5D530E6047FF7
:10555000028009E5D57F0030E7027F018F18E5184A
:1055600064026002C113E5141226CA5584015597DE
:105570000255FE0855A20955AD0A55BB0B55D80C6E
:105580000000579375FF0175C355151AE51A60029F
:10559000E193751402E19375FF0175C3F075140969
:1055A000E19375FF0175C35575140AE19375FF0109
:1055B000900702E0F5C375140BE19375FF019006A7
:1055C000EFE0F5C3751401751A14900711F1DA6054
:1055D00002E19375140CE193AB1CAA1DA91E127174
:1055E000D9AD16AF1F127204125AE975FF00F1D13E
:1055F00043FA0475FF00126100751408E193C2EBD1
:105600007514004315041268FE4002E193E4123D54
:10561000E4E193E51864016002E193F1C34002E123
:1056200093E5107022F1A7E0FF64556004EFB454D5
:105630000BD213AF7790070FEFF0E11175100275E1
:10564000FF0075D908E193E5106402706E75FF01E3
:10565000F5EA75EAFF9006F212259DE5D91220863B
:10566000126F7C1268BB9006EEEFF0F1B7E0900B82
:1056700046F0E0FFD3940940259006EEE0D3940273
:10568000400CEFD394AA7F0040027F01800D900B65
:1056900046E0D394407F0040027F01EF6004F1AE0A
:1056A000806F900B46E0F516126F50901222EFF0CB
:1056B00075FF008516D9751003E193E5106403604A
:1056C00002E1939006F2B10AFFE92401125B36F180
:1056D000AE75FF009006EEE0C39403E5D350055489
:1056E00002FF80035401FFEF602C30E111C39006EC
:1056F000FCE094FF9006FBE094FF5015800FC390F0
:1057000006FEE094FF9006FDE094FF5004E4123D95
:10571000E4126123807DC23B12463775FF00126799
:105720003CE5D120E0FBC2EB431502F1A7A3E0FF6B
:10573000901224E0FEEF6EF1A6E0901223F1A0A3F8
:10574000A3E0901225F1A0A3A3A3E0FE901226E00F
:10575000FDEE6D4F6013C3900700E094FF9006FFCD
:10576000E094FF5004E4123DE4C39006FAE094FF95
:105770009006F9E094FF5004E4123DE475100090A7
:1057800006EEE0B403071516F1B7E516F09003C472
:10579000E516F0D0FFD0D0D082D083D0F0D0E03268
:1057A000FEE0FDEE6D4FFF851282851183223013DE
:1057B00005C213125E1522E5122407F582E43511A5
:1057C000F58322E5F754C024FF2212259DEF022025
:1057D00086E5D254804414F5D22274FFF5F01221EC
:1057E0005745F022E4900710F090070104F022A240
:1057F000132212580C5005126FD14003301303D3FB
:105800008001C322C2EBA2ED9212C2EDE5F4C330D7
:10581000E701D322900AE61225BDD22FC2EBE51490
:1058200060024181E51530E202C32251D124E3F93F
:10583000E41277421269CD51D95407FF9006F0F077
:10584000126760900AE9EFF0E51520E077110C404F
:10585000057F011245F3900AE9E0FF7B017A0A799E
:10586000EAB10DE4337004D2EB4166900AE9E0241A
:105870006BF582E43408F583E0FF900AEAE0D39FF9
:105880004042D2EB12690CA21292ED900701E06047
:105890001551D124E3F9E43AFA7401122086431534
:1058A000041254E3D322900710E070167B017A07AC
:1058B00079107C577DE490453E7464F0E4A3F012C7
:1058C0005510C322110C5005C23B124637126739DE
:1058D000E5D120E0FBE4F510C21351D95407C3947D
:1058E00003E49400503251D124B151C951D024D88D
:1058F00051C92FFFE433FED3EF9440EE64809480CF
:10590000401651D124E3F9E43AFA74021220864396
:105910001504A21292EDD32251D12408F9E43ACF12
:10592000E9CFF5118F1251D124B151C9F516AE113D
:105930001271E551D124B2F9E43A8B1CF51D891E90
:1059400051D124D851C9F51F51D9FDACF054606034
:105950002F51D124D951C9FF1268CFC22F51B9FBA1
:105960007A009007111277007D181220BAEF2BFFF2
:10597000EA3EFEEF2414FBE43EFA7D027F0141562D
:1059800051D954079006F0F075140851D124B2F99A
:10599000E43AFA1271D951D124D851C9FFAD161287
:1059A00072049006F0E0640370247B01FD5189D3FA
:1059B000712650057401122031E4F5FF1257D112FF
:1059C0001FC72428FBE433FA7D03E4FF4156900609
:1059D000F0E06402702A518CD37126400574FF12E6
:1059E0002031E4F5FFE5D25480440AF5D2121FC7F6
:1059F0002414FBE433FA7D027F01713E51E98058A3
:105A0000E4FB7D015189D37126400574FF122031DA
:105A1000E4F5FF51D9441045F07F0560027F0AEF9D
:105A2000547FFFE5D254804FF5D2E4F5FF43D28096
:105A300051B9FD7C0051D9441045F07E0060047FCF
:105A40000A80027F05EF25E0FFEE33FEEF2DFBEE2F
:105A50003CFA7D017F01713E51D9FFAEF0A22F9239
:105A60002E1260B84006A21292EDC3221254E390A7
:105A70000AE9E051D024E57136A21292EDD2EBD3BF
:105A800022A21292EDD2EBC322FF51EE900AE6124F
:105A9000259DE924B1F9E43AFA121FC7FF900AE6FE
:105AA00012259DE924D8F9E43AFA121FC72FFFE422
:105AB00033FEEF2401FFE43EFE900AE612259DE945
:105AC00024B2F9E43AFAE92407F9E43AFA021FC7E2
:105AD000FF900AE612259DE922900AE612259DE92B
:105AE0002404F9E43AFA022183E4FB7D01FFE4F5A2
:105AF000FF75D102E5D120E0FBE4F5FFF5D1EF60C1
:105B000008E4F5FF43D2808006E4F5FF53D27FEB33
:105B10006006E4F5FF43D104ED6006E4F5FF43D1F0
:105B2000082233FEE0C39FEE6480F874809822FF61
:105B300012259DE92402F9E43AFAEF022086900B3F
:105B400021EFF0ED24FE60191460262402703BEB77
:105B50002402FFE43AFE7C007D501220BA7D608072
:105B60001E71AEC333CE33CED8F9FF7C007D2880C2
:105B70000E71AEC333CE33CED8F9FF7C007D6412F4
:105B800020CC900B22EEF0A3EFF0900B21E01269F5
:105B9000BFC083C0821224C9900B23E02401900B64
:105BA000221277C912227FD082D083022505EB24EE
:105BB00001FFE43AFEEF7803229042A4126714F04A
:105BC0009042AA122511000000019042AE7401F02B
:105BD000F5FFE5D554C07004110C5002C322E4F562
:105BE000FF53967F75FF0175D504D1D275FF014330
:105BF000D508E4F5FF5394FBF5FF53847FF5FF755B
:105C000098FF9042A8E5F4F075F49C75FF01A3E5B8
:105C1000E4F075E4257B017A4279AE1263E79042A5
:105C2000AEE06401600281E2F5FF9042A77414F0D7
:105C30009042AA124C91780112240C9042AA12258B
:105C400005E5A730E1FB43A7029042AA124C91E57B
:105C5000A730E005E47B018002E4FBFAF9F8EF4BA2
:105C6000FFEE4AFEED49FDEC48FC9042AA122505E4
:105C70009042A7E014F070B89042AA124C917810AC
:105C80001223F97B6D7A4E79C6784112229AEF245D
:105C900039FFEE3430124FC4E4FBFA7901F81223D5
:105CA00025EE547FFEE4FDFC1267539042AA124C8D
:105CB00091EB6FFFEA6EFEE8CDEFCDCCEECCECFFC2
:105CC0009042A4B104EF1220869042A4B104900047
:105CD00001ED12209890120FE030E606E4F5FF7512
:105CE000968075FF01E4F5D59042A8E0F5F475FFC4
:105CF00001A3E0F5E4126DE89042AEE0B40103D3F5
:105D00008001C322E0FBA3E0FAA3E0F92290474917
:105D1000EFF0A3126714F075FF011262ACEF64019B
:105D20006002C322E5F430E602C3227FE87E03B1BD
:105D3000F8B1A8F1CC400122C23B12463790474946
:105D4000E0FF12610753F4DFD23B1246377F787EC3
:105D500000B1AF75FF0153E4BFE5E430E7FB126F1C
:105D6000C77F8AF1B930E60890474AB104E4800A57
:105D700075FF0190474AB104E5D912208675FF01ED
:105D800043E4401275A9400343F420F1CC400122C2
:105D9000D322E4F5FF758EC8F19775FF0153D5FB4B
:105DA000F1907F147E00B1F875FF0343918022CDFE
:105DB000EFCDCCEECC12632FAB94EF4B24FBFFE581
:105DC000F034FFCBEFCBFAE59130E71E126332A936
:105DD00094E9F582EF4582FFEB2DF582EA3CF583ED
:105DE000C3EF9582E5F0958340DDE59120E708CE8D
:105DF000ECCECFEDCFD1D52275FF03D3EF9402EED9
:105E00009400400874FE2FFF74FF3EFEEFF592EE03
