:020000040000FA
:100000000202DF0218034100B8002202180B22226C
:0100100022CD
:07001300021813E4FFE1BC39
:07001B0002181B75C8012249
:030023000218239D
:03002B0002182B8D
:030033000218337D
:03003B0002183B6D
:030043000218435D
:03004B0002184B4D
:030053000218533D
:03005B0002185B2D
:030063000218631D
:03006B0002186B0D
:10007300021873BB010689828A83E0225002E722B9
:10008300BBFE02E32289828A83E49322BB010CE54F
:100093008229F582E5833AF583E0225006E9258239
:1000A300F8E622BBFE06E92582F8E222E58229F57D
:1000B30082E5833AF583E49322BB010689828A832E
:1000C300F0225002F722BBFE01F322F8BB010DE53B
:1000D3008229F582E5833AF583E8F0225006E92583
:1000E30082C8F622BBFE05E92582C8F222C5F0F8D4
:1000F300A3E028F0C5F0F8E582158270021583E0CD
:1001030038F022A3F8E0C5F025F0F0E582158270FF
:10011300021583E0C838F0E822EF2BFFEE3AFEED3C
:1001230039FDEC38FC2275F008758200EF2FFFEEE5
:1001330033FECD33CDCC33CCC58233C5829BED9A10
:10014300EC99E58298400CF582EE9BFEED9AFDEC6E
:1001530099FC0FD5F0D6E4CEFBE4CDFAE4CCF9A8B4
:100163008222B800C1B90059BA002DEC8BF084CFBC
:10017300CECDFCE5F0CBF97818EF2FFFEE33FEED93
:1001830033FDEC33FCEB33FB10D703994004EB99BD
:10019300FB0FD8E5E4F9FA227818EF2FFFEE33FED0
:1001A300ED33FDEC33FCC933C910D7059BE99A4005
:1001B30007EC9BFCE99AF90FD8E0E4C9FAE4CCFB1D
:1001C3002275F010EF2FFFEE33FEED33FDCC33CC71
:1001D300C833C810D7079BEC9AE899400AED9BFDFA
:1001E300EC9AFCE899F80FD5F0DAE4CDFBE4CCFA0D
:1001F300E4C8F922EF5BFFEE5AFEED59FDEC58FC23
:1002030022EB9FF5F0EA9E42F0E99D42F0E89C451F
:10021300F022E8600FECC313FCED13FDEE13FEEFC9
:1002230013FFD8F122E8600FEFC333FFEE33FEED87
:1002330033FDEC33FCD8F122E0FCA3E0FDA3E0FEA8
:10024300A3E0FF22E0F8A3E0F9A3E0FAA3E0FB2296
:10025300ECF0A3EDF0A3EEF0A3EFF022A8828583E8
:10026300F0D083D082120276120276120276120244
:1002730076E473E493A3C583C5F0C583C8C582C878
:10028300F0A3C583C5F0C583C8C582C822E0FBA31C
:10029300E0FAA3E0F922F8E0FBA3A3E0F925F0F0EC
:1002A300E582158270021583E0FA38F022EBF0A3A1
:1002B300EAF0A3E9F022D083D082F8E493701274B9
:1002C3000193700DA3A393F8740193F5828883E4DB
:1002D300737402936860EFA3A3A380DF75812F0279
:1002E300094A9000E551B0AE071FEE60129000E896
:1002F30071031176FE9000E57103EE11BC80E822D4
:10030300E475F0018090900A12EEF0A3EFF09000F4
:100313004FE064016002619CC3900A12E0940850AC
:100323000BE4FF9153900A12918780ECE4F50DFBE7
:1003330071C5AF0C12103DE50DC39408504771C34E
:10034300E50D7F0071BDEF29F9EA3EFA9000E8510F
:10035300B07B017A0979007FFF51E5E50DFEE424C6
:10036300FFFFE43E71BD8F828E83118F9009FFF0F2
:100373007B017A0979009000FBE50DF0AD0C1210BA
:1003830063050D80B2900050513BE42FFFEE34081B
:10039300120D139000500214BC900054E0FEA3E031
:1003A300FF71BE900A12E0FDA3E09000D1CD1208C8
:1003B300D4900054EEF0A3EFF022FE902001419080
:1003C3007B007A00791012103675FF031176F5D38E
:1003D30075FF0390000171F190000271F190000329
:1003E30071F175D40175FF03E5D55402FF22118F16
:1003F300F5D375FF03229000F1E0FEA3E0FF9130F7
:1004030091539000F3513BEF2401120D109000F330
:100413005153900A18914D900A18E07002A3E070AE
:100423000BFF7E087109120F4212142822B108CD66
:1004330024FFCD34FFFCC3ED9FFFEC9E541FFE74DD
:10044300082F121416FF229000DF74FFF5F001F05D
:10045300B108541FFC74082DF58274203CF583EF1A
:10046300F0902006E0B42019A3E0B4001490200516
:10047300E02401FF902004E03400541FF0A3EFF0C8
:1004830022902006E475F00101F09000BA515390D8
:1004930000BE51B0110AF11EEF6004110F80F71274
:1004A3000F0560099000BA513B7810D1249000BA2F
:1004B300D1209000BA513BE480219000C11208C7BB
:1004C30045F0601B9000BE5190E94A600C1176FF25
:1004D300D1279000BF918780E1E4FFD12780DBF132
:1004E300B79000AF7401F0229000E3E0FF81039026
:0704F3000A1BE014F0E022F7
:10050800902006E0FCA3E0FD902005E02DFD902062
:1005180004E03C22D1C8EF541FFF12148DA37401CC
:10052800F0120F4C9000DCE0FCA3E0FDAE0478056F
:10053800CEC313CE13D8F9FF9000DFEEF0A3EFF08F
:10054800ED541FA3F0A3E4F09000F1F0A3F0C390E2
:1005580000DDE094209000DCE09400407D914A901A
:1005680000E1E0FEA3E0FF9000F1EE8FF011F090C3
:1005780000DFE07004A3E06406700AD1C89000DFD1
:10058800E48FF011F0D1C89000F1E48FF011F0126F
:100598000FFCEF600512148A8005E49000DEF090ED
:1005A80000F1121371701D91309000E3EFF0910388
:1005B80091EB91EB9000DFE07002A3E0604891EBD3
:1005C800914A80F071F971F971F99000DFE07002D9
:1005D800A3E0603271F9914A80F09000DC91878045
:1005E8000A9000DCE07002A3E0600BD1C891039090
:1005F80000DC914D80EB120FFCEF600512148A802D
:1006080005E49000DEF09000DEE06002A12C1214F8
:10061800AB71099000F3413B513B78085115E4E573
:10062800C820E2FB8FEB227F01F1BC900A1C740109
:10063800F0900A1CE06032120FF4D1BC900A1CEF53
:10064800F0120849D1AB9000ACEFF0120849900ABB
:100658001CE054011213BB60D8A3E0F460D3EF3060
:10066800E7CFE4900A1CF080C8F1E87F9FD127D13A
:10067800BC9000ADD1BA9000B2D1BA9000B3F1B538
:100688009000ABE0F4601BA3E0F460169000B2E0C9
:10069800FD541F240FA3F0EDC413540744809000A9
:1006A800B2F022F1E87FD7D1277FFFD127D1C090C0
:1006B80000ABEFF07FFFD127E5C820E2FBAFEB22CC
:1006C800900081E0B4082CA3E0B40027120F2E7B21
:1006D800017A0179009000CA120F45F161120F2EBC
:1006E800E42FFFEE3408120D13120F28E490008156
:0806F800F0A3F0900083120F43
:10070000DB9000835153900081E475F0013106FEC7
:10071000740025F0F58274013EF583E0FF227F012D
:10072000F1BC300216120FF4D1BC900A1DEFF0128A
:100730000849900A1DE020E002C202300219D1AB44
:100740009000ACEF1213BB600BA3E0F46006EF3037
:10075000E702C202120849E4FFF1BCA202E433FF3F
:10076000229000C351539000C751B0110AF11EEFFF
:100770006004110F80F7F1E47F03120F1E600990EF
:1007800000C3513B7810D1249000C3D1209000C306
:10079000120F349000CA1208C745F06011D1BC9006
:1007A00000C75190EF11BC9000C8918780E51208F6
:1007B00049E4FF8007EFF0120849E4FFEFB40104B9
:1007C00043FE202253FEDF229000ABE020E014F134
:1007D000E47F3DD1277F2AD1277F80D1277FA6D1F3
:1007E00027F1B7227F01F1BC9000B0E051B9080AAF
:1007F00004081214081715081C17082C3008313487
:10080000083636083B3700000824531AEF851A8053
:10081000802F531BEF8008531BDF8003531B7F8502
:100820001B90801D531CDF851CA08015531DFE806E
:100830000D531DEF8008531DBF8003531D7F851D81
:10084000B07F0CDFFE2212062712149FEF70FA9081
:1008500000B2E0F4600B900A1B7406F01204F27010
:10086000FB9000B0E01202B9088404088C140891CF
:100870001508961708A63008AB3408B03608B53707
:100880000000089E431A10851A80802F431B108099
:1008900008431B208003431B80851B90801D431C45
:1008A00020851CA08015431D01800D431D1080086C
:1008B000431D408003431D80851DB0900A1B740CAE
:1008C000F01204F270FB2274FFF5F0020106E0FD65
:1008D0009000D1E4F0A3EDF09000CCEEF0A3EFF0A7
:1008E000A31202B09000D111C745F060549000CE21
:1008F0001202901200769000D3F09000CF1204877D
:100900007D80ED60DF3141EE7C0030E7027C0190BC
:1009100000D3E05D7B0060027B01EB6CFCEF25E027
:10092000FFEE339000CCF0A3EFF0AF04EF600C903B
:1009300000CCE06410F0A3E06421F0EDC313FD806F
:10094000C19000CCE0FEA3E0FF2275FF03759E027C
:100950009017FAE493900A0FF075FF02E5E654034E
:100960006002618B7510DE7511AD7512BE7513EFE7
:10097000C2AF75FF0275E404F5E4751AFF751BFF3D
:10098000751CFF751DFF7516FF7517FF7518FF7530
:1009900019FF75FF0253E6BFD11A1210DAB11BEF2F
:1009A00064016002618290180893FE740193FF90C5
:1009B000007FEEF0A3EFF0F5828E83E493FE7401E6
:1009C00093FFC3EE9480500280047E807F008E14DB
:1009D0008F15B1F7FFF5828E83740293F51E7403B1
:1009E00093F51F740493F508740593F50974069341
:1009F000F50A740793F50BC201EF4E700241E4EF64
:100A0000F4FFEEF44F700241E4E514451EFEE515D7
:100A1000451FFFE5084EFEE5094FFFE50A4EFEE5DE
:100A20000B4F4E700241E4E51FF4FFE51EF4FEE5B6
:100A300015F4FDE514F44EFEED4FFFE509F4FDE578
:100A400008F44EFEEF4DFFE50BF4FDE50AF44EFE13
:100A5000EF4D4E700241E47F03718EE50B24FFFFE2
:100A6000E50A71BC640370227F02718EE50924FFE0
:100A7000FFE50871BCB402127F01718EE51F24FFEF
:100A8000FFE51E71BCB40102D2012001577F017144
:100A90008E71B59000D1E51EF0E51FF13B71A07F8E
:100AA0000271AB9000D1E508F0E509719E7F0371FA
:100AB000AB9000D1E50AF0E50B719E7F01718E903D
:100AC0000A10E0FEA3E0FF7BFF7A187900E4251509
:100AD0009000D2F0E51434E89000D1719F4EC370BD
:100AE00001D39201300109F1ACEF6401600261822F
:100AF000D20091FB7B017A007964B1D8741BF012AB
:100B00000761900064E0B4800B9153EF70061214FB
:100B100046EF6002C20030006530011AB1F7F5827D
:100B20008E83740C93FE740D93FF90007DE06E70C5
:100B300003A3E06F604890005012025F00001800AD
:100B400091FBF128F12EEF2401B110B1D27404F021
:100B5000120761900087B10A9000871214BC9000C0
:100B600081F14590004F04F012051C7440D3950CA0
:100B7000400C1203C3AF0C12103D050C80EDE4FFD6
:100B8000F186E4F510F511F512F513021800AEFF29
:100B9000EE54CFFEEFC454F024804EF5FF22A3F0B4
:100BA00011D8900A10EEF0A3EFF022718E900A1087
:100BB000E0FEA3E0FF7BFF7A80790022347F8F8202
:100BC000F583E49322900000EEF0A3EFF0A312026D
:100BD0003B900008120253900006E0FFA3E0900053
:100BE0000CCF806090000C121371605EC3EF9440D4
:100BF000EE94004006A37440F0800590000EEFF0E4
:100C0000B1FFE0FFB1D8EFF090000812023B1207ED
:100C10006190000EE0FFC390000DE09FF090000C8B
:100C2000E09400F090000812024790000EE4FCFDF2
:100C3000FE12011C900008120253914AB1FF11CE1E
:100C4000900000EEF0A3EFF0809A900000E0FEA389
:100C5000E0FF2291FBB101900006E4F07405F13B46
:100C600091F0C006C00791FBEF2407B110B10190CD
:100C70000006E4F0A37414F0D007D00691F0C0068B
:100C8000C007B107B101D10940067EFF7FFF800692
:100C900090006512023B900006EEF0A3EFF0D00743
:100CA000D00691F0D109402F91FBEF241AFFE43ECA
:100CB000FEED3401FDE43CFCB10190006512023B05
:100CC000EF2401FFE43E900006F0A3EFF0900A1637
:100CD000E0FEA3E0FF91F0900069E0FEA3E0FF904A
:100CE0000A16E06E7003A3E06F7F0060027FFF22B0
:100CF00071C5900A16EEF0A3EFF0229000A6020252
:100D00003B9000020202539000A612023BEF241B0C
:100D1000FFE43EFEE43DFDE43CFC22E49000AAF04A
:100D20007B017A007995121378900097E0FF741197
:100D3000D39F5077E4FFFEFDFC7B017A0079FE90A3
:100D400000CAF0A37402F01207619000FEE0FEA357
:100D5000E0FFE4FCFDB1CC91FBEF2402B110B1CC7B
:100D60009000B5E024FFFF9000B4E034FFFEE4FC07
:100D7000FD9000A61202471201F79000FCEEF0A3CE
:100D8000EFF09000A61202479000FCE0FEA3E0FF07
:100D9000C39000B5E09FFF9000B4E09EFEE4FCFD30
:100DA00012011CB1CC9000AA7401F09000AAE0FBE3
:100DB0006017E4FFFE7D02FC900097E024EFF9F855
:100DC00012022890008F120253AF03229000A60255
:100DD00002537B017A0079839000CAE4F0A3229148
:100DE000FBEF2401B110B1D27404F0120761B10716
:100DF000F128900081E14590007FE0FEA3E0227B96
:100E0000017A00790F90000E22E47FFF7EFFFDFC47
:100E1000900065120247D3020204E4900A1EF0908B
:100E20000A1EE0FFD3946F501EEF2410FFF198903C
:100E30000A1EE0FEE42EF582E4344FF583EFF090D5
:100E40000A1EE004F080D87B017A4F79009000D12F
:100E5000E4F0A37470F07F0F7E1D11D8EF4E7F0079
:100E600070027F01901218EFF024FF22900A09EB24
:100E7000F0900A05120253900A0512023BD1C3906A
:100E80000A09E06F603B12000A12071EEF600512AC
:100E9000000F80F5F105600B900A0512023B7810F7
:100EA000120624900A05120620900A05F134900AD1
:100EB00009E0FF1206271207B79000AF7401F0D3C4
:100EC00022C322900A0012025312000A12071EEFD8
:100ED000600512000F80F51207E47F03F11E600B1E
:100EE000900A0012023B7810120624900A001206A3
:100EF00020900A00F1341206BC900A041207B59043
:100F00000A04E0FF227F011207BCD2021207E87F29
:100F10000612062711491207E89000AEE0FF1206FC
:100F2000279000B1E06402229000870202539000F3
:100F30008702023B12023BE4020627A3F07F0F7EEA
:100F40001D22900A187408F0A3E4F022F1429000E8
:100F5000F312025F00000000E4902004F0A3F0A36D
:100F6000F0A3F07B017A2079089020011202B0E40E
:100F7000902000F0227F0F7E1D11D09000D8120229
:100F8000909000DB01CEAB07E4FF9000AAE0600781
:100F9000F1D8D16CE433FF2275FF03E4F59712100A
:100FA00021E59720E1FB75FF03AF9922E4900A1A2F
:100FB000F09000AAE0601B90008F12023BE4FBFA65
:100FC0007902F8D31202045009F1D8D1C3900A1A59
:100FD000EFF0900A1AE0FF229000A612023BEF24E5
:100FE000FFFFEE34FFFEED34FFFDEC34FFFC22E4A6
:100FF000FCFDC1C31207E87F05020627E4FFFEFDE2
:10100000FC900083120E137F0040027F012275FFC7
:10101000037597011121E59720E1FB75FF03AF9957
:101020002275FF038F9875FF0322113675FF03E5C4
:10103000D5F45402FF2275FF0375D4022275FF0315
:10104000EF543F4480F5D1E5D520E20AE5D520E014
:1010500005E5D530E1F1E5D55403FF75FF0375D5FE
:101060000580D375FF03ACD5EC20E13C75FF03EDA3
:10107000543FF5D175FF03E9F5D375FF03EA540F2B
:10108000FF9000FBE0C4547044804FF5D2E5D520BA
:10109000E205E5D530E0F6E5D55401FC75FF0343E4
:1010A000D40275FF0375D505AF042212000A12079A
:1010B0001EEF600512000F80F57F011207BCD202FF
:1010C0001207E87F061208461207E87F011206277A
:1010D0007F03120846E4FF0207BC7B017A0079B067
:1010E0007F0351E47A0079B97F0851E47A0079B638
:1010F0007D027F0951847B017A0079B47D027F0BE8
:1011000051849000B471716006BEFF16BFFF135189
:10111000F35002800451FC80099000B4E4F0A37401
:1011200040F051F3500280089000B17403F0800643
:101130009000B17402F09000B0E01202B9115904AD
:10114000116414116C15117417118A301192341135
:101150009A3611A2370000117F75FF015316EF85F3
:1011600016FD804775FF015317EF800E75FF015381
:1011700017DF800675FF0153177F8517C9802C750F
:10118000FF015318DF8518CA802175FF015319FE2E
:10119000801675FF015319EF800E75FF015319BFBB
:1011A000800675FF0153197F8519CB1208497F11FD
:1011B00051DEE4FF710612062F9000AE7402F0902B
:1011C00000B2E0247F600904701651EB740A8007B6
:1011D0001207C851EB7458F09000B17403F051FC41
:1011E0009000B3E0F4600241829000B6E0FEA3E01C
:1011F000FF64104E70069000B3740EF0EF64204E42
:1012000070069000B3740FF0EF64404E70069000CB
:10121000B37410F0EF64804E70069000B37411F058
:10122000E4B5070AEEB401069000B37412F0E4B519
:10123000070AEEB402069000B37413F0E4B5070A8F
:10124000EEB404069000B37414F0E4B5070AEEB4EB
:1012500008069000B37415F0E4B5070AEEB4100662
:101260009000B37416F0E4B5070AEEB420069000BF
:10127000B37417F0E4B5070AEEB440069000B374F7
:1012800018F001AB900A0AEFF0A3EDF0A31202B040
:10129000900A0BE06047901218E06013900A0AE091
:1012A0002410FF120F98900A0C120290EF801790F2
:1012B0000A0AE06401900A0C7007120290748080A0
:1012C0000512029074FF1200BC900A0D1204879060
:1012D0000A0BE014F0900A0AE004F080B322EF4415
:1012E00020F5FE227D0151847B01227F1051DE908A
:1012F00000AE229000B9E024FE24FD229000B474D8
:1013000001F0A3E4F022900A14EFF0E4A3F09000BF
:10131000B9E0FFB40209740F716974B9F0800CEF81
:1013200064047044743D71697479F01207E4900AA2
:1013300014E060079000B8E0FF80027FAB12062740
:10134000120849900A14E09000B8F07016900A153F
:10135000E0D39400400D7FFF120627900A15E01499
:10136000F080EAE4FF1207BC22900A15F09000B862
:1013700022E0FEA3E0FF4E229000ADE01200BC9000
:1013800000B2E09000011200CE9000B3E0900002A5
:101390000200CEAB05E4FCFD020E6C9000ED1202E3
:1013A000B0E4FCFDC0079000ED1202909000F0E068
:1013B000FF120DD8EFF0D007020761F09000ABE00C
:1013C000FFF42212000A12071EEF600512000F80C0
:1013D000F5229000AFE0FF22E49000AFF0229012DF
:1013E00018E024FF22901218E060057F10020F9889
:1013F0007FFF22902004E0FEA3E0FF24089116FD69
:10140000EF2401FFE43E541F902004F0A3EFF0A36B
:1014100012044DAF0522F58274203EF583E0229040
:101420002006E0FEA3E0FF22902000E0045403F039
:101430007F0033333354F8FEEF2408F974203EFA6A
:101440007B01A30202B0900054741DF0A3740FF04E
:10145000120DDFE490004FF012051C90006BE0FECF
:10146000A3E0FF900054E06E7003A3E06F7F006084
:10147000027FFF22EFB40109D2AD75FF0143AE40F8
:1014800022C2AD75FF0153AEBF221206C89000DC28
:10149000E4F0A3EFF022E5C85402FF75C80222E58C
:1014A000C85404FF22E5C85401FF22900A18E0FE48
:1014B000A3E0FFC3E49FFF74089EFE22120253E4E0
:1014C000FB7A08F9F890005012023B1201658F0C6C
:0114D00022F9
:1017FA00060AFFFCFFFF02184E1A4D1A52007FB864
:10180A00EF90181393901900730A20364CE57FFF66
:10181A0022EFF57F221CDC1CE102685E19A81BCEB0
:10182A00FF02586D000DFA20000DDC700000000068
:10183A00020C00013F3F3F04040440404000000006
:10184A000002545475819F75FF03759E0212192078
:10185A0002312A022E469029BCE47E019360F4A349
:10186A00FF543F30E509541FFEE493A360010ECFF5
:10187A0054E0B4E00EEFFAEEF9A3A3A3A3DAFDD97C
:10188A00FB80D654C025E0604B5026E493A3F8545D
:10189A0007240CC8C333C4540F4420C8834004F43B
:1018AA0056800146F6DFE480B001020408102040A9
:1018BA0080E493A3FAE493A3F8E493A3C8C582C887
:1018CA00CAC583CAF0A3C8C582C8CAC583CADFE924
:1018DA00DEE78085E493A3F8E493A34003F680014E
:1018EA00F208DFF40218635A2D5761766520362E06
:1018FA003130001BE2FFC07F7419C0E0C082C08390
:10190A00757F0AE5FF54CF4490F5FF22C07F741912
:10191A00C0E0C082C083757F20E5FF54CF4490F5B4
:10192A00FF22C07F7419C0E0C082C083757F36E58C
:10193A00FF54CF44A0F5FF22C07F7419C0E0C082D3
:10194A00C083757F4CE5FF54CF44B0F5FF229081E8
:10195A00AA21169081BE2116908893211690BC0860
:10196A00211690D7BC211690D7D421169083B62180
:10197A001690DF9521169093D5211690E71421161B
:10198A0090E78F211690E7C4211690B21421169081
:10199A00E9EC211690EA08211690ECC5211690D39D
:1019AA00BB211690EF8E211690EFCD2116908D8EC9
:1019BA00211690EFF5211690F3F5211690F3C22126
:1019CA001690D34F211690AF41211690D7022116B7
:1019DA0090AF3C211690F112211690F12A2116900F
:1019EA00D1AF211690EEEC211690EDBA211690F2A5
:1019FA0012211690F41C211690EE30211690F4272D
:101A0A00211690F08B21169089DD211690EDA121E7
:101A1A001690F447211690EAC8211690D37F211612
:101A2A0090F335211690F45F211690F4A4211690B4
:101A3A00F4D8211690F523211690F5BA211690F5BF
:101A4A006A211690F67F211690955E211690F6C4AB
:101A5A0021169081F1211690F6DC211690F70B21C0
:101A6A001690F735211690EEC3211690F310211621
:101A7A0090F29B211690F316211690EB34211690C2
:101A8A00ECE5211690EB26211690EED1211690F75F
:101A9A0071211690DB09211690D97F211690D9F071
:101AAA00211690F78C211690F2BD211690F78D2100
:101ABA001690F2E5211690D97E211690D91D21168D
:101ACA0090F79C211690EF55211690EA6321169003
:101ADA00F7BC211690AD20211690A7A3211690AB32
:101AEA002D211690F7C2211690F81A211690DBFFC5
:101AFA00211690AA71211690D8FA211690AAAD2122
:101B0A001690C614211690C596211690DFED21165F
:101B1A0090F848211690DC6C211690DD1F21169052
:101B2A00DB26211690AC63211690E32B211690CA6E
:101B3A004E211690F9E4211690E0E7211690FB7EDB
:101B4A00211690F93E211690FBB1211690FA5321E5
:101B5A001690FC07211690ECFD211690809721160D
:101B6A009080FB2116908000211690815F211690AB
:101B7A00851A214290BFAD214290B0AB214290BA62
:101B8A00C6214290958921429081C921429085C8F7
:101B9A002142909758214290BFBB214290BFCB214E
:101BAA00429081952142909720214290C002214281
:101BBA0090C029214290C07021429089D821429038
:101BCA008FD7214290C51A214290C57E214290B3F7
:101BDA007E21429085D3214290C4E5214290C4D807
:101BEA00214290C08B214290B32E214290B2A6216D
:061BFA004290B186214279
:101C000090C6E1214290C6A0214290C65221429046
:101C1000C9FE214290CA43214290CA5B214290A84A
:101C200007214290A87F214290CA7E214290CAC5D6
:101C300021429097B6214290CB00214290CB6B215C
:101C4000429085B0214290800021429080972142AD
:101C500090CB72214290C31D214290CB84214290AF
:101C6000D17E21429090B8214290A80221429085D5
:101C7000C4214290D1D4214290D1E5214290D22E6C
:101C8000214290D254214290D29B2142909811211E
:101C90004290A22F214290B0D421429081EB214268
:101CA00090A1FE214290B0CD214290C7A421429044
:101CB000D3B0214290CC88214290D603214290CDCE
:101CC00074214290D635214290D738214290A7EA1C
:101CD000214290B8B9214290C2FD214290D7EF2114
:101CE0004290987D214290D815214290B000214227
:101CF00090AFE3214290919E214290D9B32142902E
:101D0000B1E9214290DB4A214290B7E3214290DBC6
:101D10006F214290B16E214290A877214290DD4F11
:101D2000214290E0122142909692214290B09F2150
:101D30004290E052214290E064214290D88B2142AF
:101D400090E06A214290B8B3214290E07021429025
:101D5000DC26214290C394214290C115214290C3B8
:101D600035214290E365214290E393214290CB4F8D
:101D7000214290E5CC214290A6D72142908B62214E
:101D80004290E9D0214290B1BE214290B7BE21429B
:101D900090E9DA214290A880214290EA7221429093
:101DA000EAE8214290C0B9214290EC1D214290DB2B
:101DB0009B214290DD6B214290DFBB214290EC2FB2
:101DC000214290A287214290EBF5214290ABF52170
:101DD0004290AB22214290A8C6214290A9AD214257
:101DE00090A7F4214290DFFE214290A7E12142908A
:101DF000E808214290B066214290A9B32142909F09
:101E0000DD212C909F67212C909FEC212C90A04DE0
:101E1000212C90A057212C90A070212C90A08221E1
:101E20002C90A093212C90A10D212C90A149212C24
:101E300090A153212C90A187212C90A1E1212C90DD
:101E4000A21B212C908000212C90A416212C90A460
:101E500017212C9093C1212C90A124212C909F120A
:101E6000212C909BE4212C90A459212C909D86211B
:101E70002C909D6B212C909B55212C909903212C0B
:101E800090A1C6212C00E709F608DFFA8046E70991
:101E9000F208DFFA803E88828C83E709F0A3DFFA3C
:101EA0008032E309F608DFFA8078E309F208DFFA06
:101EB000807088828C83E309F0A3DFFA80648982D2
:101EC0008A83E0A3F608DFFA805889828A83E0A338
:101ED000F208DFFA804C80D280FA80C680D4806914
:101EE00080F28033801080A680EA809A80A880DA11
:101EF00080E280CA803389828A83ECFAE493A3C8A3
:101F0000C582C8CCC583CCF0A3C8C582C8CCC58364
:101F1000CCDFE9DEE7800D89828A83E493A3F608AB
:101F2000DFF9ECFAA9F0EDFB2289828A83ECFAE072
:101F3000A3C8C582C8CCC583CCF0A3C8C582C8CC11
:101F4000C583CCDFEADEE880DB89828A83E493A361
:101F5000F208DFF980CC88F0EF60010E4E60C38894
:101F6000F0ED2402B4040050B9F582EB2402B4046D
:101F70000050AF2323458223901ED673BB010689F0
:101F8000828A83E0225002E722BBFE02E32289829A
:101F90008A83E49322BB010B89828A83F8E0C828F4
:101FA000F0E822500327C722BBFE07F8E3C828F356
:101FB000E8228A838982E49322BB010CE58229F519
:101FC00082E5833AF583E0225006E92582F8E6228D
:101FD000BBFE06E92582F8E222E58229F582E58347
:101FE0003AF583E49322BB010989828A83F8E028C9
:101FF000F022500327F722BBFE05F8E328F3228ADC
:10200000838982F8E4932822BB010FF8E58229F541
:1020100082E5833AF583E028F0225009C58229F849
:10202000E58226F622BBFE09C58229F8E22582F266
:1020300022F8EA2583F583E9932822BB01068982E9
:102040008A83F0225002F722BBFE01F322F8BB0183
:102050000DE58229F582E5833AF583E8F022500602
:10206000E92582C8F622BBFE05E92582C8F222EFE7
:102070008DF0A4A8F0CF8CF0A428CE8DF0A42EFE75
:1020800022BC000BBE0029EF8DF084FFADF022E4EE
:10209000CCF875F008EF2FFFEE33FEEC33FCEE9D2D
:1020A000EC984005FCEE9DFE0FD5F0E9E4CEFD2254
:1020B000EDF8F5F0EE8420D21CFEADF075F008EFDF
:1020C0002FFFED33FD4007985006D5F0F222C3985C
:1020D000FD0FD5F0EA22C2D5EC30E709B2D5E4C352
:1020E0009DFDE49CFCEE30E715B2D5E4C39FFFE410
:1020F0009EFE122081C3E49DFDE49CFC800312201F
:102100008130D507C3E49FFFE49EFE22C5F0F8A30B
:10211000E028F0C5F0F8E582158270021583E038FA
:10212000F022A3F8E0C5F025F0F0E58215827002F8
:102130001583E0C838F0E822BB010A89828A83E06F
:10214000F5F0A3E022500687F009E71922BBFE074D
:10215000E3F5F009E3192289828A83E493F5F074A8
:10216000019322BB0110E58229F582E5833AF583CC
:10217000E0F5F0A3E0225009E92582F886F008E6B0
:1021800022BBFE0AE92582F8E2F5F008E222E583A7
:102190002AF583E993F5F0A3E99322BB010DC582EB
:1021A00029C582C5833AC58302210C5011C58229F5
:1021B000F808E5F026F618F5F0E58236F622BBFEC3
:1021C00011C58229F808E225F0F5F0F218E235820F
:1021D000F222F8E58229F582E5832AF583740193DA
:1021E00025F0F5F0E4933822BB010A89828A83F056
:1021F000E5F0A3F0225006F709A7F01922BBFE066E
:10220000F3E5F009F31922F8BB0111E58229F58203
:10221000E5833AF583E8F0E5F0A3F0225009E925DB
:1022200082C8F608A6F022BBFE09E92582C8F2E5BD
:10223000F008F222EF2BFFEE3AFEED39FDEC38FC10
:1022400022C3EF9BFFEE9AFEED99FDEC98FC22E88D
:102250008FF0A4CC8BF0A42CFCE98EF0A42CFC8A8B
:10226000F0EDA42CFCEA8EF0A4CDA8F08BF0A42D08
:10227000CC3825F0FDE98FF0A42CCD35F0FCEB8EA9
:10228000F0A4FEA9F0EB8FF0A4CFC5F02ECD39FE5F
:10229000E43CFCEAA42DCE35F0FDE43CFC2275F0D4
:1022A00008758200EF2FFFEE33FECD33CDCC33CC5B
:1022B000C58233C5829BED9AEC99E58298400CF576
:1022C00082EE9BFEED9AFDEC99FC0FD5F0D6E4CEA4
:1022D000FBE4CDFAE4CCF9A88222B800C1B90059D8
:1022E000BA002DEC8BF084CFCECDFCE5F0CBF978A5
:1022F00018EF2FFFEE33FEED33FDEC33FCEB33FB39
:1023000010D703994004EB99FB0FD8E5E4F9FA22C2
:102310007818EF2FFFEE33FEED33FDEC33FCC933BD
:10232000C910D7059BE99A4007EC9BFCE99AF90F85
:10233000D8E0E4C9FAE4CCFB2275F010EF2FFFEEF1
:1023400033FEED33FDCC33CCC833C810D7079BEC3C
:102350009AE899400AED9BFDEC9AFCE899F80FD5B4
:10236000F0DAE4CDFBE4CCFAE4C8F922EF5BFFEE4F
:102370005AFEED59FDEC58FC22C3E49FFFE49EFE9B
:10238000E49DFDE49CFC22EB9FF5F0EA9E42F0E91F
:102390009D42F0EC6480C864809845F022EB9FF584
:1023A000F0EA9E42F0E99D42F0E89C45F022E860A8
:1023B0000FECC313FCED13FDEE13FEEF13FFD8F18A
:1023C00022E8600FEFC333FFEE33FEED33FDEC3355
:1023D000FCD8F122BB010789828A8302246250055E
:1023E000E9F802290CBBFE05E9F802291889828A5E
:1023F0008302246EBB010DE58229F582E5833AF55F
:10240000830224625007E92582F802290CBBFE07EB
:10241000E92582F8022918E58229F582E5833AF553
:102420008302246EBB010789828A830224BA500585
:10243000E9F802294EBBFE05E9F802295A22BB0140
:102440000DE58229F582E5833AF5830224BA500727
:10245000E92582F802294EBBFE07E92582F8022908
:102460005A22E0FCA3E0FDA3E0FEA3E0FF22E493F8
:10247000FC740193FD740293FE740393FF22E0F851
:10248000A3E0F9A3E0FAA3E0FB22BB010DE582295A
:10249000F582E5833AF58302247E5007E92582F828
:1024A000022924BBFE07E92582F8022931E58229A9
:1024B000F582E5833AF58302293EECF0A3EDF0A323
:1024C000EEF0A3EFF022A8828583F0D083D08212B1
:1024D00024DD1224DD1224DD1224DDE473E493A351
:1024E000C583C5F0C583C8C582C8F0A3C583C5F040
:1024F000C583C8C582C822BB010789828A8302249A
:10250000C65005E9F8022966BBFE05E9F802297FF5
:1025100022BB010DE58229F582E5833AF583022489
:10252000C65007E92582F8022966BBFE07E9258225
:10253000F802297F22F5F0C582A4C582C5F0C583C3
:10254000A42583F58322A42582F582E5F03583F561
:102550008322E0FBA3E0FAA3E0F922F8E0FBA3A3C7
:10256000E0F925F0F0E582158270021583E0FA3873
:10257000F022EBF0A3EAF0A3E9F022E493FB74016C
:1025800093FA740293F922BB010789828A83022598
:10259000525005E9F8022998BBFE05E9F80229AA7C
:1025A00089828A8302257BBB011A89828A83D0F0C3
:1025B000D0E0F8D0E0F9D0E0FAD0E0FBE8C0E0C02D
:1025C000F00225725016E9F8D083D082D0E0F9D01D
:1025D000E0FAD0E0FBC082C0830229A1BBFE16E96D
:1025E000F8D083D082D0E0F9D0E0FAD0E0FBC0820E
:1025F000C0830229B322BB010DE58229F582E58360
:102600003AF5830225525007E92582F8022998BB42
:10261000FE07E92582F80229AAE58229F582E583E9
:102620003AF58302257BBB0120E58229F582E5830B
:102630003AF583D0F0D0E0F8D0E0F9D0E0FAD0E07D
:10264000FBE8C0E0C0F00225725018E92582F8D0FE
:1026500083D082D0E0F9D0E0FAD0E0FBC082C08322
:102660000229A1BBFE18E92582F8D083D082D0E0F0
:10267000F9D0E0FAD0E0FBC082C0830229B322D0B7
:1026800083D082F8E4937012740193700DA3A39326
:10269000F8740193F5828883E4737402936860EFA1
:1026A000A3A3A380DFD083D082E49370127401933C
:1026B000700DA3A393F8740193F5828883E4737477
:1026C00002936C70127403936D700C7404936E70AB
:1026D000067405936F60DDA3A3A3A3A3A380CA8A96
:1026E000838982E473E57B2582F582E57A3583F57B
:1026F00083B57A0485827B2210AF0685827BF57ACA
:102700002285827BF57AD2AF22EC8EF0A4CCC5F084
:10271000CCCDF8EFA4CEC5F02DFDE43CFCE8A42E12
:10272000C8C5F03DFDE43CFCEFA4FFE5F028FEE465
:102730003DFDE43CFC22E3F5F009E208B5F06BDF77
:10274000F58067E3F5F009E608B5F05EDFF5805A3D
:1027500087F009E608B5F052DFF6804E87F009E20F
:1027600008B5F046DFF6804288828C8387F009E066
:10277000A3B5F036DFF6803288828C8387F009E4D7
:1027800093A3B5F025DFF5802188828C83E3F5F0F3
:1027900009E0A3B5F014DFF5801088828C83E3F59F
:1027A000F009E493A3B5F002DFF402286580878086
:1027B000E9809080D4803E8015806E807E809D80F0
:1027C000B7808D80A380518074803C0228718982FB
:1027D0008A83ECFAE493F5F0A3C8C582C8CCC5831C
:1027E000CCE493A3C8C582C8CCC583CCB5F076DF52
:1027F000E3DEE1807089828A83E493F5F0A3E20846
:10280000B5F062DFF4805E89828A83E0F5F0A3E6AA
:1028100008B5F051DFF5804D89828A83E0F5F0A399
:10282000E208B5F040DFF5803C89828A83E493F5C5
:10283000F0A3E608B5F02EDFF4802A8002805789E5
:10284000828A83ECFAE493F5F0A3C8C582C8CCC5AC
:1028500083CCE0A3C8C582C8CCC583CCB5F006DF65
:10286000E4DEE280007FFFB5F0020F2240027F012C
:102870002289828A83ECFAE0F5F0A3C8C582C8CC2D
:10288000C583CCE0A3C8C582C8CCC583CCB5F0D580
:10289000DFE5DEE380CF89828A83ECFAE0F5F0A3FE
:1028A000C8C582C8CCC583CCE493A3C8C582C8CCB4
:1028B000C583CCB5F0AFDFE4DEE280A988F0EF603D
:1028C000010E4E60ABED2402B404005098F582EB8B
:1028D0002402B40400508E23234582239027AD7335
:1028E000EF4E6012EF60010EEDBB010B89828A830F
:1028F000F0A3DFFCDEFA2289F05007F709DFFCA91C
:10290000F022BBFEFCF309DFFCA9F022E6FC08E69E
:10291000FD08E6FE08E6FF22E2FC08E2FD08E2FE12
:1029200008E2FF22E6FB08E6F908E6FA08E6CBF83B
:1029300022E2FB08E2F908E2FA08E2CBF822E4938B
:10294000F8740193F9740293FA740393FB22ECF682
:1029500008EDF608EEF608EFF622ECF208EDF208C4
:10296000EEF208EFF222D083D082E493F6087401ED
:1029700093F608740293F608740393F6740473D004
:1029800083D082E493F208740193F208740293F204
:1029900008740393F2740473E6FB08E6FA08E6F998
:1029A00022EBF608EAF608E9F622E2FB08E2FA086A
:1029B000E2F922EBF208EAF208E9F2224103C1004F
:1029C0004103C000E0020200001C84E00202000299
:1029D000120FE00102000954E00102000AA5E00123
:1029E00002120B00E00502120C120F02060A410946
:1029F0003B0601140041093A0141093801C119019E
:102A00001900011700C12E4141E3004141D80041A6
:102A100041E1004141E2004141DFFF41415B00C132
:102A20001CC102413315004133A3FF41339A00C159
:102A3000004133A4004133A50041339B01C105414E
:102A40003314004146A500C13A4340140000004140
:102A5000401300414017004303B70000004303B494
:102A60000103B742362F980743449A0000004344BD
:102A70009701449AE00202121101B0E00102121320
:102A800000E00102129400E0050213BC01B006064A
:102A90000A414607024146060D4146080860203CAF
:102AA0004142DB01000000000000000000000000C7
:102AB0000000000000000000000000000000000016
:102AC0000060203C610900000000000000000000E0
:102AD00000000000000000000000000000000000F6
:102AE0000000000000503EDD00000000000000007B
:102AF0000000000000000000C113015000C110C11F
:102B00001141458005C11DC11FC124422B7D984044
:102B1000412B7F00433CB4000000423CB200006007
:102B2000202B3C000000000000000000000000001E
:102B30000000000000000000000000000000000095
:102B40000000004327F19F01005027F4000000001F
:102B500000000000000000000000000161272DFFC0
:102B6000000201050101020E060101000407040133
:102B70000203000004000608050402080314040010
:102B800004001405010809080502080314050004DF
:102B9000001405000600140802020A0A08020301D4
:102BA00000080004001408000600140801080014BE
:102BB0000A020D000A0A020C000A0A02080B0A0A9D
:102BC00001050C0E0A000400140A000600140A0194
:102BD0000800140E000A0D110E020804140E000461
:102BE00000140E000600140E010800140E0105006A
:102BF000140E020F0E1211000C0C0E110208041418
:102C00001100040014110006001411010800141131
:102C10000105001411000A00141102050E1212021F
:102C200008041412020C0F00120004001412000613
:102C300000141201080014120105001412000A0009
:102C400014120205001412000C001413020C0100EF
:102C50000002090000000210000014020901001423
:102C6000020B0013140007100014020A01001402E2
:102C700004001414020C001414020D010014020EBE
:102C8000001414021001006024300F0200FFFF0640
:102C900002FF000602FF000301FF002300FFFF0305
:102CA00000000013000000020001010300000046C4
:102CB0002F66010002010402422FEC1D8141307396
:102CC00000413221014130790043307601303443F4
:102CD000306A013034410AEB00602009A1EDFFFFAA
:102CE000FFFFFFFFFFFFFFFFFFFFFFFFFFFFFFFFF4
:102CF000FFFFFFFFFFFFFFFFFFFFFFFF7F602827B2
:102D000076060A000000030008EEEF7F88CF7FC040
:102D10000F028124E040008000008080180100E85C
:102D20003300000600006000004121620041217272
:102D30000041216001412165114121610041243F91
:102D40000041245F0041243C0041246B004F24508B
:102D50000127A50001247F000127CE0000000042CA
:102D6000247D8700C126C127413404964134000FD9
:102D7000E0020213C100A8E00502146400A80406E2
:102D80000AE0020214690807E005021C6B08070547
:102D9000060A473D9600000000000000433D9300F6
:102DA0000000E002021C700013E00C021C72000024
:102DB000030800030008060A060AE005021C7E005C
:102DC00013FF060AE002021C83000000C2D5E830AF
:102DD000E70FB2D5E4C39BFBE49AFAE499F9E498CF
:102DE000F8EC30E717B2D5122E021222DAE4C39BB8
:102DF000FBE49AFAE499F9E498F880031222DA30B5
:102E0000D50DE4C39FFFE49EFEE49DFDE49CFC22FF
:102E1000789FE4F6D8FD9000007F007E10E4F0A3D8
:102E2000DFFCDEFA9046C4A3E583C394204011FE84
:102E3000AF829020000E0FE48002F0A3DFFCDEFAE8
:102E40001219200218602232000001000000001751
:102E5000060000000018060000000618060000002A
:102E6000011806000000081806000000010101001A
:102E70000000011500000000010204000000010B29
:102E800004000000060B04000000080B0400000012
:102E9000010D00000000010E040000000110000000
:102EA0000000010F000000000405010000000406FE
:102EB00006000000040708000000020500000000F2
:102EC00003050100000001080500000000080000E3
:102ED0000000010C010000000112050000000803C1
:102EE0000200000001220000000008160800000097
:102EF000080800000000011601000000061601008D
:102F00000000050903000000050A00000000050399
:102F100002000000050400000000061B060000007F
:102F2000011B06000000061C07000000061D07002C
:102F30000000070508000000081E07000000082028
:102F400000000000081F0000000008210000000031
:102F50000811060000000111060000000822000010
:102F60000000061906000000061E000000000620F2
:102F700000000000061A080000000614010000000E
:102F8000071401000000081B0600000007240000D1
:102F9000000008140100000055555555555555556C
:102FA0005555555555555533333333333333333303
:102FB00033333333333333888888888888888888E4
:102FC0008888888888883F241E16110E0B090705FB
:102FD00004030201F0C8A7917767604638353230A4
:102FE0002422201400010102020303040405050643
:102FF00006070700000000000000000000000000BD
:1030000000000000000000000000000000000000C0
:103010000000878888888888888888888888888841
:10302000888826262626262626262626262626267C
:1030300026261DFE1E031E081E0D1E121E171E1C18
:103040001E211E261E2B1E301E351E3A1E3F19C184
:1030500019C619CB19D019DA19EE19F319F81D9AF6
:103060001DA41DA91DAE1DB31DB81DBD1DC719583A
:10307000195D196C197119761C5F1C6E1C731C7814
:103080001C7D822D1C16131110104457406141C63F
:103090001A931A981ACF1CAF1CB91CD71D90E4FDC7
:1030A0007C0CAB050DEB9018F1938F828E83F00FA3
:1030B000BF00010EDCEC7F03228F828E83E4F0A33D
:1030C0007406F08F828E83A3A3740AF011E0E4F0FB
:1030D000EF2404F582E43EF583E4F0A3746DF0225E
:1030E0008F828E83A3A3A322AD07901217E054FC16
:1030F000F0E0FFED54307E0060027E02EF4E901251
:1031000017F0E0FFED7E0030E0027E01EF4E9012FE
:1031100017F0229003C97402F09003C0E0FF121E62
:103120005311E89003C97405F02275FF0275E40499
:10313000E4F5E41270A4C330E001D34017E5E630B3
:10314000E012901217E0540C600A121C0A90121739
:10315000E054F7F0C2181270A430E039E5E65403E9
:1031600064017031121A39125711401F90123FE05A
:10317000600BE014F07006122E10126EE59012151E
:10318000E020E00241231248B74123122E10D2184A
:10319000126EE54123122E10125FEA9003C2EFF087
:1031A000901200E0B47A14901214E0B49C0D9003D5
:1031B000C2E0FF64056004EFB40330E49003C8F09C
:1031C0009003C8E0FFC394805013E42FF582E434E9
:1031D00012F583E4F09003C8E004F080E39012005D
:1031E000747AF0901214749CF0D214121C3C4003B8
:1031F000121C377B017A1279107D017F01121C327B
:103200007B017A1279117D017F21121C327B017AB8
:103210001279127D017F22121C327A1279297F02E3
:10322000126B4A901229E0B401057F01126849121D
:103230001A3E125FEA121A349003C2EFF012199E7E
:10324000121A2F9003C2E0FFB40602800C3018045B
:103250007F0280059003C2E0FF121E4EEF24FFB3F1
:10326000923A75FF0253E6BF123CED6003126EE521
:1032700012584A121A481238AC30140B7B017A12D9
:10328000792B7D10125E35121A84901215E0C3302E
:10329000E001D3400E203A0B31137B017A3379AC35
:1032A0001219DF90122AE030E00280033018057F07
:1032B00001125006D2AF203A026143121C5512454A
:1032C00024121E49121C2D40F29003C1E0604212EC
:1032D0001A66EF70051259724037E51470FCE51557
:1032E00020E5031253F5121B7EEF70FA125F205097
:1032F00005125F0C50047F01918A9003C1E0B40273
:1033000004E4FF80099003C1E0B403057F01124883
:10331000BC121A5CE51530E1A2125D9E4002E4F099
:10332000E51520E5059163123D88126E04AF82AE6B
:1033300083EFC0E091719003C4E0FDD0E0FF12196B
:103340009441BB1257EA1248E050031249009181A0
:10335000EF70069003C1E06053903315E0704D129A
:103360001A66EF70051259724042E51470FCE515BB
:1033700020E5031253F5121CC3121B7EEF70FA12E4
:103380005F205005125F0C50047F01918A9003C1A9
:10339000E070119181EF600C124021901217E0440F
:1033A00008F080089003C1E0FF121C05121C5512A2
:1033B0004524121C1E123FFB124009EF70231240DD
:1033C00036EF6005121C0A80389181EF7033125F6E
:1033D0004FEF702D1247F4EF6401702512401A80F0
:1033E00020901217E020E219124036EF600E125FB3
:1033F000205005125F0C5004E4FF918AE49003C74B
:10340000F0201505121A5C802212593A9003BAE096
:10341000FEEFC39E4005EF9EFF80089003BAE0F4E4
:10342000042FFF7406D39F5002C215E51530E12822
:10343000125D9E4002E4F0E51520E5059163123D22
:1034400088126E04AF82AE83EFC0E091719003C426
:10345000E0FDD0E0FF121994121BD3121A7012581B
:103460003861439003C3E0FD75F0AA9003CD1225A7
:1034700046ED75F002A424BCF9740335F0FA7B0123
:103480002212402FB401027F0122904673EFF0E434
:10349000A3F090415CE0FFB4020A740F12709474C0
:1034A000B9F0800DEF64047044743D127094747927
:1034B000F07F01D1C2F15B904673E0600790415B01
:1034C000E0FF80027FAB91F2D13E904673E09041E5
:1034D0005BF07015904674E0D39400400C7FFF9130
:1034E000F2904674E014F080EBE4FFD1C222122483
:1034F00062E4E5C820E2FB8FEB227F01D1C2904657
:103500009E7401F090469EE0602FF1E0B1869046F7
:103510009EEFF0D13EB17590414FEFF0D13E904615
:103520009EE0540112708C60DBA3E0F460D6EF30B3
:10353000E7D2E490469EF080CBF15B7F9F91F2B1A1
:1035400086904150B184904155B184904156EFF03E
:10355000D1BE90414EE0F4601BA3E0F460169041B0
:1035600055E0FD541F240FA3F0EDC413540744800D
:10357000904155F022F15B7FD791F27FFF91F2B13C
:103580008A90414EEFF07FFF91F2E5C820E2FBAF59
:10359000EB227F01D1C2303814F1E0B18690469F12
:1035A000EFF0D13E90469FE020E002C2383038185C
:1035B000B17590414FEF12708C600BA3E0F4600680
:1035C000EF30E702C238D13EE4FFD1C2A238E43383
:1035D000FF2290429E1224BA9042A2122572F1E676
:1035E000B192EF600512472480F6F1F56009904230
:1035F0009E126E73E491F290429E126E6BE491F211
:1036000090429E122462E480269042A5126EF460DD
:10361000229042A2122552E94A6012121F7CFF91A9
:10362000F29042A3E475F00112210C80DCE4FF91DA
:10363000F280D6D1BE9041527401F02291F2126C08
:1036400008EF70FA904155E0F4600B90469D7406C7
:10365000F012709C70FB904153E012267F36790483
:10366000368114368615368B17369B3036A03436A5
:10367000A53636AA3700003693436C10856C8080DF
:103680002F436D108008436D208003436D80856D4E
:1036900090801D436E20856EA08015436F01800DC4
:1036A000436F108008436F408003436F80856FB085
:1036B00090469D740CF012709C70FB2291F2D13EEA
:1036C000E4FFEFB4010443FE202253FEDF229044C6
:1036D000FB1224BA9044FB122462F11B9044FFE0D9
:1036E0006F6036F1E6B192EF600512472480F6F183
:1036F000F560099044FB126E73E491F29044FB1262
:103700006E6BE491F29044FB91EE9044FFE0FFD1A8
:10371000BC9041527401F0D322C3229044F612248B
:10372000BAF1E6B192EF600512472480F6126FC33A
:1037300012380D60099044F6126E73E491F29044D1
:10374000F6126E6BE491F29044F691EEB1869044DD
:10375000FAEFF0D1BE9044FAE0FF22904153E0121C
:10376000267F377E04378614378B1537901737A09E
:103770003037A53437AA3637AF3700003798536C47
:10378000EF856C80802F536DEF8008536DDF8003D1
:10379000536D7F856D90801D536EDF856EA0801503
:1037A000536FFE800D536FEF8008536FBF8003533C
:1037B0006F7F856FB07F0CDFFE22F1E6B192EF6084
:1037C0000512472480F67F01D1C2D238F15B7F0613
:1037D000D13CF15B7F0191F27F03D13CE4FFC1C298
:1037E000F15B7F0581F275FF02E5E430E10675E4E7
:1037F0000675E403227F01D1C2D238F15B7F061245
:1038000034F212363E12375B904151E0FF1234F22F
:10381000904154E06402229042A71224BA9042AB35
:103820001225721237E6123592EF60051247248096
:10383000F5126FC3110D600A9042A7126E73E41265
:1038400034F29042A7126E6BE41234F29042A71247
:1038500034EE9042AE126EF460151235869042AB93
:103860001256DF9042ACE475F00112210C80E31295
:10387000363EE4FF0236C290402C122552AE02AF13
:10388000017B017A40793B9044787402F090447552
:10389000122572E4FCFDC007904475122552904435
:1038A00078E09042AE126E29D007011712697912A2
:1038B0001A57121B24121999121C5A91ED700221E9
:1038C000967FFF121ADE900A531225727E007F093E
:1038D00031F2BF540D7E007F0A31F2BFA5047F0193
:1038E00080027F009003C0EFF0900A53122552E946
:1038F0004A4B701D7F04FE31F2EF2401FFE433FEDA
:10390000C3740112533F7F0050027F019003C0EF48
:10391000F09003C0E06401704B900A53126EC67BB6
:10392000017A0A79591187900A59E0FEA3E0900ABA
:1039300053126EFEE43AFA900A56122572E92408F0
:10394000F9E43AFEAF017B017A0A79591187900AAE
:1039500059E064067004A3E0640A6008121AE39058
:1039600003C0EFF09003C0E070247E007F04C00627
:10397000C374849404FE741C94009043F3F0A3CEAB
:10398000F01247C7D006F1F4E4FFFE121AE89003E4
:10399000C0E0FF121B0B91ED7F0060027F01121A45
:1039A0000C121A16121962126E1D7A127923121B4A
:1039B000831248F8FE4FFDA3E0FC4DFDA3E0FB4D54
:1039C000600BEE5FFFEC5FFFEB5FF47003124900EA
:1039D000901221E0FF901225E06F9003BBF0021CD3
:1039E00028E075F002A42485F9740F35F07B02FEFF
:1039F000AF01E4FCFD02371B7402F09043F0122586
:103A000072E4FCFDC0079043F01225529043F3127C
:103A10006E91D00790417B1224BA90417F1225729B
:103A200090417B122462904158E024FFFD90415761
:103A3000E034FF5EFEED5FFF904184126F4A6066E6
:103A400071EAC3126F5DFE904184F0A3EFF09041E4
:103A50008291E69FEC9E5006A3ECF0A3EDF0714935
:103A600091C960329111910190417B12247E122202
:103A700034C004C005C006C0077149E94A6004713A
:103A8000F380027F007E00714991FED007D006D0FE
:103A900005D0041235D27122E94A600471EA8075BA
:103AA0007E007F00806F904182F1ED6073904157FE
:103AB00091E6EF9DEE9C400A904184ECF0A3EDF07E
:103AC000800D904182E0FFA3E0A3CFF0A3EFF0715F
:103AD0004991C960329111910190417B12247E126B
:103AE0002234C004C005C006C0077149E94A600419
:103AF00071F380027F007E00714991FED007D006ED
:103B0000D005D0041235D27122E94A600471EA80EE
:103B1000047E007F00904180EE8FF012210C8086A1
:103B2000D322904184E0FEA3E0FFC3904183E09F55
:103B3000F0904182E09EF090417B12247EE4FCFDF7
:103B400012223490417B1224BA90417F022552EF19
:103B5000F4045FFFE4FEEF70037FFF22EFD3940FC6
:103B60004009EFC4540FFFEE4404FEEFD39403402A
:103B70000AEF1313543FFFEE4402FEEF30E1010E53
:103B8000AF0622AB07AA06EB241FFFE43AFEEF784C
:103B900005CEC313CE13D8F9F9EB541F9046A0F00D
:103BA000AF05714FEFC43354E0FCAF057154AE0163
:103BB000EE14C39FC43354E0F9AF04C3EB9FFFEA94
:103BC0009400FEE9FDC3EF9DFFEE9400FEED600F53
:103BD000E0FD6007C374209DFD80067D0080027DAE
:103BE000007C00EF2DFFEC3EFE22904184E0FEA31E
:103BF000E0FF22904188E0FF714FEFC43354E0FFB3
:103C000022E0FF714FEF75F020A4FFAEF0E4FCFD61
:103C100022904184E0FEA3E0FF904188E0FD7183A3
:103C2000904186EEF0A3EFF0A32291F4122572E406
:103C30009041EEF0A304F09041EBF1ED700281C3EE
:103C4000D3EF9420EE940040047F2080069041EB57
:103C5000A3E0FF9041EDEFF09041E8122552904132
:103C6000EDE0903E4C126E849041E4122462B11457
:103C7000400E9041EEE0FFA3E0FEEF4E9041EEF0EB
:103C80009041EDE0FFC39041ECE09FF09041EBE00C
:103C90009400F09041E412247E9041ED1270659101
:103CA000F4122552E94A60079041EDE0FF80027F5F
:103CB000009041E9E48FF012210C9041EFE025E003
:103CC000F081379041EEE0FF22904184E0FFA3E0D5
:103CD0009041EBCFF0A3EFF090417B122462912A48
:103CE000904188EFF022E0FCA3E0FDD3229003C2D4
:103CF000E06401229041E41224BA9041E822E92FC5
:103D0000F9EE3AFA904186E0FFA3E09042A5CFF0A9
:103D1000A3EFF022903E451224BA903E491225723C
:103D2000E4903E6EF0D3903E4DE09420903E4CE007
:103D300094004001227B017A3E794E903E4C126FF6
:103D400051F0903E451224621117903E49122552BF
:103D5000E94A6009903E6E126E9EFF80027F0090DD
:103D60003E6EE0244EF582E4343EF583E06F60025F
:103D7000C322903E6EE004FFF0D3903E4DE09F9052
:103D80003E4CE0940050C322AF82AE837D01900A86
:103D9000689123122572E51470781253CD5004C235
:103DA00036D113900A68E0FEA3E08E11F512A3123B
:103DB000255290093C122572AE11AF127DAA126BEA
:103DC0007FE4F5FF75D901F510E5155421602BE569
:103DD0001530E504E4FFF148E4900A6DF0900A6DB7
:103DE000E004F012623BEF6009900A6DE0C39410AA
:103DF00040EB7F02121E675315DE900938E07F000A
:103E0000B403027F01125CAAD236D113D2EBA217FF
:103E100092ED2290469CE5F4F0E0547FF5F47F8229
:103E20007E00F12AF12F5005E5FC20E6F730360838
:103E300090469CE04480F5F4F126F12F5005E5FC16
:103E400020E6F775FF01E5D520E702C322E5F4D3AC
:103E500030E601C322900AD0EFF0C237126182D25D
:103E600020900AD0E09045D0F0D221A3E4F0A374D2
:103E70000DF01260D1E4900AD1F01253D550769033
:103E80000AD1E07070E5F754C060EFF10BF11E64E9
:103E900055704EF11E901221E06F600E900AD1E035
:103EA000F47039901215E030E132F11E645560185B
:103EB000E0FF644A6012EF640A600D901221E0FF97
:103EC000900AD1E0FE6F7005900AD1800A900939FE
:103ED000E06E900AD170197402F0809E900AD18031
:103EE0000F900AD1E0B454057433F0808D900AD15C
:103EF0007401F08085900AD1E0B40206C236D11375
:103F000080001260C4900AD1E0FF22E5F720E008AB
:103F1000E5F754C070F5FF2243F701AFF922F10B2A
:103F2000900AD1EFF0227FE87E0312644880127578
:103F3000FF03E591C330E701D3227FC87E00126002
:103F4000A775FF034391802275FF01E5D530E60296
:103F5000C322E4F5FF439A80EF124FEFE4F5FF53DD
:103F60009A7FD32290455AEFF0A312663FF075FF77
:103F700001126481EF64016002C322E5F430E602BD
:103F8000C3227FE87E031260A7F14112683240012C
:103F900022C236D11390455AE0FFF14853F4DFD2E4
:103FA00036D1137F787E001261CF75FF0153E4BFD5
:103FB000E5E430E7FB12656A7F8A12642B30E6097C
:103FC00090455B124FE5E4800B75FF0190455B1255
:103FD0004FE5E5D912203B75FF0143E4401265939C
:103FE000400343F420126832400122D322E0FEA3B2
:103FF000E0FF4E2231FB74FFFDFC229003C7E0FF7F
:10400000121E449003CCEFF0229003CCE07F0070AE
:10401000027F0122E49003C7F0229003C77401F0ED
:10402000229003C77402F022112F70027F012290A8
:1040300003C7E07F0022112FB402027F012275FF27
:104040000275E40475E40175E4022275FF0275E46B
:1040500004E4F5E42212593A9003CAEEF0A3EFF01B
:1040600022125F32EF70087FA07E0FFDFC2102124A
:104070005F699041D9EFF07406D39F4067E0605AC2
:1040800031877E009041D9E014FDE5F0A805088055
:1040900005C333CE33CED8F9FF3180316C9041DA8D
:1040A00012247EC000C001C002C0039041D9E014B8
:1040B000FF74107E00A807088005C333CE33CED826
:1040C000F9FFEE3395E0FDFC317812224FD003D09A
:1040D00002D001D00012223480283187AFF07E0058
:1040E0003180801E9041E1E0FF600FE4FCFDFEFBAB
:1040F0007AF47901F812224F80087F007ED07D0784
:104100007C00316C319A7E417FC6C006C007904169
:10411000DA122462F104D007D00651D5F0125F43C1
:10412000EF70463172D312239D4007E47F01FEFDFC
:10413000802A31721222DA316C9041DA122462E460
:104140007B01F19950189041DA122462C3EF940177
:10415000FFEE9400FEED9400FDEC9400316B904175
:10416000DA122462121C0F115522FDFC9041DA0272
:1041700024BA9041DA122462E47BE87A03F9F82247
:104180007C007D64022709318FEF75F0A0842290B6
:1041900003BBE064AA2411FFF022F1A7EF600FE453
:1041A0007FA07E0F316A901217E054E7F022901240
:1041B00017E0FF74E0D39F4005E02410F022EF6485
:1041C00010901217F02291E19041DEE0B4020AF162
:1041D000A09041DE7403F041659041DEE06403701D
:1041E0006B9041E0E060589041E2E0B40105121BA1
:1041F000F6800A9041E2E0B40203121BFB9041E01A
:10420000E014F0E0601F318FEF75F04684E5F07543
:10421000F064A4FFEF24A0FFE5F0340FFEE433FDCB
:10422000E433FC8007E47FA07E0FFDFC9043141272
:1042300024BA7E417FC6E4904318F051D5F0229015
:1042400041DE7401F051657FFD021E589041DEE0B1
:10425000B4040EF1A7EF6006F1C7E4FF0161121B81
:10426000F6227401F09041DEE0640270247C447D0B
:10427000577F01121A02E4FBFAFD7FFF1219E97E53
:10428000417FC6C006C007D1FDD007D00651D5F08A
:10429000229041DEE064037017FFFE316A9041E234
:1042A000E07C447D57B402047F0380117F02800DBF
:1042B0009041DEE0B4040B7C447D577F04121A0267
:1042C00021C69041DEE0B4010BF1A091E17141E41F
:1042D0009041DEF02251DC9041E3EF22904312EE58
:1042E000F0A3EFF07FFFA312247EE8494A4B605011
:1042F0009043197403F0904319E0FEC3940E5040AC
:10430000EEB116E07032904319B1147405F0C00795
:1043100090431412246290430D1224BA904318E083
:10432000904311F0904312E0FCA3E0FDD007B1FBF5
:10433000904319E004FF8008904319E004F080B630
:1043400022901217E05403F02290469BEFF0C22E09
:10435000901221E060207E127F0B1239F2BF01081B
:104360007FFF121E587F00229041DEE0600890120D
:1043700021E0FF121E58911E90469BE0700261FFE3
:10438000E49041E2F09041DEE06002516290469B91
:10439000E0FFB401079041E274018009EFB403101B
:1043A0009041E27402F071419041E07404F0804762
:1043B000EF64047034901221E0701DD22ED1E2EF30
:1043C000700E7141F1DC7E127F0B7D01914A9126C6
:1043D0009041DE7404F080399003C2E0B40505E436
:1043E000F0121BF171417F002290469BE064027045
:1043F000209041E0F071419041DE7402F08012E4BF
:104400009041E2F0D1E2EF6002911E9041DE740132
:10441000F051659041DEE07F0060027F01227E1254
:104420007F0BE4FD914A1237E6123592EF6004F1FA
:104430002480F622E075F002A42484F9740F35F08C
:104440007B02FEAF0190339CE0FDAB05E4FCFD90E8
:1044500044FFEBF00236CE904671EFF0A3EDF09101
:10446000E1904671E0B40112A3E09041DFF07141A8
:104470009041DE7405F07FFE8060904671E064023A
:1044800070249041E2E0640270569041D9F090416E
:10449000DE7403F07E417FC6C006C007D1FDD007A1
:1044A000D00651D5F022904671E07034121A75EFA3
:1044B00064016029302E14121E6CEF600C121A7504
:1044C000EF600690467274FFF0C22E911E9041DE9E
:1044D000E060025162904672E0FF021E58121A7F9D
:1044E000229041E3E0FF91EEE49041E3F022AB073C
:1044F000E4FF1BEBC3940E501AD1EE1224C6000049
:104500000000EBB1DD1224C600000000EBB116E4A0
:10451000F07F0122E0FF75F00CA42474F582E434EE
:1045200035F58322D3900001E09400900000E094E0
:10453000005002A1DAC2ADE0FFA3E090466FF1CED9
:10454000900000F0A3F0D2ADF57DE57DB116E060FE
:104550007390466FF1AFFDB1DB12247ED312239D21
:104560005041B1EBE0FF6008F46005B1EBE014F0FE
:10457000B1EBE0600EE57DD1EF122462B1DB1224D5
:10458000BA800FE57DB116E4F0B1DB1224C600005D
:104590000000F1104E6008F110AA06F91226DFF1B2
:1045A000248021B1DBC083C082122462C006C00710
:1045B00090466F12652AD007D006122241D082D0D1
:1045C000831224BA057DE57DC3940E5002A14A9062
:1045D000466FE0FEA3E0FF121B1F22E57D75F00C85
:1045E000A42469F582E43435F58322E57D75F00C69
:1045F000A42473F582E43435F5832290430BECF068
:10460000A3EDF090430AEFF0FB90430D122462D12A
:10461000EE1224BAEBB1DD1224BAEBB1DDC083C0D7
:104620008212247E900000F1AFFD122234D082D09D
:10463000831224BA904311E0FF90430AE0FEB1EDEB
:10464000EFF090430BE0FCA3E0FDEE75F00CA4242A
:1046500071F582E43435F583ECF0A3EDF02290435C
:10466000D2126560EBF09043D774FFF09043D6E030
:104670009043D8F09043D8E0FFC3940E505EEFB162
:10468000DD122462E4FBF199704A9043D6E07E018A
:1046900070027E029043D8B114EEF0C0079043D46C
:1046A000E0FF7E006004F1D580027F0AE4FCFD900B
:1046B000430D1224BA9043D5E0904311F09043D2B9
:1046C000E0FCA3E0FDD007B1FB9043D8E004FF90ED
:1046D00043D7F0229043D8E004F080989043D7E08D
:1046E000FF22901217E07F0030E2027F0122EB757B
:1046F000F00CA4246DF582E43435F58322E47FD0F8
:104700007E07FDFC9043141224BAE4904318F02273
:10471000E57D75F00CA42471F582E43435F583E071
:10472000FEA3E022E51530E20FE51520E50AE515C8
:1047300030E0057F0112500622900AECEFF0E5759B
:10474000C394204004F12480F5E571C39420400314
:10475000E4F571C2ACF1C1EF700DE5757009900A16
:10476000ECE0FFF1BB8012900AECE0FFAE71057146
:1047700074182EF1E4EFF00575D2AC7F0122AB077F
:10478000E4FA1BEBC3940E500DD1EEF1EC6007EB95
:10479000B1DD1224BA0AAF0222FAF9F8C302239D4E
:1047A000E4FDFCFF021A02901217E05408FF22E019
:1047B000FEA3E0FFE4FC2280C581EE8FEF22F139F9
:1047C00022E5ED5401FF227B007A00790022CFF030
:1047D000A3EFF0E4227C007D0A02206F901217E024
:1047E0004404F022F582E43409F58322122462ECB9
:1047F0004D4E4F2220022C901217E030E10B124850
:104800002650067E007F0180047E007F00EF4E7000
:1048100012121C91EF700C121CC8EF70061240555A
:104820007F01227F0022A21822900AB2EFF0900AA4
:10483000B4EBF0900AB3EDF05402901240F012473E
:10484000F4EF7002C322900AB2E0B40411A3E0FBBB
:104850007D017F011183900AB27403F08013900AE6
:10486000B2E0B40505121C008007900AB311B01124
:1048700083900AB2E09003C1F0900AB4E090123F36
:10488000F0D322EB600875FF0153CDFD800675FF64
:104890000143CD02ED600553FBDF800343FB20EFB6
:1048A000600775FF0243E1402275FF0253E1BF221A
:1048B000E0FB7D01E4FF22121C007F0143FB107529
:1048C000FF0243E640EF600D75FF02E5E120E7FBE4
:1048D00043FB0D800343FB0E80FE75FF028FE32236
:1048E000901221E0701011F84FFFA3E04FFFA3E0FA
:1048F0004F7003D38001C322901223E0FFA3E02274
:10490000E4FF125006EF603FF1D631485009901293
:1049100023E0C394C040F17B017A127925314850DD
:104920000E11F85FFFA3E05FFFA3E05FF460E89083
:10493000122AE030E0057F01125006E4901221F0C7
:10494000F1D6E0FD121B882290422C12663FF090B7
:1049500042321224C6000000019042367401F0F584
:10496000FFE5D554C070051253D55002C322E4F5BB
:10497000FF53967F75FF0175D5047F3FFE12622DB0
:1049800075FF0143D508E4F5FF5394FBF5FF53840D
:104990007FF5FF7598FF904230E5F4F075F49C7553
:1049A000FF01A3E5E4F075E4257B017A4279361234
:1049B000660B904236E064016002416EF5FF904262
:1049C0002F7414F090423251B078011223C19042FA
:1049D000321224BAE5A730E1FB43A70290423251DC
:1049E000B0E5A730E005E47B018002E4FBFAF9F8CA
:1049F000EF4BFFEE4AFEED49FDEC48FC90423212CF
:104A000024BA90422FE014F070BA90423251B0783C
:104A1000101223AE7B6D7A4E79C6784112224FEF89
:104A20002439FFEE3430B1C2E4FBFA7901F81222E6
:104A3000DAEE547FFEE4FDFC125C8D90423251B000
:104A4000EB6FFFEA6EFEE8CDEFCDCCEECCECFF9045
:104A5000422CF1E5EF12203B90422CF1E5ED126B78
:104A60006890120FE030E606E4F5FF75968075FF5A
:104A700001E4F5D5904230E0F5F475FF01A3E0F5CF
:104A8000E4126695904236E0B40103D38001C3225C
:104A9000E0FB25E025E02401F582E43412F58312E1
:104AA00024BAEB25E025E02401F582E43412F583F5
:104AB000E0FCA3E0FDA3E0FEA3E0FF22903EBD12D8
:104AC00024BA903ECD7401F0E4A3F01263F175FFB7
:104AD00002E5E630E00E903ECE7401F0FB7A3E79BE
:104AE000CE12660B903ED81224C6002DC6C0E4F547
:104AF000FFF5A490120FF0903ECF7402F075FF0303
:104B0000903ECFE0FFF595EF14601314601C240273
:104B10007027903EBD51B0D19F903EC98016903E07
:104B2000C151B0D19F903ECA800A903EC551B0D1CC
:104B30009F903ECBE0903EDCF01267C6903EDCE0FA
:104B40007005126F35806390120EE004F0903ECF36
:104B5000F1EE903ECEE07019903ED851B0903ED428
:104B6000D15FC312239D5009903ED451B0A31224AB
:104B7000BA903EDCE0FF126647903ECCE0FF903EEC
:104B8000CFE0FDA2349231126774903ECEE07012F5
:104B9000903ED451B09044F21224BA903ECFE0FF40
:104BA000B1CA903ECFE051A3D16B12704C6002416C
:104BB000FD903ECEE07044A37402F075FF03903E7A
:104BC000CFF1DD7011903ED8B1A078011223AE90E4
:104BD0003ECF5190D16B12704C70E0903ED8F1CB2B
:104BE0002420FFEE344EB1C2E4FB7A04F9F8B1B0F0
:104BF00078011223AE903ED01224BA12658D400384
:104C000043F420A23492321266A6903ECEE024FFF6
:104C10009230903ED051B0126581F5BDE4F5FF753C
:104C2000E508126574E59B30E7FB12621875FF0119
:104C300043D504123F3AB17A1262327B017A3E794F
:104C4000CD1265B390120EE0B40103126424903EBD
:104C5000CDE0B40103D38001C322903FC51224BA32
:104C60001263F1903FDA1224C6002DC6C0E4F5FFAE
:104C7000F5A490120EF0A3F0903FD57402F075FFEA
:104C800003903FD5E0FFF595EF14601314601C24EA
:104C9000027027903FC551B0D199903FD1801690B6
:104CA0003FC951B0D199903FD2800A903FCD51B0C9
:104CB000D199903FD3E0903FDEF01267C6903FDE7F
:104CC000E07005126F35805390120EE004F0903FB3
:104CD000D5F1EE903FDA51B0903FD6D15FC31223A9
:104CE0009D5009903FD651B0A31224BA903FDEE008
:104CF000FF126647903FD4E0FFA3E0FDA23392315C
:104D0000126774A351B09044F21224BA903FD5E0D8
:104D1000FFB1CA903FD5E051A3D16B12705560022C
:104D2000817E7402F075FF03903FD5F1DD7016FFB0
:104D30007E04FDFC903FDAB1A578011223AE903FCE
:104D4000D55190D16B12705570DB12658D400343C5
:104D5000F420A23392321266A6903FDAF1CB2420DF
:104D6000FFEE344EB1C2E4FB7A04F9F8B1B0780139
:104D70001223AEC230126581F5BD9012137401F09A
:104D80007E127F01E4FD8F828E83EF2DF582E43E5B
:104D9000F583E0FC901213E02CF00DEDB412E72245
:104DA000FF7E04FDFCE0F8A3E0F9A3E0FAA3E0FB3A
:104DB00012224FE47B7DFAF9F81222DAEF2401FF88
:104DC000E43EFEE43DFDE43CFC229044F1EFF0E4DF
:104DD000A3B1A078011223AE9044F1E0FBD1A6F577
:104DE000831224BA901210E064806072E0C3947F52
:104DF0005039EBD1A6F583C083C08251B0EEC0E03C
:104E0000EFC0E0901210E075F004A4AEF0FBCAEE23
:104E1000CAEA3395E0F9F8D0E0FFD0E0FEC3EF9B9B
:104E2000FFEE9AFEED99FDEC98802B9044F1D1A510
:104E3000F583C083C082D15F901210E0F40475F056
:104E400004A4FFAEF0EE3395E0FDFCEB2FFFEA3E4D
:104E5000FEE93DFDE83CFCD082D0831224BA22E07A
:104E6000F8A3E0F9A3E0FAA3E0FB2290454E122458
:104E7000BA75FF0190454EA3E0FDA3A3126FAE8F5C
:104E8000E190454EA3A3E0FEA3126FA48FE29045EC
:104E90004EA3A3A3E0FF8FE322903FD60224BA9053
:104EA0003ED40224BAE025E025E02401F582E43472
:104EB00012229043E7126563EBF09043ED7401F02A
:104EC000C235123F26123F2F5005E5FC20E6F612B0
:104ED0006481BF0108E4F5FC75FC40800812648120
:104EE000BF0202D32212641D9043E8E0FF1267D391
:104EF00075FF0153D5DF53FAFB9043E7E0FF123F04
:104F0000489043E8E09043E7B4080CD1A5F583F15D
:104F1000CB2452B1BF8003E051A3D16B9043E9E0B1
:104F2000FF12682C75FF0175FF03759B04123F2665
:104F300075FC42E5FC20E105123F2F40F39043EA67
:104F4000E0F075FF03E59B20E705123F2F40F3E5F6
:104F50009B20E70D75FF03759B1F1256F5D2358018
:104F60004FF1C412660B9043E8E0FD90120FE05D34
:104F7000701C9043E7E0FFF1C4125A7090120FE0EA
:104F8000FF9043E8E0FEEF4E90120FF0B17A12620C
:104F9000E97B017A4379EB126433500FC39043EC01
:104FA000E094209043EBE0940340E6F1C41265B333
:104FB000126232303502C1BA9043EDE0B40103D33E
:104FC0008001C3227B017A4379ED22E0FCA3E0FD5E
:104FD000A3E0FEA3E0227B017A12792322E0F5957B
:104FE000E5F4540722E0FBA3E0FAA3E0F922E03362
:104FF000333354F8F5F422AE0712418FEE04FEEF7E
:105000008EF084AFF022EF600E123463AF82AE8375
:10501000E4FD123D8E8009121A6B71F5E433FF2214
:105020007F0122900A80122572D22AC2EBE5146019
:10503000024195E51530E202C32251E57134FAE4EC
:1050400012203BF1B051EB5407FF90093AF0125C8B
:105050009A900A83EFF0E51520E07271D540047F45
:10506000011106900A83E0FF7B017A0A7984123FDE
:1050700064E4337004D2EB4170900A83E02464123C
:105080007084E0FF900A84E0D39F4041D2EB125E2F
:1050900007A21792ED90094BE0601551E57134FAC3
:1050A000740112203B43150471B8795A71DDD32283
:1050B00090095AE070157B017A09795A7C597D84F0
:1050C0009043DE7464F0E4A3F0911CC32271D550C8
:1050D00005C236123E13D1D2E5D120E0FBE4F51033
:1050E000C21851EB5407C39403E49400503151E5C6
:1050F000E924B151DD51E4E924D851DD2FFFE43337
:10510000FED3EF9440EE64809480401351E57134F7
:10511000FA740212203B431504A21792EDD32251D8
:10512000E5E92408F9E43ACFE9CFF5118F1251E50A
:10513000E924B151DDF516AE11126BA951E5E92450
:10514000B2F9E43A8B1CF51D891E51E5E924D851CA
:10515000DDF51F51EBFDACF05460603451E5E924FE
:10516000D951DDFF125DC7C22A51CDFB7A009009EB
:105170005BE0FEA3E0FF7C007D1812206FEF2BFFA9
:10518000EA3EFEEF2414FBE43EFA7D027F0141601B
:1051900051EB540790093AF075140851E5D1E6F146
:1051A0008251E5E924D851DDFFAD16F18F90093A1F
:1051B000E0640370237B01FD519DD3713F50057462
:1051C00001121FE6E4F5FFF16D121F7C2428FBE4B9
:1051D00033FA7D03E4FF416090093AE06402702AEB
:1051E00051A0D3713F400574FF121FE6E4F5FFE5BF
:1051F000D25480440AF5D2121F7C2414FBE433FA03
:105200007D027F01714851FB8058E4FB7D01519D77
:10521000D3713F400574FF121FE6E4F5FF51EB44E4
:105220001045F07F0560027F0AEF547FFFE5D254FE
:10523000804FF5D2E4F5FF43D28051CDFD7C005183
:10524000EB441045F07E0060047F0A80027F05EF8A
:1052500025E0FFEE33FEEF2DFBEE3CFA7D017F01F2
:10526000714851EBFFAEF0A22A9229125BFD400675
:10527000A21792EDC32271B8795A71DD900A83E0CA
:1052800051E4E924E5F9E43AFAEF12203BA217923F
:10529000EDD2EBD322A21792EDD2EBC322FF710025
:1052A000900A80122552E924B1F9E43AFA121F7CDF
:1052B000FF900A80122552E924D8F9E43AFA121F25
:1052C0007C2FFFE433FEEF2401FFE43EFE900A80D2
:1052D000122552E924B2F9E43AFAE92407F9E43A4A
:1052E000FA021F7CFF900A80022552900A80122544
:1052F00052E92404F9E43AFA022138E4FB7D01FF83
:10530000E4F5FF75D102E5D120E0FBE4F5FFF5D12E
:10531000EF6008E4F5FF43D2808006E4F5FF53D246
:105320007FEB6006E4F5FF43D104ED6006E4F5FF92
:1053300043D10822E924E3F9E43A2233FEE0C39F93
:10534000EE6480F874809822900ABBEFF0ED24FEA2
:1053500060191460262402703BEB2402FFE43AFE3D
:105360007C007D5012206F7D60801E71C2C333CEE1
:1053700033CED8F9FF7C007D28800E71C2C333CEB6
:1053800033CED8F9FF7C007D64122081900ABCEEF8
:10539000F0A3EFF0900ABBE0125EB8C083C08212A7
:1053A000247E900ABDE02401900ABC1270431222B0
:1053B00034D082D0830224BAE490094BF07B017A86
:1053C0000922EB2401FFE43AFEEF780322C2EBA2AC
:1053D000ED9217C2EDE5F4C330E701D3229045CA40
:1053E0001225729045CA914C1244EE9045CA12257E
:1053F00052E402203BE514702171CD5005C23612F3
:105400003E13D1EED1D2E5D120E0FB431520531558
:10541000FEE4F510A21792EDD322C3229043DCECF8
:10542000F0A3EDF09043D912257271DD9043DC12A8
:105430006EB3F1A89043D9D1DF9043D9122552120F
:105440001F7CB4FF04E412203B9043D91225521272
:105450001F7CFF22C0E0C0F0C083C082C0D075D0E6
:1054600008C0FF75FF01E5D530E6047F028009E53D
:10547000D57F0030E7027F018F18E51864026002D3
:10548000A130E51412267F54A00154B30255180828
:1054900054BE0954C90A54D70B54F50C000056B732
:1054A00075FF0175C355151AE51A6002C1B7751469
:1054B00002C1B775FF0175C3F0751409C1B775FF57
:1054C0000175C35575140AC1B775FF0190094CE009
:1054D000F5C375140BC1B775FF01900939E0F5C329
:1054E000751401751A1490095B126ED46002C1B76D
:1054F00075140CC1B7AB1CAA1DA91EF182AD16AF65
:105500001FF18F51FB75FF00F16D43FA0475FF0029
:10551000125CB3751408C1B7C2EB751400431504CF
:10552000125DF94002C1B7E475F00112210CC1B758
:10553000E51864016002C1B7F1DB4002C1B7E510B4
:105540007022D1CBE0FF64556004EFB4540BD21845
:10555000AF77900959EFF0C13075100275FF0075F3
:10556000D908C1B7E5106402706E75FF01F5EA75E0
:10557000EAFF90093C122552E5D912203B12680837
:10558000125DB3900938EFF0F176E0900AE2F0E0B6
:10559000FFD394094025900938E0D39402400CEFE2
:1055A000D394AA7F0040027F01800D900AE2E0D3ED
:1055B00094407F0040027F01EF6004F164807190AD
:1055C0000AE2E0F5161267FD901222EFF075FF0077
:1055D0008516D9751003C1B7E51064036002C1B721
:1055E00090093C914CF1E2EF12203BF16475FF0011
:1055F000900938E0C39403E5D350055402FF8003BB
:105600005401FFEF602F30E111C3900946E094FF91
:10561000900945E094FF5018800FC3900948E0942A
:10562000FF900947E094FF5007E475F00112210C48
:10563000125CBAC1B7C236123E1375FF00D1D5E570
:10564000D120E0FBC2EB431502D1CBA3E0FF9012C7
:1056500024E0FEEF6ED1CAE0901223D1C4A3A3E0F0
:10566000901225D1C4A3A3A3E0FE901226E0FDEE84
:105670006D4F6016C390094AE094FF900949E09489
:10568000FF5007E475F00112210CC3900944E09427
:10569000FF900943E094FF5007E475F00112210CDC
:1056A000751000900938E0B403071516F176E51679
:1056B000F09003C4E516F0D0FFD0D0D082D083D0D4
:1056C000F0D0E032FEE0FDEE6D4FFF8512828511D5
:1056D0008322E4F5FFE5D154FE4402F5D122FF1206
:1056E0002552EF02203BE924B2F9E43AFA22D1F53F
:1056F0007F08021E67E5FA30E1FB75FC8075FF014B
:1057000053D5EFE4F5FC75FC40F15DE5FC20E6FBCC
:1057100022F1B07F02121E677F01123E55900AE30C
:10572000EFF0BF02028014900AE3E0B43312E4F019
:105730007F01123E55BF020D900AE37401F080050F
:10574000E4900AE3F0900AE3E0700B71D55005C2D3
:1057500036123E13D1EE900AE3E024FF2275FF03D8
:10576000E4F59122301805C2181260C422E5D25423
:10577000804414F5D222E5122407F582E43511F5B0
:105780008322E4F5FFE9126BA0EA540F42D622E42B
:10579000F5FF8FD4F5FFCFEDCF8FD522F0A3EFF03B
:1057A0007E1C7FD7E4FB7D01E49043D6F002465E89
:1057B000901223E0F4FFA3E06FFFA3E06FFFA3E0EC
:1057C0006FFF64556009EF644A6004EFB40A010F8B
:1057D000900939EFF022E4F51461F5E5F754C0249F
:1057E000FF22E92401F9E43AFA2230160C9033152D
:1057F000E07006FF1219BCC216301823AF7790096B
:1058000059E0FEEFC39E400AEF9ED394024010C2BF
:105810001822900959E0F42FD394014002C21822B3
:105820009003C5E0FCA3E04C70059003C58002C363
:1058300022EEF0A3EFF0D3229003C5123FED6009F2
:10584000CAEECAC9EFC91226DF22D2ADD2BD75FF9A
:1058500002758E71757C0975FF02E58E546F448068
:10586000F58E9045461224C60000000022C0E0C01C
:10587000F0C083C082C0D075D008C0FF75FF02E5BC
:105880008E30E43E75FF02E58E54EF4410F58E90A5
:105890004546122462124DBC9045461224BA90002F
:1058A00000E475F00112210CE57C30E0020551E5C1
:1058B0007C700D757C090577E577700205768002AE
:1058C000157C75FF02E58530E40875FF02438510FD
:1058D000057ED0FFD0D0D082D083D0F0D0E0327B14
:1058E000FF7D019043D67403F002465E1FEFC39420
:1058F0000E5009EF1245DD1224628005E4FFFEFD23
:10590000FC22E4FEEFC3940E5013EF124516E05D47
:105910007C00B505027C01EC2EFE0F80E7AF06226D
:105920007D02E4FF80DC7D017F033102AB07312083
:10593000EF2BFF22E4FD7F0380C8A2AD9228C2AD09
:10594000AF77AE76A22892AD22AD07AC06313AC34E
:10595000EF9DEE9C4008EF9DFFEE9CFE8013EDF462
:10596000FDECF4FCED2401FDE43CFCED2FFFEC3EEE
:10597000FE229003CAE0FEA3E0FF3149D3EF94C8B2
:10598000EE940022E490095AF090094B04F02212A0
:1059900053D5500431A04003301803D38001C322F3
:1059A000E5F754E024FF22AF14EFC36001D322EFE8
:1059B000C3940E500590093BEFF022E517540FFFFA
:1059C00022E517C394F0501F5317F031EAFE740F0D
:1059D000C39F4005EE940E400543170D8003EF4230
:1059E00017E517540FFF227F0022E517C4540FFE5E
:1059F000EF902FE4932E2231EAFFC3940E40027FF2
:105A00000DEF902FC693FF22EF30E303AF1322ADCB
:105A10001B201904EE30E00BE517C394F050205121
:105A2000428018E5196006FDE4F5198012E517C3F8
:105A300094F0500BE517540FFF600431F7AD07AF3A
:105A4000052290093BE0FDFFC3740E5169EFC4F8D5
:105A5000540FC868FFEEC454F048FEE51754F01226
:105A6000533E7F005002AF05229FFFE49400FE22C8
:105A7000904556EDF0901211E0F46005A3E0B4FFFC
:105A80000C9045587418F0A37413F0801090121104
:105A9000E0904558F0901212E0904559F0121F7CAA
:105AA0006401600261D0904556E0FE64086004EE37
:105AB000B404089045577428F08006904557743A0E
:105AC000F0EF124AA3122379E471D8EF24D8FFEE45
:105AD000343FFEED3493FDEC3416FC7B007A807984
:105AE000037800122DCC918D904559E0FF904558D8
:105AF000E0C35169E4FCFD12224FECC0E0EDC0E0D0
:105B0000EEC0E0EFC0E090455971D171D8D0E0FB14
:105B1000D0E0FAD0E0F9D0E0F8EB2FFBEA3EFAE96A
:105B20003DF9E83CF890455771D112224FEF2454CB
:105B3000FFEE340B124DC2E47BA87A16F9F8122D51
:105B4000CCCBEFCB904556E014605D14601B24FE77
:105B5000600C24FC707AE4F5FF75CE318006E4F524
:105B6000FF75CE21F5FF8BCF22E4FAE4F5FFEA249E
:105B700040F5CEE4F5FFEAFFC37407516974822F44
:105B8000F58274303EF583E471E0C39DF5CFE4F512
:105B9000FFEA2448F5CEE4F5FFEA90308271E02D6B
:105BA000F5CF0AEAB408C422E4F5FF75CE01F5FF8B
:105BB0008BCFF5FF75CE0EF5FFEB25E0F5CFE4F5C5
:105BC000FF75CE0FF5FFCFEBCFEB75F003A4F5CF4C
:105BD00022E0FFE4FCFDFE227B64FAF9F802224F8A
:105BE0009325E0FDE433FCEB75F010A4FFAEF0125A
:105BF0002081CDEFCDEBFFE4C313EF13224315015A
:105C00005315DF5108913D4004E4F5142243FA0492
:105C10005315FB30290491B0800A7F5591267F559A
:105C20009126D2EBD32275FF01E5D520E602C322EF
:105C3000E5FA540360FA75FF018FC3D322900AB9C5
:105C4000EFF090093AE0FF919A900ABAEFF09009CC
:105C50003AE024FD6013047008900AB87404F080E0
:105C60000E900AB87408F08006900AB87402F07FAB
:105C700001121E67900ABAE0FF900AB8E0FDA3E0A7
:105C8000FBE49043EAF0124EB250E9D322C8ECC8CC
:105C9000C9EDC9CAEECACBEFCB22EF24FD60068066
:105CA000007E018002E4FEAF0622123F4843FA0460
:105CB000E4F5FF53D1FD43D10122C236123E131247
:105CC00056D2E5D120E0FBE4F5FF75D90190093803
:105CD000E07F00B403027F0191AAD236123E13E4A2
:105CE000F510229003C9E0B4020D8F1B900A65E005
:105CF000F513121A43D322C322900AB512257290CB
:105D00000AB5122552E51BB12E1225521257E2B1E7
:105D10002D122552B147FAB12DB14EE513B12EB176
:105D200035B12DB140F9E43AFAE402203BE4122007
:105D30003B900AB522122552E92404F9E43AFA22EA
:105D4000122552E9240522E92402F9E43A22122517
:105D500052E92403F9E43AFA22E51754F0C4540F47
:105D60002FFFC3941040027F0FEF902FD493FF2298
:105D70007E10EE60091EEE902FD493B507F4EEC3AB
:105D8000940E40027E0DEE902FC693FF22C2AFEF1D
:105D90004215D2AF22C2AFEFF45215D2AF227F022A
:105DA000B1959003C3E09003C8F09003C304F0C31F
:105DB000940222EF24FE600C24FE600580007F0127
:105DC000227F02227F0322751401751A1390094C59
:105DD000EFF090093A7402F0ED90095B30E507E4CA
:105DE000F0A3743AF022E4F0A374E6F022B1F95083
:105DF00007E475F00112210C22C3900940E094FFE2
:105E000090093FE094FF22C3900942E094FF90097B
