:020000040000FA
:100000000202DF0218034100B8002202180B22226C
:0100100022CD
:07001300021813E4FFE1BC39
:07001B0002181B75C8012249
:030023000218239D
:03002B0002182B8D
:030033000218337D
:03003B0002183B6D
:030043000218435D
:03004B0002184B4D
:030053000218533D
:03005B0002185B2D
:030063000218631D
:03006B0002186B0D
:10007300021873BB010689828A83E0225002E722B9
:10008300BBFE02E32289828A83E49322BB010CE54F
:100093008229F582E5833AF583E0225006E9258239
:1000A300F8E622BBFE06E92582F8E222E58229F57D
:1000B30082E5833AF583E49322BB010689828A832E
:1000C300F0225002F722BBFE01F322F8BB010DE53B
:1000D3008229F582E5833AF583E8F0225006E92583
:1000E30082C8F622BBFE05E92582C8F222C5F0F8D4
:1000F300A3E028F0C5F0F8E582158270021583E0CD
:1001030038F022A3F8E0C5F025F0F0E582158270FF
:10011300021583E0C838F0E822EF2BFFEE3AFEED3C
:1001230039FDEC38FC2275F008758200EF2FFFEEE5
:1001330033FECD33CDCC33CCC58233C5829BED9A10
:10014300EC99E58298400CF582EE9BFEED9AFDEC6E
:1001530099FC0FD5F0D6E4CEFBE4CDFAE4CCF9A8B4
:100163008222B800C1B90059BA002DEC8BF084CFBC
:10017300CECDFCE5F0CBF97818EF2FFFEE33FEED93
:1001830033FDEC33FCEB33FB10D703994004EB99BD
:10019300FB0FD8E5E4F9FA227818EF2FFFEE33FED0
:1001A300ED33FDEC33FCC933C910D7059BE99A4005
:1001B30007EC9BFCE99AF90FD8E0E4C9FAE4CCFB1D
:1001C3002275F010EF2FFFEE33FEED33FDCC33CC71
:1001D300C833C810D7079BEC9AE899400AED9BFDFA
:1001E300EC9AFCE899F80FD5F0DAE4CDFBE4CCFA0D
:1001F300E4C8F922EF5BFFEE5AFEED59FDEC58FC23
:1002030022EB9FF5F0EA9E42F0E99D42F0E89C451F
:10021300F022E8600FECC313FCED13FDEE13FEEFC9
:1002230013FFD8F122E8600FEFC333FFEE33FEED87
:1002330033FDEC33FCD8F122E0FCA3E0FDA3E0FEA8
:10024300A3E0FF22E0F8A3E0F9A3E0FAA3E0FB2296
:10025300ECF0A3EDF0A3EEF0A3EFF022A8828583E8
:10026300F0D083D082120276120276120276120244
:1002730076E473E493A3C583C5F0C583C8C582C878
:10028300F0A3C583C5F0C583C8C582C822E0FBA31C
:10029300E0FAA3E0F922F8E0FBA3A3E0F925F0F0EC
:1002A300E582158270021583E0FA38F022EBF0A3A1
:1002B300EAF0A3E9F022D083D082F8E493701274B9
:1002C3000193700DA3A393F8740193F5828883E4DB
:1002D300737402936860EFA3A3A380DF75812F0279
:1002E300094A9000E551B0AE071FEE60129000E896
:1002F30071031176FE9000E57103EE11BC80E822D4
:10030300E475F0018090900A12EEF0A3EFF09000F4
:100313004FE064016002619CC3900A12E0940850AC
:100323000BE4FF9153900A12918780ECE4F50DFBE7
:1003330071C5AF0C12103DE50DC39408504771C34E
:10034300E50D7F0071BDEF29F9EA3EFA9000E8510F
:10035300B07B017A0979007FFF51E5E50DFEE424C6
:10036300FFFFE43E71BD8F828E83118F9009FFF0F2
:100373007B017A0979009000FBE50DF0AD0C1210BA
:1003830063050D80B2900050513BE42FFFEE34081B
:10039300120D139000500214BC900054E0FEA3E031
:1003A300FF71BE900A12E0FDA3E09000D1CD1208C8
:1003B300D4900054EEF0A3EFF022FE902001419080
:1003C3007B007A00791012103675FF031176F5D38E
:1003D30075FF0390000171F190000271F190000329
:1003E30071F175D40175FF03E5D55402FF22118F16
:1003F300F5D375FF03229000F1E0FEA3E0FF9130F7
:1004030091539000F3513BEF2401120D109000F330
:100413005153900A18914D900A18E07002A3E070AE
:100423000BFF7E087109120F4212142822B108CD66
:1004330024FFCD34FFFCC3ED9FFFEC9E541FFE74DD
:10044300082F121416FF229000DF74FFF5F001F05D
:10045300B108541FFC74082DF58274203CF583EF1A
:10046300F0902006E0B42019A3E0B4001490200516
:10047300E02401FF902004E03400541FF0A3EFF0C8
:1004830022902006E475F00101F09000BA515390D8
:1004930000BE51B0110AF11EEF6004110F80F71274
:1004A3000F0560099000BA513B7810D1249000BA2F
:1004B300D1209000BA513BE480219000C11208C7BB
:1004C30045F0601B9000BE5190E94A600C1176FF25
:1004D300D1279000BF918780E1E4FFD12780DBF132
:1004E300B79000AF7401F0229000E3E0FF81039026
:0704F3000A1BE014F0E022F7
:10050800902006E0FCA3E0FD902005E02DFD902062
:1005180004E03C22D1C8EF541FFF12148DA37401CC
:10052800F0120F4C9000DCE0FCA3E0FDAE0478056F
:10053800CEC313CE13D8F9FF9000DFEEF0A3EFF08F
:10054800ED541FA3F0A3E4F09000F1F0A3F0C390E2
:1005580000DDE094209000DCE09400407D914A901A
:1005680000E1E0FEA3E0FF9000F1EE8FF011F090C3
:1005780000DFE07004A3E06406700AD1C89000DFD1
:10058800E48FF011F0D1C89000F1E48FF011F0126F
:100598000FFCEF600512148A8005E49000DEF090ED
:1005A80000F1121371701D91309000E3EFF0910388
:1005B80091EB91EB9000DFE07002A3E0604891EBD3
:1005C800914A80F071F971F971F99000DFE07002D9
:1005D800A3E0603271F9914A80F09000DC91878045
:1005E8000A9000DCE07002A3E0600BD1C891039090
:1005F80000DC914D80EB120FFCEF600512148A802D
:1006080005E49000DEF09000DEE06002A12C1214F8
:10061800AB71099000F3413B513B78085115E4E573
:10062800C820E2FB8FEB227F01F1BC900A1C740109
:10063800F0900A1CE06032120FF4D1BC900A1CEF53
:10064800F0120849D1AB9000ACEFF0120849900ABB
:100658001CE054011213BB60D8A3E0F460D3EF3060
:10066800E7CFE4900A1CF080C8F1E87F9FD127D13A
:10067800BC9000ADD1BA9000B2D1BA9000B3F1B538
:100688009000ABE0F4601BA3E0F460169000B2E0C9
:10069800FD541F240FA3F0EDC413540744809000A9
:1006A800B2F022F1E87FD7D1277FFFD127D1C090C0
:1006B80000ABEFF07FFFD127E5C820E2FBAFEB22CC
:1006C800900081E0B4082CA3E0B40027120F2E7B21
:1006D800017A0179009000CA120F45F161120F2EBC
:1006E800E42FFFEE3408120D13120F28E490008156
:0806F800F0A3F0900083120F43
:10070000DB9000835153900081E475F0013106FEC7
:10071000740025F0F58274013EF583E0FF227F012D
:10072000F1BC300216120FF4D1BC900A1DEFF0128A
:100730000849900A1DE020E002C202300219D1AB44
:100740009000ACEF1213BB600BA3E0F46006EF3037
:10075000E702C202120849E4FFF1BCA202E433FF3F
:10076000229000C351539000C751B0110AF11EEFFF
:100770006004110F80F7F1E47F03120F1E600990EF
:1007800000C3513B7810D1249000C3D1209000C306
:10079000120F349000CA1208C745F06011D1BC9006
:1007A00000C75190EF11BC9000C8918780E51208F6
:1007B00049E4FF8007EFF0120849E4FFEFB40104B9
:1007C00043FE202253FEDF229000ABE020E014F134
:1007D000E47F3DD1277F2AD1277F80D1277FA6D1F3
:1007E00027F1B7227F01F1BC9000B0E051B9080AAF
:1007F00004081214081715081C17082C3008313487
:10080000083636083B3700000824531AEF851A8053
:10081000802F531BEF8008531BDF8003531B7F8502
:100820001B90801D531CDF851CA08015531DFE806E
:100830000D531DEF8008531DBF8003531D7F851D81
:10084000B07F0CDFFE2212062712149FEF70FA9081
:1008500000B2E0F4600B900A1B7406F01204F27010
:10086000FB9000B0E01202B9088404088C140891CF
:100870001508961708A63008AB3408B03608B53707
:100880000000089E431A10851A80802F431B108099
:1008900008431B208003431B80851B90801D431C45
:1008A00020851CA08015431D01800D431D1080086C
:1008B000431D408003431D80851DB0900A1B740CAE
:1008C000F01204F270FB2274FFF5F0020106E0FD65
:1008D0009000D1E4F0A3EDF09000CCEEF0A3EFF0A7
:1008E000A31202B09000D111C745F060549000CE21
:1008F0001202901200769000D3F09000CF1204877D
:100900007D80ED60DF3141EE7C0030E7027C0190BC
:1009100000D3E05D7B0060027B01EB6CFCEF25E027
:10092000FFEE339000CCF0A3EFF0AF04EF600C903B
:1009300000CCE06410F0A3E06421F0EDC313FD806F
:10094000C19000CCE0FEA3E0FF2275FF03759E027C
:100950009017FAE493900A0FF075FF02E5E654034E
:100960006002618B7510DE7511AD7512BE7513EFE7
:10097000C2AF75FF0275E404F5E4751AFF751BFF3D
:10098000751CFF751DFF7516FF7517FF7518FF7530
:1009900019FF75FF0253E6BFD11A1210DAB11BEF2F
:1009A00064016002618290180893FE740193FF90C5
:1009B000007FEEF0A3EFF0F5828E83E493FE7401E6
:1009C00093FFC3EE9480500280047E807F008E14DB
:1009D0008F15B1F7FFF5828E83740293F51E7403B1
:1009E00093F51F740493F508740593F50974069341
:1009F000F50A740793F50BC201EF4E700241E4EF64
:100A0000F4FFEEF44F700241E4E514451EFEE515D7
:100A1000451FFFE5084EFEE5094FFFE50A4EFEE5DE
:100A20000B4F4E700241E4E51FF4FFE51EF4FEE5B6
:100A300015F4FDE514F44EFEED4FFFE509F4FDE578
:100A400008F44EFEEF4DFFE50BF4FDE50AF44EFE13
:100A5000EF4D4E700241E47F03718EE50B24FFFFE2
:100A6000E50A71BC640370227F02718EE50924FFE0
:100A7000FFE50871BCB402127F01718EE51F24FFEF
:100A8000FFE51E71BCB40102D2012001577F017144
:100A90008E71B59000D1E51EF0E51FF13B71A07F8E
:100AA0000271AB9000D1E508F0E509719E7F0371FA
:100AB000AB9000D1E50AF0E50B719E7F01718E903D
:100AC0000A10E0FEA3E0FF7BFF7A187900E4251509
:100AD0009000D2F0E51434E89000D1719F4EC370BD
:100AE00001D39201300109F1ACEF6401600261822F
:100AF000D20091FB7B017A007964B1D8741BF012AB
:100B00000761900064E0B4800B9153EF70061214FB
:100B100046EF6002C20030006530011AB1F7F5827D
:100B20008E83740C93FE740D93FF90007DE06E70C5
:100B300003A3E06F604890005012025F00001800AD
:100B400091FBF128F12EEF2401B110B1D27404F021
:100B5000120761900087B10A9000871214BC9000C0
:100B600081F14590004F04F012051C7440D3950CA0
:100B7000400C1203C3AF0C12103D050C80EDE4FFD6
:100B8000F186E4F510F511F512F513021800AEFF29
:100B9000EE54CFFEEFC454F024804EF5FF22A3F0B4
:100BA00011D8900A10EEF0A3EFF022718E900A1087
:100BB000E0FEA3E0FF7BFF7A80790022347F8F8202
:100BC000F583E49322900000EEF0A3EFF0A312026D
:100BD0003B900008120253900006E0FFA3E0900053
:100BE0000CCF806090000C121371605EC3EF9440D4
:100BF000EE94004006A37440F0800590000EEFF0E4
:100C0000B1FFE0FFB1D8EFF090000812023B1207ED
:100C10006190000EE0FFC390000DE09FF090000C8B
:100C2000E09400F090000812024790000EE4FCFDF2
:100C3000FE12011C900008120253914AB1FF11CE1E
:100C4000900000EEF0A3EFF0809A900000E0FEA389
:100C5000E0FF2291FBB101900006E4F07405F13B46
:100C600091F0C006C00791FBEF2407B110B10190CD
:100C70000006E4F0A37414F0D007D00691F0C0068B
:100C8000C007B107B101D10940067EFF7FFF800692
:100C900090006512023B900006EEF0A3EFF0D00743
:100CA000D00691F0D109402F91FBEF241AFFE43ECA
:100CB000FEED3401FDE43CFCB10190006512023B05
:100CC000EF2401FFE43E900006F0A3EFF0900A1637
:100CD000E0FEA3E0FF91F0900069E0FEA3E0FF904A
:100CE0000A16E06E7003A3E06F7F0060027FFF22B0
:100CF00071C5900A16EEF0A3EFF0229000A6020252
:100D00003B9000020202539000A612023BEF241B0C
:100D1000FFE43EFEE43DFDE43CFC22E49000AAF04A
:100D20007B017A007995121378900097E0FF741197
:100D3000D39F5077E4FFFEFDFC7B017A0079FE90A3
:100D400000CAF0A37402F01207619000FEE0FEA357
:100D5000E0FFE4FCFDB1CC91FBEF2402B110B1CC7B
:100D60009000B5E024FFFF9000B4E034FFFEE4FC07
:100D7000FD9000A61202471201F79000FCEEF0A3CE
:100D8000EFF09000A61202479000FCE0FEA3E0FF07
:100D9000C39000B5E09FFF9000B4E09EFEE4FCFD30
:100DA00012011CB1CC9000AA7401F09000AAE0FBE3
:100DB0006017E4FFFE7D02FC900097E024EFF9F855
:100DC00012022890008F120253AF03229000A60255
:100DD00002537B017A0079839000CAE4F0A3229148
:100DE000FBEF2401B110B1D27404F0120761B10716
:100DF000F128900081E14590007FE0FEA3E0227B96
:100E0000017A00790F90000E22E47FFF7EFFFDFC47
:100E1000900065120247D3020204E4900A1EF0908B
:100E20000A1EE0FFD3946F501EEF2410FFF198903C
:100E30000A1EE0FEE42EF582E4344FF583EFF090D5
:100E40000A1EE004F080D87B017A4F79009000D12F
:100E5000E4F0A37470F07F0F7E1D11D8EF4E7F0079
:100E600070027F01901218EFF024FF22900A09EB24
:100E7000F0900A05120253900A0512023BD1C3906A
:100E80000A09E06F603B12000A12071EEF600512AC
:100E9000000F80F5F105600B900A0512023B7810F7
:100EA000120624900A05120620900A05F134900AD1
:100EB00009E0FF1206271207B79000AF7401F0D3C4
:100EC00022C322900A0012025312000A12071EEFD8
:100ED000600512000F80F51207E47F03F11E600B1E
:100EE000900A0012023B7810120624900A001206A3
:100EF00020900A00F1341206BC900A041207B59043
:100F00000A04E0FF227F011207BCD2021207E87F29
:100F10000612062711491207E89000AEE0FF1206FC
:100F2000279000B1E06402229000870202539000F3
:100F30008702023B12023BE4020627A3F07F0F7EEA
:100F40001D22900A187408F0A3E4F022F1429000E8
:100F5000F312025F00000000E4902004F0A3F0A36D
:100F6000F0A3F07B017A2079089020011202B0E40E
:100F7000902000F0227F0F7E1D11D09000D8120229
:100F8000909000DB01CEAB07E4FF9000AAE0600781
:100F9000F1D8D16CE433FF2275FF03E4F59712100A
:100FA00021E59720E1FB75FF03AF9922E4900A1A2F
:100FB000F09000AAE0601B90008F12023BE4FBFA65
:100FC0007902F8D31202045009F1D8D1C3900A1A59
:100FD000EFF0900A1AE0FF229000A612023BEF24E5
:100FE000FFFFEE34FFFEED34FFFDEC34FFFC22E4A6
:100FF000FCFDC1C31207E87F05020627E4FFFEFDE2
:10100000FC900083120E137F0040027F012275FFC7
:10101000037597011121E59720E1FB75FF03AF9957
:101020002275FF038F9875FF0322113675FF03E5C4
:10103000D5F45402FF2275FF0375D4022275FF0315
:10104000EF543F4480F5D1E5D520E20AE5D520E014
:1010500005E5D530E1F1E5D55403FF75FF0375D5FE
:101060000580D375FF03ACD5EC20E13C75FF03EDA3
:10107000543FF5D175FF03E9F5D375FF03EA540F2B
:10108000FF9000FBE0C4547044804FF5D2E5D520BA
:10109000E205E5D530E0F6E5D55401FC75FF0343E4
:1010A000D40275FF0375D505AF042212000A12079A
:1010B0001EEF600512000F80F57F011207BCD202FF
:1010C0001207E87F061208461207E87F011206277A
:1010D0007F03120846E4FF0207BC7B017A0079B067
:1010E0007F0351E47A0079B97F0851E47A0079B638
:1010F0007D027F0951847B017A0079B47D027F0BE8
:1011000051849000B471716006BEFF16BFFF135189
:10111000F35002800451FC80099000B4E4F0A37401
:1011200040F051F3500280089000B17403F0800643
:101130009000B17402F09000B0E01202B9115904AD
:10114000116414116C15117417118A301192341135
:101150009A3611A2370000117F75FF015316EF85F3
:1011600016FD804775FF015317EF800E75FF015381
:1011700017DF800675FF0153177F8517C9802C750F
:10118000FF015318DF8518CA802175FF015319FE2E
:10119000801675FF015319EF800E75FF015319BFBB
:1011A000800675FF0153197F8519CB1208497F11FD
:1011B00051DEE4FF710612062F9000AE7402F0902B
:1011C00000B2E0247F600904701651EB740A8007B6
:1011D0001207C851EB7458F09000B17403F051FC41
:1011E0009000B3E0F4600241829000B6E0FEA3E01C
:1011F000FF64104E70069000B3740EF0EF64204E42
:1012000070069000B3740FF0EF64404E70069000CB
:10121000B37410F0EF64804E70069000B37411F058
:10122000E4B5070AEEB401069000B37412F0E4B519
:10123000070AEEB402069000B37413F0E4B5070A8F
:10124000EEB404069000B37414F0E4B5070AEEB4EB
:1012500008069000B37415F0E4B5070AEEB4100662
:101260009000B37416F0E4B5070AEEB420069000BF
:10127000B37417F0E4B5070AEEB440069000B374F7
:1012800018F001AB900A0AEFF0A3EDF0A31202B040
:10129000900A0BE06047901218E06013900A0AE091
:1012A0002410FF120F98900A0C120290EF801790F2
:1012B0000A0AE06401900A0C7007120290748080A0
:1012C0000512029074FF1200BC900A0D1204879060
:1012D0000A0BE014F0900A0AE004F080B322EF4415
:1012E00020F5FE227D0151847B01227F1051DE908A
:1012F00000AE229000B9E024FE24FD229000B474D8
:1013000001F0A3E4F022900A14EFF0E4A3F09000BF
:10131000B9E0FFB40209740F716974B9F0800CEF81
:1013200064047044743D71697479F01207E4900AA2
:1013300014E060079000B8E0FF80027FAB12062740
:10134000120849900A14E09000B8F07016900A153F
:10135000E0D39400400D7FFF120627900A15E01499
:10136000F080EAE4FF1207BC22900A15F09000B862
:1013700022E0FEA3E0FF4E229000ADE01200BC9000
:1013800000B2E09000011200CE9000B3E0900002A5
:101390000200CEAB05E4FCFD020E6C9000ED1202E3
:1013A000B0E4FCFDC0079000ED1202909000F0E068
:1013B000FF120DD8EFF0D007020761F09000ABE00C
:1013C000FFF42212000A12071EEF600512000F80C0
:1013D000F5229000AFE0FF22E49000AFF0229012DF
:1013E00018E024FF22901218E060057F10020F9889
:1013F0007FFF22902004E0FEA3E0FF24089116FD69
:10140000EF2401FFE43E541F902004F0A3EFF0A36B
:1014100012044DAF0522F58274203EF583E0229040
:101420002006E0FEA3E0FF22902000E0045403F039
:101430007F0033333354F8FEEF2408F974203EFA6A
:101440007B01A30202B0900054741DF0A3740FF04E
:10145000120DDFE490004FF012051C90006BE0FECF
:10146000A3E0FF900054E06E7003A3E06F7F006084
:10147000027FFF22EFB40109D2AD75FF0143AE40F8
:1014800022C2AD75FF0153AEBF221206C89000DC28
:10149000E4F0A3EFF022E5C85402FF75C80222E58C
:1014A000C85404FF22E5C85401FF22900A18E0FE48
:1014B000A3E0FFC3E49FFF74089EFE22120253E4E0
:1014C000FB7A08F9F890005012023B1201658F0C6C
:0114D00022F9
:1017FA00060AFFFCFFFF02184E026EAE19A37FB85D
:10180A00822D1C161311101000026ED25A2D576128
:10181A00766520362E313000FF026B921A341A395F
:10182A00FF024951EF90183793901900730A203636
:10183A004CE577FF22EFF5772243CF401C41751B19
:10184A00B50259C975819F75FF03759E0212192049
:10185A00023328022FAB9029F3E47E019360F4A3AC
:10186A00FF543F30E509541FFEE493A360010ECFF5
:10187A0054E0B4E00EEFFAEEF9A3A3A3A3DAFDD97C
:10188A00FB80D654C025E0604B5026E493A3F8545D
:10189A0007240CC8C333C4540F4420C8834004F43B
:1018AA0056800146F6DFE480B001020408102040A9
:1018BA0080E493A3FAE493A3F8E493A3C8C582C887
:1018CA00CAC583CAF0A3C8C582C8CAC583CADFE924
:1018DA00DEE78085E493A3F8E493A34003F680014E
:1018EA00F208DFF40218631958195D196C19711995
:1018FA00761CB41CB9FFC0777419C0E0C082C083DB
:10190A0075770AE5FF54CF4490F5FF22C077741922
:10191A00C0E0C082C083757720E5FF54CF4490F5BC
:10192A00FF22C0777419C0E0C082C083757736E59C
:10193A00FF54CF44A0F5FF22C0777419C0E0C082DB
:10194A00C08375774CE5FF54CF44B0F5FF229081F0
:10195A00AA21169081BE211690C032211690C7E1A5
:10196A00211690D9C4211690D9DC21169083BA2168
:10197A001690DA2421169095E3211690DAD22116D0
:10198A0090E7FF211690A5BC211690E93121169007
:10199A00E94D211690DAB3211690CC92211690CBFC
:1019AA00B1211690DE98211690AEC8211690E9DD75
:1019BA00211690F15F211690F12A211690CF41212C
:1019CA001690AFB1211690CF33211690EC44211610
:1019DA0090DDD1211690DBB6211690CD1E211690EE
:1019EA00EAF3211690EA66211690EB9E211690ECF6
:1019FA00FB211690EB3B211690C17D211690C7342E
:101A0A00211690D166211690F1EF211690F22D2120
:101A1A001690F272211690F2A6211690F2F1211672
:101A2A0090F388211690F338211690CC84211690D1
:101A3A008E59211690D93621169081F32116909746
:101A4A00BC211690F3AF211690F3D9211690EC7EA3
:101A5A00211690F414211690ECC6211690F43E211A
:101A6A001690D228211690ECCC211690D21B211662
:101A7A0090EC8D211690F450211690EE4D2116907F
:101A8A00EE3E211690EEE7211690F472211690F49C
:101A9A0073211690F478211690F41A211690EC8C82
:101AAA00211690ED86211690EF52211690EECF2145
:101ABA001690EE6D211690EEE1211690F0A22116F5
:101ACA0090BA62211690BD29211690E6CD21169072
:101ADA00E6F2211690E73E211690D267211690DC95
:101AEA007E211690D2B3211690DD67211690DCEA8A
:101AFA00211690DA7F211690D7B6211690D8572151
:101B0A001690D90F211690D7E721169098DB211647
:101B1A0090F5B9211690F700211690E2A3211690AC
:101B2A00E3EA211690FBC5211690F94D211690FB88
:101B3A00F4211690E239211690E7BD211690FC3562
:101B4A00211690809721169080FB21169080002103
:101B5A001690815F211690C46521429099EF214227
:101B6A0090C928214290C031214290C066214290FA
:101B7A00A45521429084602142909F4E214290892F
:101B8A006D21429080A221429081BB214290C9924C
:101B9A00214290CB3B214290CCF2214290D0E221CB
:101BAA004290C96521429092A3214290D19121424B
:101BBA00909ACB214290D2DA2142908534214290E8
:101BCA00D590214290D682214290A839214290A4F0
:101BDA0058214290D68F214290A1C3214290D70129
:101BEA00214290D77C214290D726214290D7FE21CC
:061BFA004290A7C1214248
:101C000090891D214290D87F214290D8C6214290D0
:101C1000A6EA214290D940214290D98E214290A536
:101C20007E214290800021429080CC214290D99523
:101C3000214290D9A7214290D9C0214290D471214C
:101C400042909CCB214290D118214290DB37214217
:101C500090DB3C214290DB9D214290DBC6214290EB
:101C6000DBEC214290DB4D2142909D202142909956
:101C700073214290B46721429081F12142909943AF
:101C8000214290B161214290DCEE214290DE792127
:101C9000429098CA214290E014214290E06C214287
:101CA00090E101214290A547214290E138214290E4
:101CB000DDEF214290E1B9214290ADCE214290B0BA
:101CC000EB214290894D214290ABC6214290B9D080
:101CD000214290B02E214290E204214290E20C2158
:101CE0004290E222214290B521214290B3D121427B
:101CF00090E24E214290E26A214290B2CF2142907E
:101D0000B028214290D1D4214290E29F214290E21A
:101D1000A5214290E2AB214290BA20214290D1CE3F
:101D20002142908B9A214290E37C2142908BD221D8
:101D300042908A75214290A492214290A20F2142A2
:101D400090A439214290E3AE214290A76B214290AA
:101D5000898D2142909EA7214290E8B0214290A80F
:101D600050214290A833214290E9CE214290891E11
:101D7000214290EA1B214290DF52214290C9BA21B0
:101D80004290D45B214290D392214290CD022142D5
:101D900090EA5B214290D4AC214290BEC621429091
:101DA000EAFD214290BE3E214290BA2D214290B6DA
:101DB00026214290B706214290D0D5214290C0D230
:101DC000214290848B214290D070214290C0922178
:101DD0004290B70C214290A199212C90A1A3212CD3
:101DE00090A8D7212C90A94C212C90A94D212C9062
:101DF0008000212C90A953212C90B06A212C90B006
:101E000079212C90B091212C90B0B3212C90B0C0AE
:101E1000212C90ACC3212C908173212C9094C02153
:101E20002C90BAA9212C9088CE212C90BB61212C1A
:101E300090BDD0212C90BF2E212C90BCE7212C905E
:101E4000B950212C90C92A212C90C931212C90A95C
:101E50009B212C90CB6E212C90CDA8212C90CE17BD
:101E6000212C909532212C90CFA5212C90CFA72109
:101E70002C90D101212C90D445212C90D459212C87
:101E8000909749212C90D4A8212C90CD6D212C9095
:101E9000D53D212C90B2A0212C90B2A2212C90D71C
:101EA0001F212C90D786212C90932A212C90947955
:101EB000212C90D73D212C90BE1A212C00E709F649
:101EC00008DFFA8046E709F208DFFA803E88828C54
:101ED00083E709F0A3DFFA8032E309F608DFFA802E
:101EE00078E309F208DFFA807088828C83E309F0D6
:101EF000A3DFFA806489828A83E0A3F608DFFA8090
:101F00005889828A83E0A3F208DFFA804C80D2806D
:101F1000FA80C680D4806980F28033801080A680E9
:101F2000EA809A80A880DA80E280CA803389828A37
:101F300083ECFAE493A3C8C582C8CCC583CCF0A3D4
:101F4000C8C582C8CCC583CCDFE9DEE7800D8982B5
:101F50008A83E493A3F608DFF9ECFAA9F0EDFB22FB
:101F600089828A83ECFAE0A3C8C582C8CCC583CC39
:101F7000F0A3C8C582C8CCC583CCDFEADEE880DB2D
:101F800089828A83E493A3F208DFF980CC88F0EF9A
:101F900060010E4E60C388F0ED2402B4040050B915
:101FA000F582EB2402B4040050AF23234582239032
:101FB0001F0D73BB010689828A83E0225002E7224B
:101FC000BBFE02E32289828A83E49322BB010B8950
:101FD000828A83F8E0C828F0E822500327C722BB92
:101FE000FE07F8E3C828F3E8228A838982E4932273
:101FF000BB010CE58229F582E5833AF583E02250A6
:1020000006E92582F8E622BBFE06E92582F8E222EF
:10201000E58229F582E5833AF583E49322BB010941
:1020200089828A83F8E028F022500327F722BBFE3A
:1020300005F8E328F3228A838982F8E4932822BBF7
:10204000010FF8E58229F582E5833AF583E028F06F
:10205000225009C58229F8E58226F622BBFE09C571
:102060008229F8E22582F222F8EA2583F583E993B2
:102070002822BB010689828A83F0225002F722BB04
:10208000FE01F322F8BB010DE58229F582E5833AD2
:10209000F583E8F0225006E92582C8F622BBFE054A
:1020A000E92582C8F222EF8DF0A4A8F0CF8CF0A42D
:1020B00028CE8DF0A42EFE22BC000BBE0029EF8D91
:1020C000F084FFADF022E4CCF875F008EF2FFFEEBE
:1020D00033FEEC33FCEE9DEC984005FCEE9DFE0FCC
:1020E000D5F0E9E4CEFD22EDF8F5F0EE8420D21C27
:1020F000FEADF075F008EF2FFFED33FD400798506F
:1021000006D5F0F222C398FD0FD5F0EA22C2D5EC35
:1021100030E709B2D5E4C39DFDE49CFCEE30E71541
:10212000B2D5E4C39FFFE49EFE1220B8C3E49DFD38
:10213000E49CFC80031220B830D507C3E49FFFE481
:102140009EFE22C5F0F8A3E028F0C5F0F8E5821560
:102150008270021583E038F022A3F8E0C5F025F084
:10216000F0E582158270021583E0C838F0E822BBE2
:10217000010A89828A83E0F5F0A3E022500687F005
:1021800009E71922BBFE07E3F5F009E3192289826A
:102190008A83E493F5F074019322BB0110E5822950
:1021A000F582E5833AF583E0F5F0A3E0225009E9F2
:1021B0002582F886F008E622BBFE0AE92582F8E2CD
:1021C000F5F008E222E5832AF583E993F5F0A3E927
:1021D0009322BB010DC58229C582C5833AC58302FE
:1021E00021435011C58229F808E5F026F618F5F0CC
:1021F000E58236F622BBFE11C58229F808E225F0F9
:10220000F5F0F218E23582F222F8E58229F582E54E
:10221000832AF58374019325F0F5F0E4933822BB0B
:10222000010A89828A83F0E5F0A3F0225006F709BB
:10223000A7F01922BBFE06F3E5F009F31922F8BB5B
:102240000111E58229F582E5833AF583E8F0E5F0AE
:10225000A3F0225009E92582C8F608A6F022BBFEA9
:1022600009E92582C8F2E5F008F222EF2BFFEE3AE9
:10227000FEED39FDEC38FC22C3EF9BFFEE9AFEED3C
:1022800099FDEC98FC22E88FF0A4CC8BF0A42CFCF8
:10229000E98EF0A42CFC8AF0EDA42CFCEA8EF0A4CC
:1022A000CDA8F08BF0A42DCC3825F0FDE98FF0A45B
:1022B0002CCD35F0FCEB8EF0A4FEA9F0EB8FF0A452
:1022C000CFC5F02ECD39FEE43CFCEAA42DCE35F08E
:1022D000FDE43CFC2275F008758200EF2FFFEE3321
:1022E000FECD33CDCC33CCC58233C5829BED9AEC89
:1022F00099E58298400CF582EE9BFEED9AFDEC99F3
:10230000FC0FD5F0D6E4CEFBE4CDFAE4CCF9A882FC
:1023100022B800C1B90059BA002DEC8BF084CFCEA1
:10232000CDFCE5F0CBF97818EF2FFFEE33FEED335F
:10233000FDEC33FCEB33FB10D703994004EB99FB26
:102340000FD8E5E4F9FA227818EF2FFFEE33FEED0F
:1023500033FDEC33FCC933C910D7059BE99A40071C
:10236000EC9BFCE99AF90FD8E0E4C9FAE4CCFB2233
:1023700075F010EF2FFFEE33FEED33FDCC33CCC8FC
:1023800033C810D7079BEC9AE899400AED9BFDEC07
:102390009AFCE899F80FD5F0DAE4CDFBE4CCFAE446
:1023A000C8F922EF5BFFEE5AFEED59FDEC58FC2216
:1023B000C3E49FFFE49EFEE49DFDE49CFC22EB9FB2
:1023C000F5F0EA9E42F0E99D42F0EC6480C864803A
:1023D0009845F022EB9FF5F0EA9E42F0E99D42F02D
:1023E000E89C45F022E8600FECC313FCED13FDEE12
:1023F00013FEEF13FFD8F122E8600FEFC333FFEEB7
:1024000033FEED33FDEC33FCD8F122BB01078982AA
:102410008A830224995005E9F8022943BBFE05E9A5
:10242000F802294F89828A830224A5BB010DE58227
:1024300029F582E5833AF5830224995007E925823C
:10244000F8022943BBFE07E92582F802294FE582FD
:1024500029F582E5833AF5830224A5BB0107898229
:102460008A830224F15005E9F8022985BBFE05E9BB
:10247000F802299122BB010DE58229F582E5833A14
:10248000F5830224F15007E92582F8022985BBFE75
:1024900007E92582F802299122E0FCA3E0FDA3E0F0
:1024A000FEA3E0FF22E493FC740193FD740293FE0B
:1024B000740393FF22E0F8A3E0F9A3E0FAA3E0FBA2
:1024C00022BB010DE58229F582E5833AF5830224DA
:1024D000B55007E92582F802295BBBFE07E9258292
:1024E000F8022968E58229F582E5833AF583022915
:1024F00075ECF0A3EDF0A3EEF0A3EFF022A8828537
:1025000083F0D083D08212251412251412251412C0
:102510002514E473E493A3C583C5F0C583C8C582BD
:10252000C8F0A3C583C5F0C583C8C582C822BB0156
:102530000789828A830224FD5005E9F802299DBBA0
:10254000FE05E9F80229B622BB010DE58229F582D4
:10255000E5833AF5830224FD5007E92582F8022934
:102560009DBBFE07E92582F80229B622F5F0C58257
:10257000A4C582C5F0C583A42583F58322A4258242
:10258000F582E5F03583F58322E0FBA3E0FAA3E0D2
:10259000F922F8E0FBA3A3E0F925F0F0E58215822B
:1025A00070021583E0FA38F022EBF0A3EAF0A3E919
:1025B000F022E493FB740193FA740293F922BB01B5
:1025C0000789828A830225895005E9F80229CFBB51
:1025D000FE05E9F80229E189828A830225B2BB015E
:1025E0001A89828A83D0F0D0E0F8D0E0F9D0E0FAFE
:1025F000D0E0FBE8C0E0C0F00225A95016E9F8D011
:1026000083D082D0E0F9D0E0FAD0E0FBC082C08372
:102610000229D8BBFE16E9F8D083D082D0E0F9D0E9
:10262000E0FAD0E0FBC082C0830229EA22BB010DA0
:10263000E58229F582E5833AF5830225895007E989
:102640002582F80229CFBBFE07E92582F80229E19D
:10265000E58229F582E5833AF5830225B2BB0120A4
:10266000E58229F582E5833AF583D0F0D0E0F8D011
:10267000E0F9D0E0FAD0E0FBE8C0E0C0F00225A924
:102680005018E92582F8D083D082D0E0F9D0E0FA62
:10269000D0E0FBC082C0830229D8BBFE18E92582A6
:1026A000F8D083D082D0E0F9D0E0FAD0E0FBC0824D
:1026B000C0830229EA22D083D082F8E49370127496
:1026C0000193700DA3A393F8740193F5828883E4BA
:1026D000737402936860EFA3A3A380DFD083D082DA
:1026E000E4937012740193700DA3A393F874019393
:1026F000F5828883E4737402936C70127403936D93
:10270000700C7404936E70067405936F60DDA3A360
:10271000A3A3A3A380CA8A838982E473E573258275
:10272000F582E5723583F583B572048582732210D4
:10273000AF06858273F57222858273F572D2AF225D
:10274000EC8EF0A4CCC5F0CCCDF8EFA4CEC5F02D26
:10275000FDE43CFCE8A42EC8C5F03DFDE43CFCEFE4
:10276000A4FFE5F028FEE43DFDE43CFC22E3F5F0A7
:1027700009E208B5F06BDFF58067E3F5F009E608DC
:10278000B5F05EDFF5805A87F009E608B5F052DF54
:10279000F6804E87F009E208B5F046DFF680428801
:1027A000828C8387F009E0A3B5F036DFF6803288AB
:1027B000828C8387F009E493A3B5F025DFF58021AF
:1027C00088828C83E3F5F009E0A3B5F014DFF5808F
:1027D0001088828C83E3F5F009E493A3B5F002DF5F
:1027E000F402289C808780E9809080D4803E801508
:1027F000806E807E809D80B7808D80A380518074A4
:10280000803C0228A889828A83ECFAE493F5F0A33D
:10281000C8C582C8CCC583CCE493A3C8C582C8CC44
:10282000C583CCB5F076DFE3DEE1807089828A83F0
:10283000E493F5F0A3E208B5F062DFF4805E8982EC
:102840008A83E0F5F0A3E608B5F051DFF5804D8905
:10285000828A83E0F5F0A3E208B5F040DFF5803C22
:1028600089828A83E493F5F0A3E608B5F02EDFF4BD
:10287000802A8002805789828A83ECFAE493F5F0FB
:10288000A3C8C582C8CCC583CCE0A3C8C582C8CCC8
:10289000C583CCB5F006DFE4DEE280007FFFB5F053
:1028A000020F2240027F012289828A83ECFAE0F53E
:1028B000F0A3C8C582C8CCC583CCE0A3C8C582C874
:1028C000CCC583CCB5F0D5DFE5DEE380CF89828A45
:1028D00083ECFAE0F5F0A3C8C582C8CCC583CCE48C
:1028E00093A3C8C582C8CCC583CCB5F0AFDFE4DE06
:1028F000E280A988F0EF60010E4E60ABED2402B4D7
:1029000004005098F582EB2402B40400508E232377
:102910004582239027E473EF4E6012EF60010EEDC5
:10292000BB010B89828A83F0A3DFFCDEFA2289F0E7
:102930005007F709DFFCA9F022BBFEFCF309DFFC1E
:10294000A9F022E6FC08E6FD08E6FE08E6FF22E222
:10295000FC08E2FD08E2FE08E2FF22E6FB08E6F9D9
:1029600008E6FA08E6CBF822E2FB08E2F908E2FA08
:1029700008E2CBF822E493F8740193F9740293FA15
:10298000740393FB22ECF608EDF608EEF608EFF67A
:1029900022ECF208EDF208EEF208EFF222D083D03A
:1029A00082E493F608740193F608740293F60874AF
:1029B0000393F6740473D083D082E493F208740115
:1029C00093F208740293F208740393F2740473E6AA
:1029D000FB08E6FA08E6F922EBF608EAF608E9F65B
:1029E00022E2FB08E2FA08E2F922EBF208EAF20836
:1029F000E9F2224103C1004103C000E002020000ED
:102A00001413E002020002120FE00102000954E078
:102A10000102000AA5E00102120B00E00502120CFF
:102A2000120F02060A4106B1060114004106B00168
:102A30004106AE01C114011900011700C12B413D2F
:102A40003700413D2C00413D3500413D3600413DC0
:102A500033FF413BFF00C117C102412B2400412B32
:102A6000B2FF412BA900C100412BB300412BB400A0
:102A7000412BAA01C105412B230041438000C137EE
:102A80004339990000004139980041399C004303C3
:102A9000B70000004303B40103B7422D7B980743FE
:102AA00040DB0000004340D80140DBE0020212118D
:102AB00001B0E00102121300E00102129400E005EF
:102AC0000213BC01B006060A4142B0024142AF0DFA
:102AD0004142B1086020348E42DB0100000000005A
:102AE00000000000000000000000000000000000E6
:102AF0000000000000000000602034AE090000006B
:102B000000000000000000000000000000000000C5
:102B10000000000000000000000000005037D1005D
:102B2000000000000000000000000000000000C1E4
:102B30000E015000C10BC10C41422905C118C11A38
:102B4000C11F42238C984041238E00433501000071
:102B5000004234FF00006020234B00000000000012
:102B60000000000000000000000000000000000065
:102B7000000000000000000000004320009F010052
:102B800050200300000000000000000000000000D2
:102B90000000016127260E000201050101020E0658
:102BA00001010004070401020300000400060805F7
:102BB00004020803140400040014050108090805B0
:102BC000020803140500040014050006001408029E
:102BD000020A0A08020301000800040014080006A3
:102BE000001408010800140A020D000A0A020C0071
:102BF0000A0A02080B0A0A01050C0E0A0004001456
:102C00000A000600140A010800140E000A0D110E35
:102C1000020804140E000400140E000600140E0135
:102C20000800140E010500140E020F0E1211000C04
:102C30000C0E110208041411000400141100060007
:102C4000141101080014110105001411000A0014E8
:102C50001102050E12120208041412020C0F0012C7
:102C600000040014120006001412010800141201DE
:102C700005001412000A0014120205001412000CC0
:102C8000001413020C0100000209000000021000F1
:102C900000140209010014020B00131400071000B5
:102CA00014020A0100140204001414020C0014148B
:102CB000020D010014020E00141402100100602421
:102CC000281E0200FFFF0602FF000602FF000301AC
:102CD000FF002300FFFF03000000130000000200BC
:102CE00001010300000046277501000201040242B1
:102CF00027FB1D5941288200412A300141288800C4
:102D0000432885012843432879012843410B0F00BC
:102D1000602009B7EDFFFFFFFFFFFFFFFFFFFFFF91
:102D2000FFFFFFFFFFFFFFFFFFFFFFFFFFFFFFFFB3
:102D3000FFFFFF7F4F3820FF319B0EFF31A905FFBA
:102D400031AE090310014938154C6966656C696E2E
:102D5000650042381E5A014138300041381401C123
:102D60003B4238110000E0020213C1003EE00502C0
:102D700013FA003E040405E0020213FF0013E00C06
:102D800002140100000302000300020405060AE029
:102D90000502140D0013FF0405E0020214120000E6
:102DA000433C16000000423C1D0000443C19071043
:102DB0002232463C1040464A4E5256C121413852BA
:102DC0000041384F0042430A000041430900C1421C
:102DD00043399500000041397E00413235014239C6
:102DE0002E000041392500453E4700000000004507
:102DF0003E420000000000413DDB00413DD7004164
:102E00003DD100413DDA00413DD200413ED6004176
:102E10003ED50044426B0000000041388A005B3818
:102E20006E00000000000000000000000000000034
:102E300000000000000000000000000041386DFFAD
:102E4000C14C413699005035F400000000000000EC
:102E500000000000000000000045360400010204EC
:102E600080473614000000000000004336110000C7
:102E700000413D9900413D9F00413D9E00423D9AE9
:102E80000000413DA300413DA200423DA0000042A0
:102E90003D9C0000413D980041376400C1514C3DCC
:102EA000A4100000000000110000000000C1544107
:102EB00009F320C156007265736574006373610085
:102EC000476F7420697421006C6D73006C6D650030
:102ED000776472005A57005A57206170703A0D0A91
:102EE00000204669726D776172652049443A20007E
:102EF0000D0A2056657273696F6E3A20005479701E
:102F00006520276120637361203C3130206469674C
:102F10006974206B65793E2720616E64207072654C
:102F2000737320456E7465722E003E20001E211EB4
:102F300026C2D5E830E70FB2D5E4C39BFBE49AFA8A
:102F4000E499F9E498F8EC30E717B2D5122F67123C
:102F50002311E4C39BFBE49AFAE499F9E498F8801E
:102F60000312231130D50DE4C39FFFE49EFEE49DC0
:102F7000FDE49CFC22789FE4F6D8FD9000007F00E1
:102F80007E10E4F0A3DFFCDEFA9043B4A3E583C334
:102F900094204011FEAF829020000E0FE48002F0DA
:102FA000A3DFFCDEFA12192002186022325A4342D3
:102FB0005F746573745F696E746572666163655F83
:102FC000706F6C6C000D0A4368616E6E656C7320E7
:102FD0006172653A000D0A09203E001EB74170700B
:102FE00045765363686564756C6572001E4E1E53AA
:102FF0000000010000000017060000000018060095
:10300000000006180600000001180600000008185D
:103010000600000001010100000001150000000091
:10302000010204000000010B04000000060B040074
:103030000000080B04000000010D00000000010E5C
:1030400004000000011000000000010F000000005B
:103050000405010000000406060000000407080043
:103060000000020500000000030501000000010847
:1030700005000000000800000000010C0100000035
:1030800001120500000008030200000001220000F8
:1030900000000816080000000808000000000116E3
:1030A00001000000061601000000050903000000F1
:1030B000050A0000000005030200000005040000EE
:1030C0000000061B06000000011B06000000061C95
:1030D00007000000061D07000000070508000000AB
:1030E000081E07000000082000000000081F000064
:1030F0000000082100000000081106000000011176
:10310000060000000822000000000619060000006A
:10311000061E00000000062000000000061A08003D
:103120000000061401000000071401000000081B45
:103130000600000007240000000008140100000041
:103140005555555555555555555555555555553351
:1031500033333333333333333333333333333388EA
:1031600088888888888888888888888888883F248C
:103170001E16110E0B09070504030201F0C8A791E2
:10318000776760463835323024222014000101026E
:1031900002030304040505060607075E25858E590C
:1031A0005586725A73989F6C7A5E6C55989F8625E7
:1031B000858E59725A737A1DF91DFE00011E031E79
:1031C000081E0D00000000000000000000000000CC
:1031D00000000000000000000000000000000000EF
:1031E0000000878888888888888888888888888870
:1031F00088882626262626262626262626262626AB
:103200002626000DFA20000DDC7000000000020CE4
:1032100000013F3F3F040404404040000000004CD8
:103220006966656C696E6500496E76616C696420DB
:1032300067726F75700019BC19C119C619CB19D501
:1032400019E919EE19F31D721D7C1D811D861D8B58
:103250001D901D951D9F1C3C1C4B1C501C551C5A41
:103260001E711E761E7B1E801E851A7A1A7F1AB664
:103270001C8C1C961CAF1E2B1E301E351E581E5D4E
:103280001E621E671E6C1E8A1E8F1E941E991E9E35
:103290001EA3FF02011BC91D685A0120032503500C
:1032A000CBE4FD7C0CAB050DEB901816938F828E52
:1032B00083F00FBF00010EDCEC7F03228F828E8330
:1032C000E4F0A3740651DE740A51DEA3E4F0EF24A7
:1032D00004F582E43EF583E4F0A3746DF022F08FF0
:1032E000828E83A3A322AD07901217E054FCF0E076
:1032F000FFED54307E0060027E02EF4E901217F018
:10330000E0FFED7E0030E0027E01EF4E901217F0FC
:10331000229003C97402F09003C0E0FF121DE05137
:10332000E69003C97405F02275FF0275E404E4F524
:10333000E4F1D8C330E001D34017E5E630E0129065
:103340001217E0540C600A121BF1901217E054F7A8
:10335000F0C213F1D830E039E5E65403640170316E
:10336000121A2012571A401F90123FE0600BE0140F
:10337000F07006122F75D170F0901215E020E00267
:10338000812312487C8123122F75D213D170F081D2
:1033900023122F751262359003C2EFF0901200E0F5
:1033A000B47A14901214E0B49C0D9003C2E0FF6450
:1033B000056004EFB40330E49003C8F09003C8E064
:1033C000FFC394805013E42FF582E43412F583E4B4
:1033D000F09003C8E004F080E3901200747AF0905B
:1033E0001214749CF0D20F121C194003121C147B8F
:1033F000017A1279107D017F01121C0F7B017A1274
:1034000079117D017F21121C0F7B017A1279127DC7
:10341000017F22121C0F7B017A1279297D017F0224
:10342000121C0F901229E0B401057F01126B7D126E
:103430001A25126235121A1B9003C2EFF012199965
:10344000121A169003C2E0FFB40602800C30130477
:103450007F0280059003C2E0FF121DDBEF24FFB363
:10346000923775FF0253E6BF123F246003D170F01C
:1034700012492E121A2F12382D300F0A7B017A12A0
:10348000792B7D10F180121A6B901215E0C330E099
:1034900001D3400E20370B71117B017A2B79BB12BF
:1034A00019DA90122AE030E00280033013047F0121
:1034B000D1A5D2AF203702A13C121C3212449B127C
:1034C0001DE5121C0A40F29003C1E06042121A4D41
:1034D000EF700712522194004035E51470FCE51599
:1034E00020E502F112121B6AEF70FAD17F5004D16D
:1034F0009150057F01123CC09003C1E0B40204E486
:10350000FF80099003C1E0B403057F0112488112D6
:103510001A43E51530E1A21271A54002E4F0E51569
:1035200020E505D1521258FB1271CAC0E0D160905B
:1035300003C4E0FDD0E0FF12198F81B91248CD120B
:1035400048A55002D1C1D177EF70069003C1E06069
:1035500053902B24E0704D121A4DEF700712522138
:1035600094004040E51470FCE51520E502F11212CC
:103570001CA0121B6AEF70FAD17F5004D191500544
:103580007F01123CC09003C1E07011D177EF600C55
:1035900012381E901217E04408F080089003C1E032
:1035A000FF121BEC121C3212449B121BFBF1F8128F
:1035B0003806EF7022F1E0EF6005121BF18036D182
:1035C00077EF70311261DAEF702B12477FEF6401F1
:1035D0007023123817801E901217E020E217F1E0D6
:1035E000EF600DD17F5004D1915005E4FF123CC033
:1035F000E49003C7F0201005121A4380221251E90B
:103600009003BAE0FEEFC39E4005EF9EFF80089056
:1036100003BAE0F4042FFF7406D39F5002C210E5F2
:103620001530E1231271A54002E4F0E51520E5050F
:10363000D1521258FB1271CAC0E0D1609003C4E0AD
:10364000FDD0E0FF12198F121BBA121A5712491936
:10365000A13C9003C3E0FD75F0AA9003CD12257D37
:10366000ED75F002A424BCF9740335F0FA7B012255
:10367000901215E054FE22F1E8B401027F0122907D
:103680000001740193B40007E493B41802C322D379
:10369000227F017E009017FCE4935EFE7401935F2D
:1036A0004E24FFB322EF600DD152AF82AE83E4FD12
:1036B0001259018009121A52F112E433FF227F01DC
:1036C00022E4FFD1A5EF60497B017A127923124DE4
:1036D000075009901223E0C394C040EC7B017A129A
:1036E0007925124D07500F123FE15FFFA3E05FFF06
:1036F000A3E05FF460E690122AE030E0047F01D19D
:10370000A5E4901221F07B017A127923E0FD121BCF
:103710007422E51470221255F65004C233F13AF1C6
:10372000D0125F53E5D120E0FB4315205315FEE492
:10373000F510A21292EDD322C322904377E5F4F064
:10374000E0547FF5F47F827E00125E8A125D125093
:1037500005E5FC20E6F6303308904377E04480F539
:10376000F4125E86125D125005E5FC20E6F675FF48
:1037700001E5D520E702C322E5F4D330E601C322F8
:10378000900AAC1225A9900AAFEDF0E4A3F0ED5435
:10379000FE900AAFF0602FE4FFD1A5BF0128900A88
:1037A000AC122589124D07501D900AADE475F00248
:1037B000122143900AB0E02402F0900AB0E0FF909A
:1037C0000AAFE06F70D87F01D1A5900AB0E0FF2268
:1037D000124F677F08021DD675FF02901215E02276
:1037E000F1E8B402027F01229003C7E07F0022C209
:1037F000AFEFF45215D2AF229003C7E0FF121DEADB
:103800009003CCEFF0229003CCE07F0070027F01A8
:1038100022E49003C7F0229003C77401F0229003C2
:10382000C77402F0221237E870027F0122B11E1223
:103830001A3E121B0B121994121C37F1247002212C
:103840000E7FFF121AC5900A731225A97E007F0908
:103850003164BF540D7E007F0A3164BFA5047F012F
:1038600080027F009003C0EFF0900A73122589E96F
:103870004A4B701D7F04FE3164EF2401FFE433FEE8
:10388000C3740112556A7F0050027F019003C0EF9C
:10389000F09003C0E06401704C900A73122589F126
:1038A000867A0A7979F15B900A79E0FEA3E0900AC2
:1038B0007312722BF9E43AFA900A761225A9E924D8
:1038C00008F9E43AFEAF017B017A0A7979F15B905D
:1038D0000A79E064047004A3E064056008121ACA5F
:1038E0009003C0EFF09003C0E0701B7E007F04C027
:1038F00006C374139404FE7414127067D006F1E9C1
:10390000E4FFFE121ACF9003C0E0FF121AF2F12476
:103910007F0060027F011219FD121A07121962124C
:1039200071427923121B6FF1E1FE4FFDA3E0FC4DC4
:10393000FDA3E0FB4D600BEE5FFFEC5FFFEB5FF480
:1039400070031236C1901221E0FF901225E06F90B3
:1039500003BBF0021C0575F011A4240BF9740035AB
:10396000F0FEAF01E4FCFD90416D1224F1D1DA517B
:1039700049EF6004D1E980F7D1CB6402600A90413D
:103980006D122499781031A690416D31A190416D4E
:10399000F112513D904171EFF071DC904171E0FF07
:1039A0002212249978081223E5E4E5C820E2FB8F6F
:1039B000EB227F0171E09043797401F0904379E04C
:1039C000602EF118513D904379EFF0715F512C90CA
:1039D0003BF3EFF0715F904379E05401F1A460DCB8
:1039E000A3E0F460D7EF30E7D3E4904379F080CCE4
:1039F000518C7F9F31AA513D903BF4513B903BF954
:103A0000513B903BFAEFF071DC903BF2E0F4601B2D
:103A1000A3E0F46016903BF9E0FD541F240FA3F0DF
:103A2000EDC41354074480903BF9F022518C7FD7AA
:103A300031AA7FFF31AA5141903BF2EFF07FFF3175
:103A4000AAE5C820E2FBAFEB227F0171E03035141C
:103A5000F118513D90437AEFF0715F90437AE02086
:103A6000E002C235303517512C903BF3EFF1A460E2
:103A70000BA3E0F46006EF30E702C235715FE4FFAC
:103A800071E0A235E433FF227F0171E0903BF7E063
:103A90001226B63AAF043AB7143ABC153AC1173AEF
:103AA000D1303AD6343ADB363AE03700003AC953DF
:103AB0006CEF856C80802F536DEF8008536DDF8035
:103AC00003536D7F856D90801D536EDF856EA080E2
:103AD00015536FFE800D536FEF8008536FBF800347
:103AE000536F7F856FB07F0CDFFE22903E60122403
:103AF000F1903E641225A9D1DA5149EF6004D1E971
:103B000080F77153F13BD1D36402600A903E60129A
:103B10002499781031A6903E6031A1903E60122425
:103B200099E48022903E67F18D45F0601D903E64DF
:103B3000122589E94A600D121FB3FF31AA903E6534
:103B4000F17F80E0E4FF31AA80DA71DC903BF6740B
:103B500001F0227F0171E0D235518C7F0631AAF14C
:103B6000D4EF70FB903BF9E0F4600A904378740660
:103B7000F0F13370FC903BF7E01226B63B98043B23
:103B8000A0143BA5153BAA173BBA303BBF343BC43E
:103B9000363BC93700003BB2436C10856C80802FE8
:103BA000436D108008436D208003436D80856D90C8
:103BB000801D436E20856EA08015436F01800D43EC
:103BC0006F108008436F408003436F80856FB09013
:103BD0004378740CF0F13370FC2231AA715FE4FF7A
:103BE000EFB4010443FE202253FEDF229041721203
:103BF00024F19041721224993167904176E06F6010
:103C000038D1DA5149EF6004D1E980F77153F13BC3
:103C1000D1D36402600A904172122499781031A6BF
:103C200090417231A1904172F112904176E0FF71A2
:103C3000DA903BF67401F0D322C322D1DA5149EF76
:103C40006004D1E980F77153518C7F0131AA7F0361
:103C500031AA715FE4FF8088903E691224F1903EA2
:103C60006D1225A9D1DA5149EF6004D1E980F7D16D
:103C7000CB6402600A903E69122499781031A690B4
:103C80003E6931A1903E69F112903E70F18D45F090
:103C9000600E513D903E6DF195903E6EF17F80E952
:103CA000715FE4FF61E0903BF2E020E01251887F19
:103CB0003D31AA7F2A31AA7F8031AA7FA671DA22FC
:103CC00090433AEFF0E4A3F0903C00E0FFB4020927
:103CD000740FF12B74B9F0800CEF6404703F743DE5
:103CE000F12B7479F0518890433AE06007903BFFE4
:103CF000E0FF80027FAB31AA715F90433AE0903BD6
:103D0000FFF0701590433BE0D39400400C7FFF31EF
:103D1000AA90433BE014F080EBE4FF71E0227B01CA
:103D20007A3B79F77F03F19C7A3C79007F08F19C1C
:103D30007A3B79FD7D027F09121C0F7B017A3B796A
:103D4000FB7D027F0B121C0F903BFBE0FEA3E0FF0C
:103D50004E6006BEFF16BFFF13F1AC50028004F1A7
:103D6000B58009903BFBE4F0A37440F0F1AC500245
:103D70008008903BF87403F08006903BF87402F0E2
:103D8000903BF7E01226B63DA3043DAE143DB615B8
:103D90003DBE173DD4303DDC343DE4363DEC3700CC
:103DA000003DC975FF015368EF8568FD804775FFC9
:103DB000015369EF800E75FF015369DF800675FFBF
:103DC0000153697F8569C9802C75FF01536ADF85BE
:103DD0006ACA802175FF01536BFE801675FF01537F
:103DE0006BEF800E75FF01536BBF800675FF0153AB
:103DF0006B7F856BCB715F7F11F11EE4FF91C0314A
:103E0000B2903BF57402F0903BF9E0247F60090426
:103E10007015F143740A800691A6F1437458F0902E
:103E20003BF87403F0F1B5903BFAE0F46002C1C9CD
:103E3000903BFDE0FEA3E0FF64104E7006903BFA5D
:103E4000740EF0EF64204E7006903BFA740FF0EFA2
:103E500064404E7006903BFA7410F0EF64804E7030
:103E600006903BFA7411F0E4B5070AEEB40106902F
:103E70003BFA7412F0E4B5070AEEB40206903BFA7E
:103E80007413F0E4B5070AEEB40406903BFA741418
:103E9000F0E4B5070AEEB40806903BFA7415F0E4B6
:103EA000B5070AEEB41006903BFA7416F0E4B507B5
:103EB0000AEEB42006903BFA7417F0E4B5070AEE58
:103EC000B44006903BFA7418F0813B7F0171E051D9
:103ED0008C7F0331AA903BF8E02275FF02E5E430C5
:103EE000E10675E40675E40322E51530E20FE515F9
:103EF00020E50AE51530E0057F011236A5227E1285
:103F00007F0BE4FDF1C4D1DA5149EF6004D1E980BF
:103F1000F722122499E421AA518C7F0521AAEF44AB
:103F200020F5FE229003C2E064012290433BF09012
:103F30003BFF22904378E014F0E022518C903BF557
:103F4000E0FF227F10F11E903BF5229039B112253F
:103F500089AE02AF017B017A3979C09040B9740211
:103F6000F09040B61225A9E4FCFDC0079040B612BF
:103F700025899040B9E0903E70F1DAD0078158E48D
:103F800075F001022143AE02AF017B012274FFF5FF
:103F9000F0022159FF122589EF0220727D01121CC7
:103FA0000F7B0122F0903BF2E0FFF422903C00E016
:103FB00024FE24FD22903BFB7401F0A3E4F022FEDA
:103FC000AF01E4FDAB05E4FCFD904176EBF061EC64
:103FD000E4FF61E0E5C85404FF22FFE4F0A3EFF042
:103FE00022901223E0FFA3E022126C7874FFFDFC04
:103FF000221272905002F17F2275FF0275E404755F
:10400000E40175E4022275FF0275E404E4F5E4229C
:104010001251E99003CAEEF0A3EFF0221261BDEF56
:1040200070087FA07E0FFDFC01BCF1E4903D2DEFF8
:10403000F07406D39F4067E0605A31367E00903DB1
:104040002DE014FDE5F0A805088005C333CE33CE7E
:10405000D8F9FF312F311B903D2E1224B5C000C07E
:1040600001C002C003903D2DE014FF74107E00A833
:1040700007088005C333CE33CED8F9FFEE3395E081
:10408000FDFC3127122286D003D002D001D00012CD
:10409000226B80283136AFF07E00312F801E903D9C
:1040A00035E0FF600FE4FCFDFEFB7AF47901F812C5
:1040B000228680087F007ED07D077C00311B31493D
:1040C0007E417F75C006C0073113D180D007D0066E
:1040D00071621261CEEF703A3121D31223D44007BE
:1040E000E47F01FEFD80223121122311311B3113A7
:1040F000E47B01D1C250143113C3EF9401FFEE945D
:1041000000FEED9400FDEC9400311A3113121BF601
:10411000111022903D2E022499FDFC903D2E022488
:10412000F1903D2E122499E47BE87A03F9F8227C81
:10413000007D64022740313EEF75F0A08422900399
:10414000BBE064AA2411FFF022D1D0EF600FE47F1E
:10415000A07E0F3119901217E054E7F02290121749
:10416000E0FF74E0D39F4005E02410F022EF6410DC
:10417000901217F0229158903D32E0B4020AD1C952
:10418000903D327403F04113903D32E06403706956
:10419000903D34E06056903D36E0B40105121BDDE1
:1041A000800A903D36E0B40203121BE2903D34E0F9
:1041B00014F0E0601F313EEF75F04684E5F075F0D5
:1041C00064A4FFEF24A0FFE5F0340FFEE433FDE428
:1041D00033FC8007E47FA07E0FFDFC903F1E12247D
:1041E000F17E417F75E4903F22F06162903D327430
:1041F00001F051137FFD021DF4903D32E0B4040F35
:10420000D1D0EF6007127070E4FF011C121BDD2299
:104210007401F0903D32E0640270227C437DCF7FD8
:10422000011219F8E4FBFAFD7FFF1219E47E417FC9
:1042300075C006C007D179D007D0066162903D32C3
:10424000E064037017FFFE3119903D36E07C437D3A
:10425000CFB402047F0380117F02800D903D32E0D5
:10426000B4040B7C437DCF7F041219F82175903D77
:1042700032E0B4010BD1C99158715AE4903D32F04B
:1042800022904376EFF0C22B901221E060207E1244
:104290007F0B123964BF01087FFF121DF47F0022DB
:1042A000903D32E06008901221E0FF121DF4123EB2
:1042B000FE904376E07002613AE4903D36F0903D26
:1042C00032E060025110904376E0FFB40107903D68
:1042D0003674018009EFB40310903D367402F0711A
:1042E0005A903D347404F08049EF640470369012A3
:1042F00021E0701FD22BD15EEF7010715AF1CB7E8E
:10430000127F0B7D01123FC4123F06903D327404B0
:10431000F0803A9003C2E0B40505E4F0121BD871B6
:104320005A7F0022904376E064027021903D34F081
:10433000715A903D327402F08013E4903D36F0D112
:104340005EEF6003123EFE903D327401F051139017
:104350003D32E07F0060027F0122901217E054039B
:10436000F022716A903D37EFF022903F1CEEF0A3EF
:10437000EFF07FFFA31224B5E8494A4B6050903F0D
:10438000237403F0903F23E0FEC3940E5040EE915F
:104390008DE07032903F23918B7405F0C007903F01
:1043A0001E122499903F171224F1903F22E0903F73
:1043B0001BF0903F1CE0FCA3E0FDD007B174903FE0
:1043C00023E004FF8008903F23E004F080B62290B1
:1043D0004338EFF0A3EDF09158904338E0B4011268
:1043E000A3E0903D33F0715A903D327405F07FFEAA
:1043F000805F904338E064027022903D36E06402B2
:104400007055903D2DF0903D327403F07E417F75E4
:10441000C006C007D179D007D0066162904338E06A
:104420007035121A5CEF6401602A302B14121E17CB
:10443000EF600C121A5CEF600690433974FFF0C213
:104440002B123EFE903D32E060025110904339E065
:10445000FF021DF4121A6622903D37E0FF9165E4D9
:10446000903D37F022AB07E4FF1BEBC3940E501ACC
:10447000D16A1224FD00000000EBB1561224FD00A9
:10448000000000EB918DE4F07F0122E0FF75F00C5D
:10449000A424C0F582E4342CF58322D3900001E0FB
:1044A0009400900000E094005002A153C2ADE0FFE0
:1044B000A3E0904336F1BD900000F0A3F0D2ADF53B
:1044C00075E575918DE06075904336D1BBFCFDB10B
:1044D000541224B5D31223D45042B164E0FF6008D3
:1044E000F46005B164E014F0B164E0600EE575D1EC
:1044F0006B122499B1541224F1800FE575918DE46B
:10450000F0B1541224FD00000000D18C4E6008D19F
:104510008CAA06F9122716123EE98021B154C083F5
:10452000C082122499C006C007904336D1DBF8D070
:1045300007D006122278D082D0831224F10575E5C7
:1045400075C3940E500281C1904336E0FEA3E0FF94
:10455000121B0622E57575F00CA424B5F582E4342F
:104560002CF58322E57575F00CA424BFF582E434A4
:104570002CF58322903F15ECF0A3EDF0903F14EF63
:10458000F0FB903F17122499D16A1224F1EBB15637
:104590001224F1EBB156C083C0821224B590000002
:1045A000D1BBFCFD12226BD082D0831224F1903F4C
:1045B0001BE0FF903F14E0FEB166EFF0903F15E086
:1045C000FCA3E0FDEE75F00CA424BDF582E4342CD0
:1045D000F583ECF0A3EDF02290400CEEF0A3F16532
:1045E000EBF090401174FFF0904010E0904012F01A
:1045F000904012E0FFC3940E505EEFB15612249922
:10460000E4FBD1C2704A904010E07E0170027E024D
:10461000904012918BEEF0C00790400EE0FF7E00BC
:104620006004F1C480027F0AE4FCFD903F1712246D
:10463000F190400FE0903F1BF090400CE0FCA3E0B5
:10464000FDD007B174904012E004FF904011F022B9
:10465000904012E004F08098904011E0FF22901208
:1046600017E07F0030E2027F0122EB75F00CA424FA
:10467000B9F582E4342CF58322E47FD07E07FDFC7B
:10468000903F1E1224F1E4903F22F022E57575F070
:104690000CA424BDF582E4342CF583E0FEA3E022D3
:1046A000AB07E4FA1BEBC3940E500DD16AF1D36053
:1046B00007EBB1561224F10AAF0222E0FEA3E0FF9D
:1046C000E422FAF9F8C30223D4E4FDFCFF0219F84E
:1046D000901217E05408FF22904207E0FEA3E0FB8F
:1046E000AA06E4F922904207EEF0A3F165EBF0D1BF
:1046F000D8F15AF1DBC006C0079042071272C0F829
:10470000D007D006D31223BE7E0050047F01800262
:104710007F00C006C007D1D8F15AD0E02FFFD0E00B
:104720003E904207F0A3EFF053ECFC904207F1B645
:10473000540342EC75FF02EDF5AF75ED0275ED0423
:10474000A3E0600543EC08800353ECF790420AE0D5
:10475000600443EC042253ECFB22F87F807E387D1A
:1047600001FC022F31EFF0A3EDF0A322F0A3EFF054
:104770007E1C7FAFE4FB7D01E4904010F0A1D820C7
:10478000022A901217E030E10AF1B350067E007F52
:104790000180047E007F00EF4E7011121C6EEF70DE
:1047A0000B121CA5EF700511107F01227F0022C1A2
:1047B000A08165A21322E0FCA3E0FDEC22CFF0A3D0
:1047C000EFF0E4227C007D0A0220A6901217E0445C
:1047D00004F022122499EC4D4E4F22AC00AD01AEF4
:1047E00002AF0322901217E0C4135407FF22900770
:1047F0002AEFF090072CEBF090072BEDF05402908D
:104800001240F012477FEF7002C32290072AE0B4F3
:104810000411A3E0FB7D017F01114890072A740376
:10482000F0801390072AE0B40505121BE78007907B
:10483000072B1175114890072AE09003C1F09007EB
:104840002CE090123FF0D322EB600875FF0153CDAE
:10485000FD800675FF0143CD02ED600553FBDF804F
:104860000343FB20EF600775FF0243E1402275FF21
:104870000253E1BF22E0FB7D01E4FF22121BE77F30
:104880000143FB1075FF0243E640EF600D75FF0228
:10489000E5E120E7FB43FB0D800343FB0E80FE7543
:1048A000FF028FE322901221E07011123FE14FFFCF
:1048B000A3E04FFFA3E04F7003D38001C322AE07F4
:1048C00012413EEE04FEEF8EF084AFF02230110C68
:1048D000902B24E07006FF1219B7C211301323AFDA
:1048E000719006CFE0FEEFC39E400AEF9ED3940284
:1048F0004010C213229006CFE0F42FD3940140025F
:10490000C213229003C5E0FCA3E04C700A9003C5DB
:10491000EEF0A3EFF0D322C3229003C5E0FEA3E0A4
:10492000FF4E6009CAEECAC9EFC912271622D2ADDE
:10493000D2BD75FF02758E7175740975FF02E58E23
:10494000546F4480F58E9041EF1224FD000000006A
:1049500022C0E0C0F0C083C082C0D075D008C0FFC4
:1049600075FF02E58E30E43A75FF02E58E54EF44A0
:1049700010F58E9041EF12249931DBFC9041EF123B
:1049800024F1900000123F7FE57430E0020551E50C
:1049900074700D7574090571E571700205708002FF
:1049A000157475FF02E58530E40875FF0243851034
:1049B0000576D0FFD0D0D082D083D0F0D0E032FFC7
:1049C0007E04FDFCE0F8A3E0F9A3E0FAA3E0FB120B
:1049D0002286E47B7DFAF9F8122311EF2401FFE42B
:1049E0003EFEE43DFDE43C229037B11224F19037C5
:1049F000C17401F0E4A3F0F12D75FF02E5E630E0AB
:104A00000E9037C27401F0FB7A3779C21262FC90C3
:104A100037CC1224FD002DC6C0E4F5FFF5A490129A
:104A20000FF09037C37402F075FF039037C3E0FFB7
:104A3000F595EF146017146024240270339037B199
:104A400071AC9037C81224F19037BD801E9037B5F5
:104A500071AC9037C81224F19037BE800E9037B9F0
:104A600071AC9037C81224F19037BFE09037D0F086
:104A70001269679037D0E0700512728280649012DC
:104A80000EE004F09037C3F1EE9037C2E0701A9058
:104A900037CC71AC9037C8F1CCFBC31223D450098A
:104AA0009037C871ACA31224F19037D0E0FF1267A1
:104AB000E89037C0E0FF9037C3E0FDA231922E129C
:104AC00069159037C2E070129037C871AC90416997
:104AD0001224F19037C3E0FFD14A9037C3E0719FB1
:104AE000F1831273BE600241289037C2E07043A385
:104AF0007402F075FF039037C3F1DF70129037CC6A
:104B000031BFFC78011223E59037C3718CF1831219
:104B100073BE70DF9037CC1272062420FFEE344E45
:104B200031E1F1D731CFFC78011223E59037C4127F
:104B300024F11263DF400343F420A231922F126864
:104B4000479037C2E024FF922D9037C471AC1272A7
:104B500048E4F5FF75E5081264FAE59B30E7FBD100
:104B6000E2F1C643D5047FC8D1F591E1F1247B0180
:104B70007A3779C11263ED90120EE0B40102F1E7C9
:104B80009037C1E0B40103D38001C322E0FB25E0EC
:104B900025E02401F582E43412F5831224F1EB259B
:104BA000E025E02401F582E43412F583E0FCA3E083
:104BB000FDA3E0FEA3E0FF229039301224F1F12D95
:104BC0009039451224FD002DC6C0E4F5FFF5A490F0
:104BD000120EF0A3F09039407402F075FF03903983
:104BE00040E0FFF595EF1460171460242402703341
:104BF00090393071AC9039411224F190393C801ECB
:104C000090393471AC9039411224F190393D800EC5
:104C100090393871AC9039411224F190393EE090CE
:104C20003949F0126967903949E070051272828043
:104C30005490120EE004F0903940F1EE9039457135
:104C4000AC903941F1CCFBC31223D45009903941C7
:104C500071ACA31224F1903949E0FF1267E8903952
:104C60003FE0FFA3E0FDA230922E126915A371ACC4
:104C70009041691224F1903940E0FFD14A903940C7
:104C8000E0719FF1831273C7600261DB7402F075FB
:104C9000FF03903940F1DF7017FF7E04FDFC90396F
:104CA0004531C4FC78011223E5903940718CF183C1
:104CB0001273C770DA1263DF400343F420A230920C
:104CC0002F1268479039451272062420FFEE344EA9
:104CD00031E1F1D731CFFC78011223E5C22D1272F8
:104CE000489012137401F07E127F01E4FD8F828ED2
:104CF00083EF2DF582E43EF583E0FC901213E02C67
:104D0000F00DEDB412E722903DB012632A903DB64B
:104D10001224FD00000001903DBA7401F0F5FFE59A
:104D2000D554C070051255FE5002C322E4F5FF535E
:104D3000967F75FF0175D504F11D75FF0143D508F8
:104D4000E4F5FF5394FBF5FF53847FF5FF7598FF5F
:104D5000903DB4E5F4F075F49C75FF01A3E5E4F033
:104D600075E4257B017A3D79BA1262FC903DBAE088
:104D700064016002C128F5FF903DB37414F0903DCA
:104D8000B671AC78011223F8903DB61224F1E5A774
:104D900030E1FB43A702903DB671ACE5A730E005DA
:104DA000E47B018002E4FBFAF9F8EF4BFFEE4AFEE8
:104DB000ED49FDEC48FC903DB61224F1903DB3E086
:104DC00014F070BA903DB671AC78101223E57B6D8B
:104DD0007A4E79C67841122286EF2439FFEE3430BC
:104DE00031E1FCE4FBFA7901F8122311EE547FFE65
:104DF000E4FDFC126B0A903DB671ACEB6FFFEA6EFE
:104E0000FEE8CDEFCDCCEECCECFF12633AEF1220F2
:104E10007212633A900001ED12208490120FE0307C
:104E2000E606E4F5FF75968075FF01E4F5D5903D43
:104E3000B4E0F5F475FF01A3E0F5E4126836903DA7
:104E4000BAE0B40103D38001C322904168EFF0E4DB
:104E5000A331BFFC78011223E5904168E0FBF15BD0
:104E6000F5831224F1901210E064806074E0C39422
:104E70007F5039EBF15BF583C083C08271ACEEC02B
:104E8000E0EFC0E0901210E075F004A4AEF0FBCAB1
:104E9000EECAEA3395E0F9F8D0E0FFD0E0FEC3EFC8
:104EA0009BFFEE9AFEED99FDEC98802D904168E015
:104EB000F15BF583C083C082F1CCFB901210E0F46B
:104EC0000475F004A4FFAEF0EE3395E0FDFCEB2F8B
:104ED000FFEA3EFEE93DFDE83CFCD082D08312248F
:104EE000F122E4F5FF758EC8125F8D75FF0153D571
:104EF000FBF1BF7F147E00F10075FF034391802218
:104F000075FF03D3EF9402EE9400400874FE2FFF68
:104F100074FF3EFEEFF592EE540FF591227F3FFEB7
:104F2000F100D1F975FF03E59120E7FB2275FF023F
:104F300043E180F16775FF01438E1075FF0153DB7C
:104F40007F75FF0175D502D1F3F1C6438E1075FF51
:104F50000143DB8075FF01E4F5D52225E025E0243F
:104F600001F582E4341222E5FA30E1FB75FC80752C
:104F7000FF0153D5EFE4F5FC75FC40F1BFE5FC20E3
:104F8000E6FB229041F71224F175FF019041F7A34F
:104F9000E0FDA3A3E4FFFEE4FC78101223E58FE11B
:104FA0009041F7A3A3E0FEA3E4FFE4FDFC78081220
:104FB00023E58FE29041F7A3A3A3E0FF8FE32275DF
:104FC000FF03E4F59122F12475FF0122E0F8A3E04C
:104FD000F9A3E0FAA3E022FCE4FB7A04F9F822E06A
:104FE000F595E5F454072275FF0143D81022E0330C
:104FF000333354F8F5F4227E1E7F717B017D0A90D5
:1050000040107403F00245D8904334ECF0A3EDF067
:10501000904333EFF0314CFFD240121E3F904333A8
:10502000E0FFE4FD1154904333E0FF313F124BB1F8
:10503000904333E011BFF583EEF0A3EFF02054125C
:10504000D2547E507FCB7BFF7D01124FFFBFFF020A
:10505000C322D322216E9041EB1225A99041EAEFA1
:10506000F0C253314CFF7B017A4179EE121E3A4077
:1050700003A2532211ACE0FE9041EEE0FDEE6D7014
:1050800028EF11B1E0FF9041EB123F9511ACE070B9
:1050900008EF11B17401F080089041EAE011B1E429
:1050A000F011ACE0FD1154D253A253229041EAE03A
:1050B000FF75F006A424A9F582E4343DF58322753A
:1050C000F006A424A7F582E4343D22E4904372F074
:1050D000904372E0FFC394025056EF3131E0640117
:1050E0007046904372E03131E4F07B017A4379738A
:1050F0001156501D904372E0FE11BFF583E0FCA3F2
:10510000E04C600D904373E0FFEE11BF315B12275E
:105110001A904372E0FF75F006A424A6F582E434E9
:105120003DF5837401F0313F904372E004F080A0BC
:105130002275F006A424A5F582E4343DF58322EF20
:10514000146006047005D2A822D2AA2275F006A423
:1051500024A4F582E4343DF583E022F583E0FCA34A
:10516000E0FDF5828C8322901249E0FD7F01EF7013
:1051700011ED600775FF0143AE012275FF0153AECB
:10518000FE22EFB40114901249EDF0600775FF01A3
:1051900043AE022275FF0153AEFD221FEFC3940EF2
:1051A0005009EF1245561224998005E4FFFEFDFCDC
:1051B00022E4FEEFC3940E5013EF12448DE05D7CA9
:1051C00000B505027C01EC2EFE0F80E7AF06227DC4
:1051D00002E4FF80DC7D017F0331B1AB0731CFEF0B
:1051E0002BFF22E4FD7F0380C8A2AD9225C2ADAFA4
:1051F00071AE70A22592AD22AD07AC0631E9C3EFC6
:105200009DEE9C4008EF9DFFEE9CFE8013EDF4FDAB
:10521000ECF4FCED2401FDE43CFCED2FFFEC3EFE44
:10522000229003CAE0FEA3E0FF31F8D3EF94C8EE6A
:1052300022E49006C1F07B017A0679D09042731285
:1052400025A9904273122589121FB3FF124465905D
:105250004273122589E4022072900AA71225A9D26E
:1052600027C2EBE514600281C8E51530E202C322D3
:10527000B11724E3F9E4F165F190B11F12216F54E5
:1052800007FF9006B0F012603E900AAAEFF0E51515
:1052900020E072B1FE40057F011236A5900AAAE017
:1052A000FF7B017A0A79AB126346E4337004D2EBD8
:1052B00081A7900AAAE0246B127419E0FF900AAB50
:1052C000E0D39F4040D2EB126096A21292ED90067E
:1052D000C1E06014B11724E3F9E43AFA7401122032
:1052E000724315045131D3229006D0E070157B0132
:1052F0007A0679D07C577DED9040187464F0E4A371
:10530000F0F1B6C322B1FE5005C23312373A125F34
:1053100053E5D120E0FBE4F510C213B11F12216F59
:105320005407C39403E494005030B11724B1B11072
:10533000FFB11724D8B1102FFFE433FED3EF944010
:10534000EE648094804013B11724E312734412205A
:1053500072431504A21292EDD322B1172408F9E486
:105360003ACFE9CFF5118F12B11724B1B110F5166C
:10537000AE11126E3CB11724B2F9E43A8B1CF51D44
:10538000891EB11724D8B110F51FB11F12216FFD6E
:10539000ACF05460602CB11724D9B110FF126070CA
:1053A000C227B100FB7A009006D17D181270D9EFA8
:1053B0002BFFEA3EFEEF2414FBE43EFA7D027F0160
:1053C0008197B11F12216F54079006B0F075140831
:1053D000B11724B2F9E43AFA126E30B11724D8B1F9
:1053E00010FFAD16126E5B9006B0E0640370247B74
:1053F00001FD91D0D3B16A5005740112201DE4F56E
:10540000FF1273D0121FB32428FBE433FA7D03E4A8
:10541000FF81979006B0E06402702A91D3D3B16AFD
:10542000400574FF12201DE4F5FFE5D25480440AC4
:10543000F5D2121FB32414FBE433FA7D027F01B1CD
:1054400073B12D8054E4FB7D0191D0D3B16A400546
:1054500074FF12201DE4F5FFB11FB1E37F05600268
:105460007F0AEF547FFFE5D254804FF5D2E4F5FF79
:1054700043D280B100FD7C00B11FB1E37E00600427
:105480007F0A80027F05EF25E0FFEE33FEEF2DFB64
:10549000EE3CFA7D017F01B173B11F1272B9A227F0
:1054A00092261258AC4006A21292EDC322513190BE
:1054B0000AAAE0FFB11724E5F9E43AFAEF122072E4
:1054C000A21292EDD2EBD322A21292EDD2EBC32222
:1054D000FFB132900AA7122589E924B1F9E43AFA1A
:1054E000121FB3FF900AA7122589E924D8F9E43ADC
:1054F000FA121FB32FFFE433FEEF2401FFE43EFE58
:10550000900AA7122589E924B2F9E43AFAE92407B6
:10551000F9E43AFA021FB3900AA7122589E922900A
:105520000AA7122589E92404F9E43AFA22E4FB7D6A
:1055300001FFE4F5FF75D102E5D120E0FBE4F5FFC2
:10554000F5D1EF6008E4F5FF43D2808006E4F5FF73
:1055500053D27FEB6006E4F5FF43D104ED6006E42F
:10556000F5FF43D1082233FEE0C39FEE6480F87458
:10557000809822900ADFEFF0ED24FE601914602677
:105580002402703BEB2402FFE43AFE7C007D5012C3
:1055900020A67D60801EB1EBC333CE33CED8F9FF99
:1055A0007C007D28800EB1EBC333CE33CED8F9FF1B
:1055B0007C007D641220B8900AE0EEF0A3EFF0903A
:1055C0000ADFE01260F2C083C0821224B5900AE1C3
:1055D000E02401900AE01273A312226BD082D083E0
:1055E0000224F112216F441045F022EB2401FFE464
:1055F0003AFEEF780322C2EBA2ED9212C2EDE5F47F
:10560000C330E701D322900AF4EFF0C234125E33C4
:10561000D21B900AF4E0904279F0D21CA3E4F0A3EC
:10562000740DF0125C61E4900AF5F0B1FE507690D2
:105630000AF5E07070E5F754C060F0D1BCD1CF64DA
:1056400055704ED1CF901221E06F600E900AF5E0B8
:10565000F47039901215E030E132D1CF6455601802
:10566000E0FF644A6012EF640A600D901221E0FFCF
:10567000900AF5E0FE6F7005900AF5800A9006AF7B
:10568000E06E900AF570197402F0809F900AF58020
:105690000F900AF5E0B454057433F0808E900AF54B
:1056A0007401F08086900AF5E0B40207C233123725
:1056B0003A8000125C54900AF5E0FF22E5F720E002
:1056C00008E5F754C070F5FF2243F701AFF922D186
:1056D000BC900AF5EFF022900AD91225A9900AD9B8
:1056E000122589E51BF113125C41F112122589E99B
:1056F0002402F9E4F165900AD912707EF9E43AFACD
:10570000E513F113B122F112F16BF9E43AFAE40274
:105710002072E4122072900AD922F1907F02121DA9
:10572000D67F01D106900B07EFF0BF0202801390E5
:105730000B07E0B43311E4F07F01D106BF020D90F6
:105740000B077401F08005E4900B07F0900B07E065
:10575000700CB1FE5005C23312373A1237D0900B9D
:1057600007E024FF223AFAE4022072122589E92494
:1057700005229006B1E0FDFFC3740E9FFFE4940084
:1057800012711FE51754F0B1697F005002AF052276
:10579000901223E0F4FFA3E06FFFA3E06FFFA3E00C
:1057A0006FFF64556009EF644A6004EFB40A010FAB
:1057B0009006AFEFF022904016ECF0A3EDF0904091
:1057C000131225A9513C90401612723A90401312C0
:1057D0003F95904013122589121FB3B4FF04E412C1
:1057E0002072904013122589121FB3FF22E4900605
:1057F000D0F09006C104F022B1FE500512580940C5
:1058000003301303D38001C322E5F754E024FF22C1
:10581000AF14EFC36001D322EFC3940E500590067E
:10582000B1EFF022E517540FFF22E517C394F050B3
:105830001F5317F01153FE740FC39F4005EE940ED3
:10584000400543170D8003EF4217E517540FFF2261
:105850007F0022E517C4540FFEEF90318C932E2267
:105860001153FFC3940E40027F0DEF90316E93FFF2
:1058700022EF30E303AF1322AD1B201404EE30E01F
:105880000CE517C394F050211257728018E5196087
:1058900006FDE4F5198012E517C394F0500BE517E7
:1058A000540FFF60041160AD07AF0522431501538B
:1058B00015DF1171D1FC4004E4F5142243FA0453BE
:1058C00015FB30260411F1800A7F5511D57F551143
:1058D000D5D2EBD32275FF01E5D520E602C322E540
:1058E000FA540360FA75FF018FC3D322318543FA5E
:1058F00004E4F5FF53D1FD43D10122AF82AE837D95
:1059000001900A8F127085E51470791255F65005D2
:10591000C23312373A900A8FE0FEA3E08E11F512DF
:10592000A31225899006B21225A9AE11AF127DAA45
:10593000126E06E4F5FF75D901F510E515542160E6
:105940002BE51530E504E4FF3185E4900A94F090EE
:105950000A94E004F0126445EF6009900A94E0C3F1
:10596000941040EB7F02121DD65315DE9006AEE078
:105970007F00B403027F0111ECD23312373AD2EB2D
:10598000A21292ED2275FF01E5D530E602C322E4B2
:10599000F5FF439A80EF124FEFE4F5FF539A7FD360
:1059A00022C23312373AF153E5D120E0FBE4F5FF90
:1059B00075D9019006AEE07F00B403027F0111ECBF
:1059C000D23312373AE4F51022C0E0C0F0C083C0F1
:1059D00082C0D075D008C0FF75FF01E5D530E60460
:1059E0007F028009E5D57F0030E7027F018F18E54F
:1059F000186402600241A6E5141226B65A15015A2F
:105A000028025A92085A33095A3E0A5A4C0B5A6CC9
:105A10000C00005C2675FF0175C355151AE51A6068
:105A2000028126751402812675FF0175C3F0751475
:105A300009812675FF0175C35575140A812675FF06
:105A4000019006C2E0F5C375140B812675FF019025
:105A500006AFE0F5C3751401751A149006D11272E1
:105A6000FA45F06002812675140C8126AB1CAA1D34
:105A7000A91E126E30AD16AF1F126E5B12552D753A
:105A8000FF001273D043FA0475FF0011F475140877
:105A90008126C2EB751400431504127290400281F6
:105AA00026123F7F8126E518640160028126126B71
:105AB0007640028126E5107022913AE0FF6455603D
:105AC00004EFB4540BD213AF719006CFEFF061A87E
:105AD00075100275FF0075D9088126E51064027003
:105AE0006E75FF01F5EA75EAFF9006B2122589E5A9
:105AF000D9122072126B4C12605C9006AEEFF0F17E
:105B00006BE0900B06F0E0FFD3940940259006AEC1
:105B1000E0D39402400CEFD394AA7F0040027F01AF
:105B2000800D900B06E0D394407F0040027F01EF90
:105B30006004914C8072900B06E0F516126B419058
:105B40001222EFF075FF008516D97510038126E546
:105B5000106403600281269006B2122589121FB3D9
:105B6000FF9144EF122072914C75FF009006AEE059
:105B7000C39403E5D350055402FF80035401FFEFA3
:105B8000602A30E111C39006BCE094FF9006BBE0B0
:105B900094FF5014800FC39006BEE094FF9006BDA2
:105BA000E094FF5003123F7F31A1807AC233123755
:105BB0003A75FF00F156E5D120E0FBC2EB43150238
:105BC000913AA3E0FF901224E0FEEF6E9139E0904D
:105BD00012239133A3A3E09012259133A3A3A3E052
:105BE000FE901226E0FDEE6D4F6012C39006C0E0FD
:105BF00094FF9006BFE094FF5003123F7FC39006CE
:105C0000BAE094FF9006B9E094FF5003123F7F750D
:105C100010009006AEE0B403071516F16BE516F020
:105C20009003C4E516F0D0FFD0D0D082D083D0F05E
:105C3000D0E032FEE0FDEE6D4FFF851282851183CC
:105C400022122589E92401F9E43AFA22301304C228
:105C500013915422C21BE4904279F0C21CA3F0A31A
:105C6000F075FF01E5D520E702C322C234D133200D
:105C70001B02A10353F4DF904279E0FF3185124FFC
:105C8000E7301C0543F440800353F4BFE4F5FF53B1
:105C9000F5F090427AE0FAA3E0FBEA42F5EBF5F684
:105CA000D234D1337FC8124EF5E4F5FFE59320E6F8
:105CB00004B11240F4301C58E5F430E3047D288030
:105CC00010E5F430E2047D288007E5F430E1027D40
:105CD00028124FBF7F28124EF5B11240FC7F781278
:105CE0004EF5B112502AD17F50F8D1F6EFC39D5036
:105CF000F1D17F50EDE5F720E5E8C234D133124F02
:105D0000BF80DF53F4BF1263E5400543F420F14C3C
:105D1000D32275FF03E591C330E701D322904021E0
:105D2000124765EBF09040277401F0C232D186B182
:105D3000125005E5FC20E6F7D154BF0108E4F5FC5C
:105D400075FC408007D154BF0202D322F14C904031
:105D500022E0FF126B1775FF0153D5DF53FAFB905A
:105D60004021E0FF3185904022E0904021B40811AD
:105D7000E0124F5BF58312720624521249DEFC805A
:105D800004E0124B9F124F83904023E0FF126B7090
:105D900075FF0175FF03759B04D18675FC42E5FC18
:105DA00020E104B11240F4904024E0F075FF03E5D7
:105DB0009B20E704B11240F4E59B20E70D75FF033B
:105DC000759B1F124F67D232804ED12C1262FC900D
:105DD0004022E0FD90120FE05D701D904021E0FF39
:105DE000D12C12697490120FE0FF904022E0FEEF78
:105DF0004E90120FF0124CE1F18D7B017A40792523
:105E0000D1C1500FC3904026E09420904025E094EB
